:020000040800F2
:10000000A01700205D260008310200083302000816
:10001000370200083B0200083F0200080000000011
:100020000000000000000000000000004502000881
:1000300043020008000000004702000849020008CF
:100040005B0200085D0200085F0200086102000810
:100050009302000895020008970200089902000820
:100060009B0200089D0200089F020008A1020008F0
:10007000A3020008A5020008A7020008A9020008C0
:10008000AB020008AD020008AF020008B102000890
:10009000B3020008B5020008B7020008B902000860
:1000A000BB020008BD020008BF020008C102000830
:1000B000C3020008DD020008DF020008B3030008E5
:1000C000B5030008B7030008B9030008BB03000824
:1000D000BD030008BF030008C1030008C3030008F4
:1000E000C5030008C7030008C9030008CB030008C4
:1000F000CD030008CF030008D1030008D303000894
:10010000D5030008D7030008D9030008DB03000863
:10011000DD0300080F0400081104000813040008A0
:100120001504000817040008190400081B0400083F
:1001300000F002F800F06FF80AA090E8000C82448A
:100140008344AAF10107DA4501D100F064F8AFF267
:10015000090EBAE80F0013F0010F18BFFB1A43F0A5
:10016000010318479CB60000BCB600000A444FF0DB
:10017000000C10F8013B13F0070408BF10F8014B06
:100180001D1108BF10F8015B641E05D010F8016B4B
:10019000641E01F8016BF9D113F0080F1EBF10F8AF
:1001A000014BAD1C0C1B09D16D1E58BF01F801CBD2
:1001B000FAD505E014F8016B01F8016B6D1EF9D555
:1001C0009142D6D37047000000230024002500266A
:1001D000103A28BF78C1FBD8520728BF30C148BFAA
:1001E0000B60704766290AF0C684642908F004820F
:1001F000782908F03982002070471FB5AFF30080DE
:1002000008F0A4FD04000020002109F0DBFAE06002
:100210001FBD10B510BD08F08FFE1146FFF7EDFFB2
:1002200007F031FE08F0ADFEFFF7F3FF08F0F0FE37
:10023000704700BFFEE700BFFEE700BFFEE700BF5C
:10024000FEE770477047704710B505F053FA7348E2
:100250000068401C7149086010BD704770477047C6
:1002600010B5012003F06CFF90B1012003F079FF7D
:100270006B4800686B49086003F034FF03F0F2FE3E
:100280006949884204D3002003F0F6FE03F02AFFF8
:1002900010BD704770477047704770477047704790
:1002A0007047704770477047704770477047704796
:1002B0007047704770477047704770477047704786
:1002C000704710B50221480704F027FD28B102212C
:1002D000480704F033FD07F078F810BD704710B5FB
:1002E0000221524804F019FD00B302214F4804F0E6
:1002F00025FD4F480068401C4D4908604D48008866
:10030000B0F57A7F03DB40F2E9304A49088047487C
:1003100004F0E4FC4849088008460088474A1288EF
:10032000104481B2414804F0C9FC41E004213F4837
:1003300004F0F3FC90B104213C4804F0FFFC3B487E
:1003400004F0CFFC3C490880084600883C4A1288EB
:10035000104481B2354804F0B3FC29E00821334849
:1003600004F0DBFC90B10821304804F0E7FC2F4892
:1003700004F0BAFC3049088008460088314A1288E7
:10038000104481B2294804F09DFC11E01021274857
:1003900004F0D4FC254804F0AAFC2749088008464C
:1003A0000088294A1288104481B2204804F08CFC4D
:1003B00010BD70477047704770477047704770476F
:1003C0007047704770477047704770477047704775
:1003D00070477047704770477047704710B540F2DC
:1003E00025511A4804F031FE80B119480068401CBC
:1003F00017490860012017490870144804F0C6FD29
:10040000C4B21548047060001449088010BD7047DC
:100410007047704770477047704770470C03002063
:1004200068030020740300207F5101000008004091
:100430003C0300203803002000000020300300208F
:10044000320300203403002036030020004C00401B
:10045000400300205903002058030020140300200B
:100460002DE9F04F97B000BF07F026FB50E007F0F2
:1004700067FC07F0F4FA04460346FFA201210020BE
:1004800006F0F6FB07F0DCFA04460346FDA2022163
:10049000002006F0EDFB002005F0ABFF044603460C
:1004A000FBA20321002006F0E3FB012005F0A1FFE1
:1004B00004460346F8A203213C2006F0D9FB0220A3
:1004C00005F097FF04460346F4A20421002006F03D
:1004D000CFFB032005F08DFF04460346EEA2042166
:1004E0003C2006F0C5FB06F031FF04460346EDA2B2
:1004F0000521002006F0BCFBEC4805F03BFC002089
:1005000007F00CF9012803D1E94805F033FC00E0BD
:10051000ADE700BF07F0D0FA07F012FCE5A006F047
:10052000C5FA07F0CDFA16905EE0E14805F022FC2E
:100530000020E34908604EE00020E24908603BE00B
:10054000E148006878B9E1480068401CDF4908606C
:10055000DF4805F00FFCDD480068642815D1012054
:10056000D949086011E0D848006801280DD1D74862
:100570000068401ED5490860D54805F0FBFBD3480C
:100580000068643001D1D0490860D0480368CC4885
:100590000093D0A203210368002006F069FBCB483A
:1005A000006841B2C6480068C0B205F0A4F9C54869
:1005B0000068401CC3490860C2480068B0F5C87FA5
:1005C00004DA002007F0AAF80028B9D0BC48006877
:1005D000401CBB490860BA480068042804DA0020BF
:1005E00007F09CF80028A7D0002007F097F8002813
:1005F0009BD005F07CF900BF002007F08FF80128A0
:10060000FAD0B84805F0B6FB07F056FAA3E007F0B9
:1006100097FBB5A200211E2006F02AFB102005F052
:10062000E8FE044603469CA20121002006F020FBC0
:10063000112005F0DEFE0446034697A20121162094
:1006400006F016FB122005F0D4FE0446034692A2E3
:1006500001212C2006F00CFB132005F0CAFE0446F5
:1006600003468DA20121422006F002FB142005F072
:10067000C0FE0446034688A20221002006F0F8FAD4
:10068000152005F0B6FE0446034683A2022116207B
:1006900006F0EEFA162005F0ACFE044603467EA2F4
:1006A00002212C2006F0E4FA91A203211E2006F07C
:1006B000DFFA172005F09DFE0446034676A20421CA
:1006C000002006F0D5FA182005F093FE04460346F4
:1006D00071A20421162006F0CBFA192005F089FE3C
:1006E000044603466CA204212C2006F0C1FA1A200D
:1006F00005F07FFE0446034667A20421422006F06F
:10070000B7FA1B2005F075FE0446034662A20521D8
:10071000002006F0ADFA1C2005F06BFE04460346EF
:100720005DA20521162006F0A3FA1D2005F061FE4A
:100730000446034658A205212C2006F099FA5C488D
:1007400005F018FB002006F0E9FF012803D1584806
:1007500005F010FB00E05AE700BF07F0ADF9FDE03F
:1007600007F0EEFA64A200211E2006F081FA0021B3
:10077000084601F029FD0446034647A20121002056
:1007800006F076FA0021012001F01EFD0446034622
:1007900041A20121162006F06BFA0021022001F08F
:1007A00013FD044603463CA201212C2006F060FA0A
:1007B0000021032001F008FD0446034636A2012172
:1007C000422006F055FA0021042001F0FDFC044609
:1007D000034631A20221002006F04AFA002105203A
:1007E00001F0F2FC044603462BA20221162006F07B
:1007F0003FFA0021062001F0E7FC0446034626A24A
:1008000002212C2006F034FA3DA203211E2006F01E
:100810002FFA0021072001F0D7FC044603461EA250
:100820000421002006F024FA0021082001F0CCFC6D
:100830000446034618A20421162006F019FA0021E6
:10084000092001F0C1FC0446034613A204212C2018
:1008500006F00EFA00210A2001F0B6FC0446034619
:100860000DA20421422006F003FA00210B2001F022
:10087000ABFC0446034647E04559455F43483D25E8
:10088000640000004559455F494E3D256400000065
:10089000414930313D25640025640000414932332F
:1008A0003D256400434F4D503D256400CDCCCC3DEB
:1008B000CDCC4C3E2020202020204D4F544F5200C4
:1008C0001400002010000020080000200C00002070
:1008D0000AD7233C4D4F543A2564202073703A25A3
:1008E00064200000CDCC4C3D45594530000000004F
:1008F0004559453100000000455945302D4D430014
:10090000455945312D4D4300AFF2740205210020B9
:1009100006F0AEF900210C2001F056FC0446034617
:10092000AFF28C020521162006F0A2F900210D205D
:1009300001F04AFC04460346AFF2A40205212C2034
:1009400006F096F9FF4805F015FA002006F0E6FEDD
:10095000012803D1FB4805F00DFA00E000E700BFD5
:1009600007F0AAF8EBE007F0EBF9F7A200211E2050
:1009700006F07EF91F2005F03CFD04460346AFF269
:10098000E80200213C2006F073F9002005F031FD5B
:1009900004460346AFF200120121002006F068F978
:1009A000012005F026FD04460346AFF21412012192
:1009B000162006F05DF9022005F01BFD04460346F3
:1009C000AFF22C1201212C2006F052F9032005F081
:1009D00010FD04460346AFF240120121422006F00A
:1009E00047F9042005F005FD04460346AFF258120E
:1009F0000221002006F03CF9052005F0FAFC04462F
:100A00000346AFF26C120221162006F031F90620DF
:100A100005F0EFFC04460346AFF2841202212C20BD
:100A200006F026F9072005F0E4FC04460346AFF281
:100A300098120221422006F01BF9082005F0D9FC8B
:100A400004460346AFF2B0120321002006F010F96D
:100A5000092005F0CEFC04460346AFF2C412032180
:100A6000162006F005F90A2005F0C3FC04460346EB
:100A7000AFF2DC1203212C2006F0FAF80B2005F06F
:100A8000B8FC04460346AFF2F0120321422006F000
:100A9000EFF80C2005F0ADFC04460346AFF2082247
:100AA0000421002006F0E4F80D2005F0A2FC044625
:100AB0000346AFF21C220421162006F0D9F80E20BE
:100AC00005F097FC04460346AFF2342204212C20A3
:100AD00006F0CEF80F2005F08CFC04460346AFF27A
:100AE00048220421422006F0C3F81E2005F081FCB4
:100AF00004460346AFF260220521002006F0B8F854
:100B000005F09AFE044609F06DFDCDE914018FA2AF
:100B1000CDE9000105211E2006F0AAF88DA20521CD
:100B20004E2006F0A5F88D4805F024F9002006F0C7
:100B3000F5FD012803D1834805F01CF900E012E718
:100B400000BF06F0B9FF62E007F0FAF80F2005F0E9
:100B500025F904460E2005F021F905460D2005F083
:100B60001DF906460C2005F019F907460B2005F083
:100B700015F980460A2005F011F98146092005F093
:100B80000DF98246082005F009F98346072005F093
:100B900005F91590062005F001F91490052005F0DF
:100BA000FDF81390042005F0F9F81290032005F0E9
:100BB000F5F81190022005F0F1F81090012005F0F1
:100BC000EDF80F90002005F0E9F8CDE905BACDE980
:100BD0000798CDE90976CDE90B540E9012A80FC8FD
:100BE000CDE90323CDE90101119B00935C480EA9D7
:100BF0000EC905F05BFF5B4805F0BCF8002006F06D
:100C00008DFD012803D14F4805F0B4F800E09BE7C3
:100C100000BF06F051FF07F093F853A005F046FF20
:100C200064E007F08DF850A005F040FF51A20121CB
:100C3000002006F01DF806F043FF169009E000249E
:100C400004E00121E0B205F012F9641C0F2CF8DD7C
:100C500000BF06F035FF0546169909F0B7FE0446B9
:100C600009F0C0FCCDE9140144A00CC8149809F0A7
:100C7000B3F904D2002006F051FD0028DFD007F0C0
:100C80005FF839A005F012FF3EA20121002005F017
:100C9000EFFF06F015FF169009E0002404E00021A4
:100CA000E0B205F0E4F8641C0F2CF8DD00BF06F09C
:100CB00007FF0546169909F089FE044609F092FCE3
:100CC000CDE914012DA00CC8149809F085F904D2BF
:100CD000002006F023FD0028DFD0002006F01EFDD6
:100CE000012803D1174805F045F800E099E700BF57
:100CF00006F0E2FE07F024F824A005F0D7FEB4E0E9
:100D0000002405E064221E21E0B206F0EDFB641C25
:100D10000F2CF7DD07F014F820A20021084605F09B
:100D2000A7FF22A20221002005F0A2FF22A2042197
:100D3000002005F09DFF06F0C3FE169000BF06F0F0
:100D4000BFFE3FE0CDCC4C3E41490000544550250C
:100D5000660000002020202020000000CDCCCC3DEB
:100D600010AC00080AD7233C202020202020444F2C
:100D700000000000444F20204F4E200000000000E3
:100D80000000E03F444F20204F4646002020202016
:100D90002020534552564F204D4F5400414C4C207B
:100DA00053455256204D4F54200000006465677231
:100DB0006565202033300000207370656564203144
:100DC000303000000546169909F000FE044609F08F
:100DD00009FCCDE9140148A00CC8149809F0FCF8EE
:100DE00004D2002006F09AFC0028A8D0002405E0D8
:100DF0003C22A021E0B206F077FB641C0F2CF7DD4B
:100E000006F09EFFAFF26C020021084605F030FFAD
:100E10003BA20221002005F02BFF3CA20421002070
:100E200005F026FF06F04CFE169000BF06F048FEC7
:100E30000546169909F0CAFD044609F0D3FBCDE931
:100E4000140135A00CC8149809F0C6F804D200208B
:100E500006F064FC0028E9D0002006F05FFC0128C1
:100E600003D12F4804F086FF00E049E700BF06F0F9
:100E700023FE2DE006F064FF002006F036FC044659
:100E8000014628A005F012FE0121002006F04AFFCD
:100E9000012006F02AFC0446014625A005F006FEC6
:100EA0000221002006F03EFF022006F01EFC044650
:100EB000014622A005F0FAFD234804F05BFF002064
:100EC00006F02CFC012803D1154804F053FF00E084
:100ED000D0E700BF06F034FF1CA005F0E7FD09E0F5
:100EE000002006F01BFC012804D10D4804F042FF4D
:100EF000FFF7BABAF4E70000000000000000F83F76
:100F00006465677265652031363000002073706556
:100F100065642020363000009A9999999999094082
:100F2000CDCC4C3E55415254303D2564000000006C
:100F300055415254313D2564000000005541525442
:100F4000323D256400000000CDCCCC3D2020205453
:100F5000455354204F5645520000000010B5002460
:100F6000F9480068F9490860F9480068F6490860DE
:100F700006F075FD0446F6480460204610BD70B5C5
:100F800004460D4661B2002004F0B5FC69B20120B0
:100F900004F0B1FC70BD2DE9F04104460D466842F5
:100FA00009F00CFC8046EB480168404609F024FC3F
:100FB000074609F0CBFB46B23146002004F09BFC0B
:100FC000604209F0FBFB8046E2480168404609F0B8
:100FD00013FC074609F0BAFB46B23146012004F083
:100FE0008AFCBDE8F081DC480068012802D1DB49B9
:100FF000086039E0D8480068012807D9D648006859
:10100000052803D20220D54908602DE0D2480068A7
:10101000052803D10320D149086025E0CE480068A7
:10102000082803D10420CD4908601DE0CA480068A3
:10103000032803D10520C949086015E0C6480068A7
:101040000A2803D10620C54908600DE0C24800689F
:1010500018B1C14800680D2803D10720BF490860B6
:1010600002E00820BD490860704710B50320BC4964
:10107000086006F06BF9BB49086008460068142850
:1010800004DB08460068B0F5AA7F26DD012005F0E4
:10109000B0F9B549086008460068642805D26FF0C9
:1010A00059010846FFF76BFFEDE0AF480068A02844
:1010B00005D26FF027010846FFF761FFE3E0AA4879
:1010C0000068DC2804D914210846FFF758FFDAE04D
:1010D00000210846FFF753FFD5E0A2480068A0288A
:1010E00029DDA0480068C82825DA002005F081F92C
:1010F0009E49086008460068642804D25A210846C0
:10110000FFF73DFFBFE099480068A02804D22821DE
:101110000846FFF734FFB6E094480068DC2805D99C
:101120006FF013010846FFF72AFFACE000210846E4
:10113000FFF725FFA7E08B480068142808DB8948E3
:1011400000681E2804DA10214842FFF718FF9AE0D1
:1011500084480068B0F5A57F0ADB82480068B0F5D6
:10116000AA7F05DC6FF00F011020FFF708FF8AE06F
:101170007C4800681E2808DB7A4800683C2804DAAE
:101180001E214842FFF7FBFE7DE076480068B0F57F
:10119000967F0ADB73480068B0F5A57F05DA6FF02B
:1011A0001D011E20FFF7EBFE6DE06E4800683C2835
:1011B00008DB6C4800685A2804DA32214842FFF7FD
:1011C000DEFE60E067480068B0F5877F0ADB6548AF
:1011D0000068B0F5967F05DA6FF031013220FFF735
:1011E000CEFE50E05F4800685A2809DB5D48006881
:1011F000782805DA6FF031013220FFF7C0FE42E0B7
:1012000058480068F02809DB56480068B0F5877F29
:1012100004DA32214842FFF7B2FE34E05148006858
:10122000782809DB4F480068962805DA6FF01D0121
:101230001E20FFF7A4FE26E04A480068D22808DBFB
:1012400048480068F02804DA1E214842FFF797FE5C
:1012500019E044480068962809DB42480068A02845
:1012600005DA6FF00F011020FFF789FE0BE03D4813
:101270000068C82807DD3B480068D22803DA10213F
:101280004842FFF77CFE10BD10B506F05FF8354907
:101290000860084600681F2803DA01202F4908600B
:1012A00069E0304800683D2803DA02202B490860D5
:1012B00061E02C4800685B2803DA032027490860B6
:1012C00059E028480068792803DA04202349086097
:1012D00051E024480068972803DA05201F49086078
:1012E00049E020480068B52803DA06201B49086059
:1012F00041E01C480068D32803DA0720174908603A
:1013000039E018480068F12803DA0820134908601A
:1013100031E014480068B0F5877F03DC09200F49ED
:10132000086028E00F480068B0F5967F03DC0A20CB
:101330000A4908601FE00B480068B0F5A57F17DC7C
:101340000B200649086016E07C0000208000002089
:101350007800002044000020200000201C00002015
:1013600084000020400000202800002024000020ED
:101370000C20F9490860F948006810BD10B506F066
:10138000DFFCF7A20021084605F072FC00210220D4
:1013900000F081FFF54908600021F448006800F082
:1013A00013FFF349086008460068F249096888425B
:1013B0000FD9EF480068EF490968884204D96421D1
:1013C0000020FFF7DCFD13E164210020FFF7D7FDCB
:1013D0000EE1E648006801280FD1E5480068E549BC
:1013E0000968884204D964211E20FFF7C8FDFFE088
:1013F00064211E20FFF7C3FDFAE0DC4800680228E4
:101400000FD1DB480068DB490968884204D96421B0
:101410003C20FFF7B4FDEBE064213C20FFF7AFFD7B
:10142000E6E0D248006803280FD1D1480068D149CE
:101430000968884204D964210846FFF7A0FDD7E077
:1014400064210846FFF79BFDD2E0C84800680428E5
:101450000FD1C7480068C7490968884204D93C21B0
:101460006420FFF78CFDC3E03C216420FFF787FD7B
:10147000BEE0BE48006805280FD1BD480068BD49E0
:101480000968884204D91E216420FFF778FDAFE087
:101490001E216420FFF773FDAAE0B4480068062807
:1014A0000FD1B3480068B3490968884204D90021C4
:1014B0006420FFF764FD9BE000216420FFF75FFDDF
:1014C00096E0AA480068072811D1A9480068A949F0
:1014D0000968884205D96FF009016420FFF74FFDC4
:1014E00086E06FF009016420FFF749FD80E09F4826
:1014F0000068082811D19E4800689E490968884202
:1015000005D96FF01D016420FFF739FD70E06FF021
:101510001D016420FFF733FD6AE094480068092844
:1015200011D19348006893490968884205D96FF042
:101530003B016420FFF723FD5AE06FF03B0164207C
:10154000FFF71DFD54E0894800680A2811D188483A
:10155000006888490968884205D96FF063016420F2
:10156000FFF70DFD44E06FF063016420FFF707FD16
:101570003EE07E4800680B2811D17D4800687D4917
:101580000968884205D964216FF03B00FFF7F7FC3A
:101590002EE064216FF03B00FFF7F1FC28E0734878
:1015A00000680C2811D172480068724909688842A5
:1015B00005D964216FF01D00FFF7E1FC18E06421FC
:1015C0006FF01D00FFF7DBFC12E0684800680D2893
:1015D0000ED16748006867490968884204D96421C8
:1015E0000020FFF7CCFC03E064210020FFF7C7FCDC
:1015F000002010BD70B502205F49086005F0A6FE0E
:1016000056490860132004F0F4FE5C49086000208D
:1016100004F0EFFE5A490860012004F0EAFE59493F
:101620000860022004F0E5FE57490860032004F03A
:10163000E0FE56490860132004F0DBFE54490968B7
:1016400088420BD9052004F0D4FE5249096888422B
:1016500004D906F035FA5049086001E0FFF78EFE24
:101660004948006849490968401A4C4908604C4893
:1016700000684349096888420BD24848006820B195
:1016800046216420FFF77BFC03E064214620FFF73E
:1016900076FC42480068434909684942884259D962
:1016A0003E4800683F490968884253D23B48006879
:1016B00000283DD005F04AFE284908600846006829
:1016C000192804DD08460068B0F5A77F04DD642111
:1016D0005A20FFF754FCE0E0204800685A2807DC55
:1016E0001E490968C1F164006421FFF748FCD4E099
:1016F0001A480068B42804DC64210020FFF73FFC8E
:10170000CBE016480068B0F5877F04DC0021642038
:10171000FFF735FCC1E011480068B0F5B47FDADCB2
:101720000E480068C0F164016420FFF728FCB4E0B3
:1017300005F00CFE0949086008460068192804DD18
:1017400008460068B0F5A77F2EDD5A216420FFF718
:1017500016FCA2E054E000001C0000204000002025
:101760006674626C206120302E313300200000202E
:1017700054000020A80000208400002098000020D1
:1017800024000020280000202C0000203000002031
:101790009C0000204C000020BC00002038000020ED
:1017A000500000203C0000205E4800685A2807DCFA
:1017B0005C480068C0F164016420FFF7E0FB6CE066
:1017C00058480068B42804DC00216420FFF7D7FBE8
:1017D00063E054480068B0F5877F04DC6421002092
:1017E000FFF7CDFB59E04F480068B0F5B47F54DCFB
:1017F0004C490968C1F5B4706421FFF7C0FB4CE0A7
:101800004948006849490968884222D905F09EFD87
:101810004449086008460068052807DB0846006858
:101820002D2803DC64210846FFF7A9FB3D4800682A
:10183000052804DB3B480068B0F5A57F04DD4621A0
:101840006420FFF79CFB28E064210A20FFF797FB48
:1018500023E005F07BFD3349086008460068B0F5D9
:10186000B27F08DA08460068B0F59D7F03DD642189
:101870000846FFF784FB2B480068B0F5B27F03DA17
:10188000284800681E2804DA64214620FFF777FB09
:1018900003E00A216420FFF772FB132004F0A9FD86
:1018A0002349096888421DD9052004F0A2FD214979
:1018B0000968884216D906F003F905461E480168F2
:1018C000284609F079F804461C4909F03FF809D286
:1018D00000210846FFF753FB4FF07C5004F04AFA12
:1018E000FFF74CFD70BD10B506F02AFA14A20021D6
:1018F000084605F0BDF901201449086011E006F022
:101900001FFA13A20021084605F0B2F901E0FFF723
:10191000ACFB06F095F8114909688842F7D3FFF748
:101920002DFDECE740000020380000203C000020A6
:101930009C0000204C000020BC00002000007041F2
:101940006674626C206120302E30310084000020EB
:101950006674626C206120302E3032004800002016
:1019600010B501E006F0BAFBFCE700002DE9F043FA
:101970009DB004460D464FF00709022C03DD002000
:101980001DB0BDE8F083022C03D100244FF00E09F6
:1019900001E04FF0070900260CE0072101FB04607D
:1019A000294600F020FD0FA941F8260001A840F8C3
:1019B0002660761C4E45F0DB002623E0771C1EE0F7
:1019C0000FA850F826000FA951F82710884215DDFE
:1019D0000FA850F8268050F827000FA941F82600DC
:1019E0000FA840F8278001A850F8268050F827005B
:1019F00001A941F8260001A840F827807F1C4F4527
:101A0000DEDB761CA9F10100B042D7DC01A951F858
:101A10002000FF490860A9F101000FA951F820003A
:101A2000FC4908600020ABE710B5FBA005F03EF8CC
:101A30003221002003F05FFF6FF01D01012003F051
:101A40005AFF08E0FA4804F095F9002005F066FE18
:101A5000012800D100E0F5E700BF002010BD2DE90E
:101A6000FF41322005F099FE122804DA322005F0F9
:101A700094FEF049086006F063F9EFA2002102200D
:101A800005F0F6F8EB48EFA2002103684C2005F0C2
:101A9000EFF8EDA20121062005F0EAF8ECA2012101
:101AA000302005F0E5F8ECA20221062005F0E0F870
:101AB000EBA20221302005F0DBF8EBA20321062087
:101AC00005F0D6F8EAA20321302005F0D1F8EAA209
:101AD0000421062005F0CCF8E9A20421302005F00D
:101AE000C7F8E9A20521062005F0C2F8E8A2052101
:101AF000302005F0BDF801240AE0E7A2E1B20020A1
:101B000005F0B6F8E4A2E1B22A2005F0B1F8641CB1
:101B1000052CF2DDC7480068042808DCDFA2C548B0
:101B20000068401CC1B2002005F0A2F80BE0C148DB
:101B30000068042807DDBF480068001FC1B2D7A2B3
:101B40002A2005F095F8B2E0012005F0E7FD012814
:101B50000AD1B84800680628F5DAB6480068C1B26C
:101B6000322005F02EFEA2E0022005F0D7FD01286C
:101B70004CD1CB4804F0FEF800BF022005F0CEFDAA
:101B80000128FAD0C64804F0F5F8AA4800680828E9
:101B900008DCA8480068A749086008460068401C9F
:101BA000086003E0A3480068A2490860A148A5A214
:101BB000002103684C2005F05BF801240AE0B6A27E
:101BC000E1B2002005F054F8B3A2E1B22A2005F0FA
:101BD0004FF8641C052CF2DD96480068042808DCE8
:101BE000AEA294480068401CC1B2002005F040F845
:101BF0005DE090480068042859DD8E480068001FA9
:101C0000C1B2A6A22A2005F033F850E0002005F06A
:101C100085FD01284BD1A24804F0ACF800BF00209C
:101C200005F07CFD0128FAD09D4804F0A3F8814816
:101C30000068012808DB7F4800687E490860084684
:101C40000068401E086003E07A480068794908602F
:101C500078487CA2002103684C2005F009F8012493
:101C60000AE08DA2E1B2002005F002F88AA2E1B2FA
:101C70002A2004F0FDFF641C052CF2DD6D4800688D
:101C8000042808DC85A26B480068401CC1B2002013
:101C900004F0EEFF0BE067480068042807DD6548A4
:101CA0000068001FC1B27DA22A2004F0E1FF0320DA
:101CB00005F034FD00283FF447AF5E48006810B9D6
:101CC000FFF711FE4BE25B480068012849D1002470
:101CD0000025002605F0F4FE054600BF07E00320BE
:101CE00094FBF0F7384608F069FD0646641C42F2A2
:101CF00010708442F3DB06F023F86AA20021084644
:101D000004F0B6FF6BA20121002004F0B1FF2346CE
:101D10006AA20221002004F0ABFF304608F062FC0A
:101D2000CDE9020167A2CDE900010321002004F002
:101D30009FFF05F0C5FE8046294608F047FE07468E
:101D400008F050FCCDE9020160A2CDE900010421B8
:101D5000002004F08DFF57A20521002004F088FF29
:101D6000FDE134480068022851D1F6E005F0E8FFB3
:101D70000021022000F08FFA0446034656A20121FA
:101D8000002004F075FF0021022000F0D8FA04467C
:101D9000034653A201212A2004F06AFF00210220F9
:101DA00000F072FB044603464FA20221002004F01B
:101DB0005FFF0021022000F0BBFB044603464CA25B
:101DC00002212A2004F054FF0121022000F063FACE
:101DD0000446034648A20321002004F049FF0121E4
:101DE000022000F0ACFA0446034645A203212A2053
:101DF00004F03EFF064844A204210368002004F0DA
:101E000037FF044842A2042103682A2084E0A5E0A9
:101E1000D0000020D40000204D6F746F722030205D
:101E20002D3E2052756E2835302C2D3330293B0045
:101E3000CDCCCC3DC000002051585F524F424F5492
:101E4000204900002564000030206674626C0000A8
:101E500035202E2E2E00000031206A73747300008E
:101E600036202E2E2E000000322054734D430000E9
:101E700037202E2E2E000000332054734D650000B5
:101E80003820727463000000342054313030000078
:101E90003920746573740000200000003E000000CB
:101EA0006F12833A31205072696E74665F74657385
:101EB000740A00002A2A2A2A2A2A2A00693D25644F
:101EC00000000000692F333D2566000075736574BE
:101ED000696D653D256600005463683D256400001A
:101EE00054696E3D256400003130433D2564000097
:101EF0003130493D2564000063683D2564000000E1
:101F0000696E3D25640000004843683D256400007B
:101F100048496E3D2564000004F0AAFE00210A2015
:101F200000F052F9044603468EA20521002004F079
:101F30009FFE01210A2000F047F904460346AFF254
:101F4000580205212C2004F093FE88A200210846A7
:101F500004F08EFE894803F00DFF07E7884800680B
:101F600003286FD1002400250126012705F0E8FE93
:101F700084A20021084604F07BFE85A201210020F6
:101F800004F076FE234688A20221002004F070FEB1
:101F90002B4687A20321002004F06AFE7CA20421C4
:101FA000002004F065FE0021084603F0A4FC002197
:101FB000012003F0A0FC75E0002005F0AFFB012834
:101FC00033D1012E05D10A346E2C09D15A240226B0
:101FD00006E00A3C14F1640002D16FF059040126B6
:101FE00061B2002003F087FC05F0AAFE65A2002183
:101FF000084604F03DFE66A20121002004F038FEF0
:10200000234669A20221002004F032FE2B4668A27A
:102010000321002004F02CFE5DA20421002004F026
:1020200027FE4FF07C5003F0A5FE022005F076FB62
:10203000012834D1012F06D10A356E2D0AD15A2537
:10204000022707E02FE00A3D15F16E0002D16FF084
:102050005905012769B2012003F04DFC05F070FE1F
:1020600048A20021084604F003FE49A201210020F5
:1020700004F0FEFD23464CA20221002004F0F8FDEE
:102080002B464BA20321002004F0F2FD40A20421C4
:10209000002004F0EDFD4FF07C5003F06BFE46484D
:1020A00003F068FE88E736480068042811D105F07F
:1020B00047FE42A004F0FAFC0AE06421002003F08D
:1020C0001AFC6421012003F016FC3E4803F052FE86
:1020D000F3E72B480068052812D105F031FEAFF276
:1020E000902004F0E3FC0AE06421002003F003FCEC
:1020F0006421012003F0FFFB324803F03BFEF3E7CD
:102100001F480068062806D105F01AFEAFF2B0207D
:1021100004F0CCFC23E01A480068072806D105F03B
:102120000FFEAFF2B42004F0C1FC18E014480068C0
:10213000082808D105F004FEAFF2BC2004F0B6FC7C
:10214000FFF70EFC0BE00E480068092807D105F0E8
:10215000F7FDAFF2C42004F0A9FCFEF781F900BF3F
:10216000FEE700005431303D25640000546573746F
:10217000204D616943686F6E67000000CDCCCC3D97
:10218000C00000204D65632054657374000000009A
:102190002A2A2A2A2A2A2A2A2A2A2A2A2A2A2A2A9F
:1021A0002A2A2A2A000000006C733D2564000000E2
:1021B00072733D25640000008FC2F53C34202E2E42
:1021C0002E0000000AD7A33C2DE9F04FA5B004462D
:1021D0000D464FF000080D2C03DD002025B0BDE8B2
:1021E000F08F05F06DFC249020E005F069FC239051
:1021F000DDE9230108F0EAFB019008F0F3F9CDE9ED
:102200000201F5A00CC8029808F002F800D20EE016
:10221000B8F11E0F00DB0AE004F11001C8B204F0AF
:10222000E8F805A941F8280008F10108DDE700BF3A
:10223000002618E0771C13E005A850F8260005A931
:1022400051F8271088420ADD05A850F826B050F84A
:10225000270005A941F8260005A840F827B07F1CF3
:102260004745E9DB761CA8F10100B042E2DCDDF86D
:1022700014A0DDF81490B8F1000F02DD05A951F8A3
:1022800020901DB9A9EB0A00049001E0CDF8109050
:1022900004984000A2E72DE9F0439DB004460D46A6
:1022A0004FF00709022C03DD00201DB0BDE8F083CC
:1022B000022C03D100244FF00E0901E04FF0070972
:1022C00000260CE0072101FB04602946FFF77CFF94
:1022D0000FA941F8260001A840F82660761C4E455B
:1022E000F0DB002623E0771C1EE00FA850F8260044
:1022F0000FA951F82710884215DD0FA850F8268045
:1023000050F827000FA941F826000FA840F82780B1
:1023100001A850F8268050F8270001A941F82600AE
:1023200001A840F827807F1C4F45DEDB761CA9F111
:102330000100B042D7DC01A951F82000B5E72DE932
:10234000F0439DB004460D464FF00709022C03DD13
:1023500000201DB0BDE8F083022C03D100244FF013
:102360000E0901E04FF0070900260CE0072101FBF0
:1023700004602946FFF728FF0FA941F8260001A8AD
:1023800040F82660761C4E45F0DB002623E0771CE3
:102390001EE00FA850F826000FA951F82710884218
:1023A00015DD0FA850F8268050F827000FA941F836
:1023B00026000FA840F8278001A850F8268050F882
:1023C000270001A941F8260001A840F827807F1CBA
:1023D0004F45DEDB761CA9F10100B042D7DC0FA926
:1023E00051F82000B5E72DE9F34F9FB004460020D7
:1023F000009000270D2C02DD21B0BDE8F08F0020F9
:1024000000900EE01E2F00DB0EE004F11001C8B2B8
:1024100003F0EFFF01A941F827007F1C0098401C42
:10242000009000980A28EDDB00BF002518E06E1C24
:1024300013E001A850F8250001A951F826108842A0
:102440000ADD01A850F825B050F8260001A941F88E
:10245000250001A840F826B0761CBE42E9DB6D1CC1
:10246000781EA842E3DCDDF80490DDF80480002F3C
:1024700002DD01A951F82080209810B9A8EB090AC3
:1024800000E0C2465046B7E72DE9F0439DB0044650
:102490000D464FF00709022C03DD00201DB0BDE8FA
:1024A000F083022C03D100244FF00E0901E04FF01D
:1024B000070900260CE0072101FB04602946FFF70D
:1024C00092FF0FA941F8260001A840F82660761C6B
:1024D0004E45F0DB002623E0771C1EE00FA850F8E5
:1024E00026000FA951F82710884215DD0FA850F8D3
:1024F000268050F827000FA941F826000FA840F8C1
:10250000278001A850F8268050F8270001A941F83B
:10251000260001A840F827807F1C4F45DEDB761C93
:10252000A9F10100B042D7DC01A951F82000B5E7BC
:102530002DE9F0439DB004460D464FF00709022CEB
:1025400003DD00201DB0BDE8F083022C03D1002480
:102550004FF00E0901E04FF0070900260CE00721BB
:1025600001FB04602946FFF73EFF0FA941F8260052
:1025700001A840F82660761C4E45F0DB002623E0DB
:10258000771C1EE00FA850F826000FA951F827105D
:10259000884215DD0FA850F8268050F827000FA9B3
:1025A00041F826000FA840F8278001A850F826809F
:1025B00050F8270001A941F8260001A840F827801B
:1025C0007F1C4F45DEDB761CA9F10100B042D7DC51
:1025D0000FA951F82000B5E718EC866D8B324B3F00
:1025E00030BF704720BF704740BF7047BFF36F8F49
:1025F0007047BFF34F8F7047BFF35F8F704701DFA6
:102600007047EFF31480704780F31488BFF36F8F27
:102610007047EFF30980704780F309887047EFF344
:102620000880704780F30888704762B6704772B6BA
:102630007047EFF31080704771B6704761B670470E
:10264000EFF31380704780F311887047EFF3128027
:10265000704740BA704700BA70470000034800470F
:1026600003480449044A054B704700003101000843
:10267000A00F0020A0170020A0130020A01300200E
:1026800010B50446FD48201806D0B0F5806F0DD077
:10269000B0F5C05F1ED113E00121480201F074FCC7
:1026A00000214FF4007001F06FFC14E0012188025A
:1026B00001F06AFC00214FF4806001F065FC0AE043
:1026C0000121C80301F060FC00214FF4004001F03B
:1026D0005BFC00E000BF00BF10BD30B5002200234E
:1026E0004268E74C22400D790C6844EA05242243F5
:1026F00042608268E34C2240D1E902542C434D7978
:1027000044EA450422438260C26A22F470020C7CCF
:10271000641E1C43E3B242EA0352C26230BD002190
:102720000160017141718160C160012101747047D4
:1027300021B1826842F00102826003E0826822F0E7
:1027400001028260704721B1826842F48072826027
:1027500003E0826822F480728260704710B5002323
:10276000CBB21AB144681C43446002E044689C4305
:10277000446010BD816841F00801816070470146E6
:1027800000208A6812F0080F01D0012000E000202C
:102790007047816841F00401816070470146002064
:1027A0008A6812F0040F01D0012000E00020704779
:1027B00021B1826842F4A002826003E0826822F4C0
:1027C000A00282607047014600208A6812F4800FE0
:1027D00001D0012000E00020704710B50022002346
:1027E000426822F460424B1E42EA4332426010BD0E
:1027F00021B1426842F40062426003E0426822F480
:10280000006242607047F0B500240025092911DDFF
:10281000C468A1F10A0606EB4607072606FA07F583
:10282000AC43A1F10A0606EB460603FA06F52C4373
:10283000C4600CE0046901EB4107072606FA07F5BE
:10284000AC4301EB410603FA06F52C430461072A69
:102850000FDA446B561E06EB86071F2606FA07F5AD
:10286000AC43561E06EB860601FA06F52C4344637C
:1028700022E00D2A0FDA046BD61F06EB86071F260F
:1028800006FA07F5AC43D61F06EB860601FA06F5F5
:102890002C43046310E0C46AA2F10D0606EB860720
:1028A0001F2606FA07F5AC43A2F10D0606EB8606D5
:1028B00001FA06F52C43C462F0BD21B1826842F4EE
:1028C0008012826003E0826822F480128260704786
:1028D0000146C86C80B270476B480068704721B1F0
:1028E000426842F48062426003E0426822F48062FF
:1028F0004260704721B1426842F48052426003E076
:10290000426822F48052426070470022826822F4BA
:10291000E0420A438260704721B1826842F400427B
:10292000826003E0826822F400428260704721B135
:10293000826842F40212826003E0826822F402128A
:1029400082607047014600208A6812F4001F01D09F
:10295000012000E000207047F0B50024002500268B
:10296000092911DDC468A1F10A0707EB470C072705
:1029700007FA0CF5AC43A1F10A0707EB470703FA86
:1029800007F52C43C4600CE0046901EB410C0727F8
:1029900007FA0CF5AC4301EB410703FA07F52C43AA
:1029A0000461846BC4F30156D71C06F1010CA7EB3C
:1029B0000C0707EB870C1F2707FA0CF5AC43D71C55
:1029C00006F1010CA7EB0C0707EB870701FA07F5E7
:1029D0002C438463F0BD10B500220023826B22F4E7
:1029E00040124B1E42EA0352826310BD42507047B0
:1029F00002465018806A80B2704700224268234B1A
:102A00001A400A4342607047416282627047002266
:102A1000426822F01F020A434260704740B11A49DF
:102A20004439096841F40001194AC2F8081407E062
:102A300015494439096821F40001154AC2F80814FF
:102A400070470246002013680B4201D0012000E0CD
:102A500000207047CA430260704770B502460020EC
:102A6000002300240B125568CEB205EA060415684F
:102A70001D420FD074B101200DE0000000DCFEBF4C
:102A8000FFFEF0FFFDF7F1FF4C240140FFFD3FFF8B
:102A900000200140002070BD00220A12D3430360D1
:102AA0007047000010B5012001F088FA002001F005
:102AB00085FA10BD2349086070472249091F086044
:102AC0007047204984310860704700211E4A1188F0
:102AD0004FF67F42114001431C4AA2F82C1C70475C
:102AE0000021194A11884FF6807211400143174A9C
:102AF000A2F82C1C7047154A0244A2F8001C70472B
:102B0000014612480844B0F8000C70470D489C304C
:102B10000068C0B270470C480830008840F00100DF
:102B20000A49A1F8340C70470648A0300068C0B2CA
:102B3000704705480830008840F002000349A1F8BA
:102B4000340C704704860D422C6C0040006000403D
:102B5000FC49096801F03801FA4A11601146096818
:102B6000014311607047F749096821F00801F54AEF
:102B7000116011460968014311607047F149096805
:102B800021F01001EF4A11601146096801431160FC
:102B90007047ED48EB494860EC4848607047E948A9
:102BA000006940F08000E749086170470420E5496A
:102BB000C96801F00101012901D101200EE0E149BC
:102BC000C96811F0040F01D0022007E0DD49C9688F
:102BD00011F0100F01D0032000E004207047002006
:102BE000FF2000E0401E0028FCD1704770B504466D
:102BF0000425FFF7DBFF054605E0FFF7F0FFFFF7D1
:102C0000D5FF0546641E012D01D1002CF5D104B974
:102C10000525284670BD70B50446042540F6FF70B2
:102C2000FFF7E4FF0546042D19D1C648006940F0BE
:102C30000200C449086108464461006940F0400050
:102C4000086140F6FF70FFF7D1FF0546012D06D061
:102C5000BC48006941F6FD710840BA490861284640
:102C600070BD10B5042440F6FF70FFF7BFFF0446A7
:102C7000042C18D1B348006940F00400B149086140
:102C80000846006940F04000086140F6FF70FFF719
:102C9000ADFF0446012C06D0AA48006941F6FB713D
:102CA0000840A8490861204610BD10B5042440F62C
:102CB000FF70FFF79BFF0446042C3BD1A248A149BB
:102CC0008860A24888600846006940F020000861DA
:102CD0000846006940F04000086140F6FF70FFF7C9
:102CE00085FF0446042C1CD19648006941F6DF712B
:102CF0000840944908610846006940F010000861E6
:102D0000A520934908800F20FFF770FF0446012C8F
:102D100010D08C48006941F6EF710840894908617C
:102D200008E0012C06D08748006941F6EF710840A1
:102D300084490861204610BD70B504460D4604263E
:102D40000F20FFF753FF0646042E25D17D4800696A
:102D500040F001007B49086125800F20FFF746FF06
:102D60000646042E0FD1280C60800F20FFF73EFF8F
:102D70000646012E10D07348006941F6FE710840E6
:102D80007049086108E0012E06D06E48006941F6DE
:102D9000FE7108406B490861304670BD70B504464D
:102DA0000D4604260F20FFF721FF0646042E13D1FF
:102DB0006448006940F001006249086125800F20E5
:102DC000FFF714FF0646012E06D05E48006941F663
:102DD000FE7108405B490861304670BD70B504461D
:102DE0000D4604260F20FFF701FF0646042E17D1DB
:102DF000554854498860554888600846006940F045
:102E00001000086125800F20FFF7F0FE0646012E16
:102E100006D04C48006941F6EF7108404949086105
:102E2000304670BD2DE9F04704464FF6FF752E463B
:102E30002F46A8464FF00409E443E5B2C4F3072641
:102E4000C4F307474FEA14680F20FFF7CFFE81460F
:102E5000B9F1040F41D13C483A4988603B48886049
:102E60000846006940F010000861FF2D06D0384880
:102E7000083005800F20FFF7B9FE8146B9F1040F35
:102E800008D1FF2E06D032480A3006800F20FFF707
:102E9000ADFE8146B9F1040F08D1FF2F06D02C48B2
:102EA0000C3007800F20FFF7A1FE8146B9F1040F17
:102EB00009D1B8F1FF0F06D02648A0F80E880F20E0
:102EC000FFF794FE8146B9F1010F06D01D48006955
:102ED00041F6EF7108401B4908614846BDE8F0879C
:102EE00070B50446042540F6FF70FFF77FFE0546E7
:102EF000042D4CD114481349886014488860084652
:102F0000006940F0200008610846006940F0400078
:102F1000086140F6FF70FFF769FE0546042D2DD1CC
:102F20000848006941F6DF71084006490861084613
:102F3000006940F01000086174B100200449088065
:102F40000DE000000020024023016745AB89EFCD72
:102F500000F8FF1F00F0FF1FA5204549088040F63C
:102F6000FF70FFF743FE0546012D10D04148006970
:102F700041F6EF7108403F49086108E0012D06D095
:102F80003C48006941F6DF7108403A49086128462B
:102F900070BD2DE9F04104460D461646042736481B
:102FA00034498860354888600F20FFF71FFE0746C8
:102FB000042F1AD12F48006940F010002D490861F4
:102FC00044EA0500304340F0F8002949891C088094
:102FD0000F20FFF70BFE0746012F06D0254800699A
:102FE00041F6EF710840234908613846BDE8F08199
:102FF0002048C069800870471E48006A704700205A
:103000001C49C96911F0020F01D0012000E0002025
:10301000704700201749096811F0200F01D00120E6
:1030200000E00020704729B1124A12690243114B97
:103030001A6104E00F4A126982430E4B1A6170470D
:1030400001460020012908D10A4AD26912F0010F75
:1030500001D0012008E0002006E0064AD2680A42BA
:1030600001D0012000E0002070470249C86070478D
:1030700000F8FF1F0020024023016745AB89EFCD18
:1030800010B50446C049601A8C422FD009DCBF48F5
:10309000201810D0B0F5806F16D0B0F5006F4AD16F
:1030A0001BE0B0F5806F2AD0B0F5006F30D0B0F5DE
:1030B000406F40D135E00121042000F065FF002180
:1030C000042000F061FF37E00121082000F05CFFE0
:1030D0000021082000F058FF2EE00121102000F010
:1030E00053FF0021102000F04FFF25E00121202098
:1030F00000F04AFF0021202000F046FF1CE00121E3
:10310000402000F041FF0021402000F03DFF13E08F
:103110000121802000F038FF0021802000F034FFE2
:103120000AE00121080200F02FFF00214FF4807017
:1031300000F02AFF00E000BF00BF10BD10B5012164
:10314000084600F021FF0021012000F01DFF10BD06
:10315000F0B500220023002400250026002791F866
:1031600003C00CF00F0291F803C01CF0100F03D045
:1031700091F802C04CEA0202B1F800C01CF0FF0F47
:1031800030D0066800242AE04FF0010C0CFA04F558
:10319000B1F800C00CEA0503AB421FD1A5004FF007
:1031A0000F0C0CFA05F7BE4302FA05FC4CEA0606C2
:1031B00091F803C0BCF1280F05D14FF0010C0CFAB7
:1031C00004FCC0F814C091F803C0BCF1480F05D14D
:1031D0004FF0010C0CFA04FCC0F810C0641C082C61
:1031E000D2D30660B1F800C0BCF1FF0F34DD4668F1
:1031F00000242EE004F1080C4FF0010E0EFA0CF53D
:10320000B1F800C00CEA0503AB4221D1A5004FF094
:103210000F0C0CFA05F7BE4302FA05FC4CEA060651
:1032200091F803C0BCF1280F05D104F1080C0EFA87
:103230000CFEC0F814E091F803C0BCF1480F07D1B0
:1032400004F1080C4FF0010E0EFA0CFEC0F810E06D
:10325000641C082CCED34660F0BD4FF6FF71018090
:10326000022181700421C1707047024600209368DA
:103270000B4201D0012000E0002070470146886821
:1032800080B2704702460020D3680B4201D0012073
:1032900000E0002070470146C86880B270470161B5
:1032A0007047416170470AB1016100E041617047B8
:1032B000C16070474FF480320A438261816182614C
:1032C0008269826970470022314B1A684FF6807319
:1032D0001A4042EA00120A432D4B1A6070472D49EA
:1032E000C8617047F0B50022002300250024284E55
:1032F0007568C0F3034482B200F44016B6F5401F6F
:1033000008D125F07065224E766826F07066204F51
:103310007E6012E000F48016B6F5801F06D1032609
:1033200006FA04F39D4345F0706506E0460D36014C
:1033300002FA06F6B54345F0706521B1460D360137
:1033400002FA06F63543124E7560F0BD30B5002224
:103350008B071C0F0F2303FA04F20D4B08338C105C
:1033600053F8244094438D1043F825408C1053F8B3
:1033700024308C07240F00FA04F42343044C08344F
:103380008D1044F8253030BD0014014000F8FEBF18
:10339000000001400000204210B50446F848201803
:1033A00003D0B0F5806F14D109E00121480500F089
:1033B000F8FD00214FF4001000F0F3FD0AE00121B8
:1033C000880500F0EEFD00214FF4800000F0E9FDDB
:1033D00000E000BF00BF10BD2DE9F04385B00446FA
:1033E0000D46002600274FF00408DFF89893A688C2
:1033F0004FF6C0700640684600F03EFDDDF80890CC
:10340000E148B9FBF0F087B23E43A68020884FF632
:10341000FE71084020800026DC49E86888420FD809
:10342000E8684000B9FBF0F01FFA80F8B8F1040F2B
:1034300001DA4FF0040846EA0806781C208429E0E7
:103440006888A0F53F41FF3907D1E86800EB4000EC
:10345000B9FBF0F01FFA80F80AE0E86800EBC00161
:1034600001EB0010B9FBF0F01FFA80F848F4804837
:10347000C8F30B00002801D148F0010848F40040CF
:1034800006434FF4967078434FF47A7190FBF1F055
:10349000401C2084A683208840F0010020802688DC
:1034A0004FF6F53006402888E98808430643268011
:1034B0002889A9880843208105B0BDE8F083002150
:1034C00001804BF6FF71418000218180C1804FF463
:1034D0008041018141F28831C160704721B1028889
:1034E00042F00102028004E002884FF6FE731A40A7
:1034F0000280704721B1828842F40062828004E039
:1035000082884FF2FF731A408280704721B182880F
:1035100042F48052828004E082884EF6FF731A40A3
:103520008280704721B1028842F48072028004E0F8
:1035300002884FF6FF631A400280704721B102886B
:1035400042F40072028004E002884FF6FF531A40F2
:103550000280704721B1028842F48062028004E058
:1035600002884FF6FF331A4002807047002282899A
:103570004FF601731A4001F0FE031A43828170472F
:1035800021B1828942F00102828104E082894FF6F2
:10359000FE731A408281704721B1028842F04002D6
:1035A000028004E002884FF6BF731A400280704721
:1035B00010B51AB183880B43838004E08388CC4321
:1035C000A4B22340838010BD018270470146088A5F
:1035D000C0B2704712B141F0010102E04FF6FE7334
:1035E0001940018270470246505A704721B1028843
:1035F00042F40042028003E00288C2F30E0202801D
:103600007047B1F5005F04D1028842F40052028095
:1036100004E002884DF6FF731A400280704721B122
:10362000028842F48052028004E002884EF6FF7362
:103630001A4002807047B1F5006F04D1028842F44D
:103640000062028004E002884FF2FF731A40028099
:10365000704721B1028842F02002028004E0028813
:103660004FF6DF731A40028070470146088B001244
:10367000704721B1028842F01002028004E0028803
:103680004FF6EF731A400280704721B9028842F06A
:103690008002028004E002884FF67F731A400280A5
:1036A0007047B1F5804F05D0828B4BF6FF731A40FF
:1036B000828303E0828B42F480428283704710B59C
:1036C0000346002000210022998A1A8B120441EA45
:1036D000020424F07F4010BD70B503460024002290
:1036E000002500209A8A1D8B2D0442EA050626F04B
:1036F0007F448C4201D1012000E0002070BD70B5F4
:1037000004460020002500220023A28A238B1B04EC
:1037100042EA030521F07F410D4201D0012000E083
:10372000002070BD10B50022002321F07F420B0F56
:10373000012B02D1D44384820DE0022B01D1848A73
:1037400009E0062B05D1848A048844F00104048032
:1037500001E0848A048B10BD70B50446002000256A
:1037600000220023A28A238B1B0442EA030521F0D6
:103770007F410D4201D0012000E0002070BD00001B
:1037800000ACFFBF00127A0040420F00A08601008B
:1037900010B50022002321F07F420B0F012B02D134
:1037A000D44384820DE0022B01D1848A09E0062BE8
:1037B00005D1848A048844F00104048001E0848AED
:1037C000048B10BD0020411EF24A11600A09F14924
:1037D0008039C1F88420411E4FF0E022C2F88012E7
:1037E0000A09ED490A6000BF04E00022EB4941F8F4
:1037F0002020401C0F28F8D3704700204FF0206194
:10380000E74A116000214FF0E022C2F8081DE549A7
:10381000E34A083211600021121D1160121D11606F
:1038200000BF05E00022DE49143141F82020401C91
:103830000328F7D30021DA4A20321160491E4FF0E5
:10384000E022C2F8281DD64A283211604FF0E0224B
:10385000C2F8301D7047D3490143D14A0832116084
:103860007047F0B500210022002300240F25C67800
:10387000002E36D0CA4E0836366806F4E066C6F525
:10388000E066310AC1F10404CD40467806FA04F13D
:1038900086782E40314309010678B607F60EB1400E
:1038A000BE4E0778BF1056F827200678B607F70EE9
:1038B000FF2606FA07F39A4319400A43B74E0778E2
:1038C000BF1046F82720067806F01F070126BE40E5
:1038D00007787F114FF0E02C0CEB8707C7F80061E9
:1038E0000BE0067806F01F060127B740A94E90F8B6
:1038F00000C04FEA6C1C46F82C70F0BD002101702E
:1039000041708170C170704710B5FEF790FE10BD18
:1039100010B5FEF78AFE10BD10B5FEF78DFE10BD86
:1039200010B5FEF78BFE10BD10B504462001FEF762
:103930008AFE10BD10B5FEF789FE10BD98480068DC
:10394000C0F30930704710B501460020002201F095
:103950001F04012303FA04F28E4B80334C1153F8F9
:1039600024301340934201D1012000E0002010BD1B
:103970008D490860704700F01F0101228A40864986
:10398000091F431141F82320704785480068C0F3A0
:103990000900704710B501460020002201F01F0405
:1039A000012303FA04F27C4B7C334C1153F824308E
:1039B0001340934201D1012000E0002010BD78485F
:1039C000001F00687047794A0A400243744B1B1D70
:1039D0001A6070477348001D7149083108607047CC
:1039E0007048401C6E4908310860704741B16C4A0C
:1039F0000C32126802434FF0E023C3F8102D07E0A9
:103A0000674A0C32126882434FF0E023C3F8102D4E
:103A1000704710B5002200F01F04012303FA04F2DE
:103A200041B15F4B20331B6813434FF0E024C4F8CF
:103A3000243D07E05A4B20331B6893434FF0E024AA
:103A4000C4F8243D10BDF0B50023FF240025002656
:103A5000534F08373F6807F4E067C7F5E0673E0A51
:103A6000C6F10403F44001FA03F602EA04073E43F8
:103A7000360100F0C0039B09C0F30124E700BE40FB
:103A80004FEAC40CFF2707FA0CF5454F143757F8D7
:103A900023C02CEA050C47F823C057F823C04CEA92
:103AA000060C47F823C0F0BD10B5014600200022E7
:103AB00000238B0A03F00F03012404FA03F3384CAC
:103AC0002034246804EA03029A4201D1012000E074
:103AD000002010BD002100F01F01314A13680122AF
:103AE0008A4013434FF0E022C2F8043D704710B5FE
:103AF000002100F01F012A4A13684C1E0122A24037
:103B000013434FF0E022C2F8043D10BD10B501464A
:103B1000002000230022C1F38332012404FA02F2C0
:103B20001F4C2034246804EA0203934201D101208F
:103B300000E0002010BD30B5014600200022002327
:103B4000C1F38142C1F301531AB9154C28342068DE
:103B500011E0012A0CD1124C24342468DD0024FA2F
:103B600005F0022B02D000F00F0004E0C0B202E02A
:103B70000B4C2C34206830BD014600200022C1F3DC
:103B800080521AB9064B3033186802E0044B3433C4
:103B90001868704780E100E084E200E000E400E0A3
:103BA00004ED00E00000FA0500EF00E080FFFF1FD9
:103BB00010B50121080700F0F4F900214FF0805002
:103BC00000F0EFF910BD2A490862704728490861E2
:103BD00070470021274A116821F0E001014311607C
:103BE00070472349A0310860704770B504460E46FF
:103BF00000252048056825F00305254305601E487B
:103C0000006840F004004FF0E021C1F8100D012ED3
:103C100002D1FEF7E5FC01E0FEF7E4FC70BD10B553
:103C20001448006840F00400124908600846006823
:103C300040F0020008601048006840F004004FF0B7
:103C4000E021C1F8100DFEF7CBFC10BD01460020AD
:103C5000084A52680A4201D0012000E00020704763
:103C60000449096841EA8001024A11607047000076
:103C700000000E420070004010ED00E0DE480068D9
:103C800040F00100DC49086008464068DB49084014
:103C9000D949486008460068D9490840D6490860B3
:103CA0000846006820F4802008600846406820F438
:103CB000FE004860002088607047CF49096821F401
:103CC0008031CD4A11601146096821F480211160CC
:103CD000B0F5803F03D0B0F5802F0ED106E0C64985
:103CE000096841F48031C44A116007E0C24909689B
:103CF00041F4A021C04A116000E000BF00BF70473E
:103D000010B501460022002300204A11012A02D1E9
:103D1000B94C236806E0022A02D1B74C236A01E0BD
:103D2000B54C636A01F01F02012494401C4201D08B
:103D3000012000E0002010BD10B5002400BF31209C
:103D4000FFF7DEFFAF490870081F0068401C091F1D
:103D50000860081D007828B908460068A0F5807141
:103D6000FF39ECD13120FFF7CBFF08B1012400E08F
:103D70000024204610BD00219F4A116821F0F8015F
:103D800041EAC001116070479F49086070470022F6
:103D9000994B5A6822F47C1240EA01031A43964B6D
:103DA0005A6070479849086670470021924A5168E6
:103DB00021F003010143516070478F48406800F0D3
:103DC0000C00704700218C4A516821F0F00101433A
:103DD000516070470021884A516821F4E061014335
:103DE000516070470021844A516821F4605141EAD2
:103DF000C0015160704729B17F4A527A02437E4B1D
:103E00005A7206E07C4A527AC343DBB21A407A4BBC
:103E10005A7270477C49D831086070470021764A51
:103E2000516821F440410143516070470021724ABA
:103E300020321170704A82F82010012802D0042824
:103E40000AD104E001216C4A2032117005E00521FD
:103E5000694A2032117000E000BF00BF70476B4913
:103E6000086070476449096A0143634A11627047F8
:103E7000664944390860704730B5002100220023AC
:103E800000245D4D6D6805F00C0121B1042905D0B9
:103E9000082923D105E05E4D056022E05C4D0560F8
:103EA0001FE0554D6D6805F47012022505EB924236
:103EB000514D6D6805F480331BB9564D554305606F
:103EC0000BE04D4D6D6815F4003F03D0514D554347
:103ED000056002E04E4D5543056002E04C4D056023
:103EE00000BF00BF444D6D6805F0F00109094A4D5F
:103EF0006C5C0568E54045603F4D6D6805F4E06128
:103F0000090A454D6C5C4568E54085603A4D6D6831
:103F100005F46051C90A404D6C5C4568E540C560D8
:103F2000354D6D6805F44041890B3B4D10356C5C97
:103F3000C568B5FBF4F5056130BD29B12E4A52695B
:103F400002432D4B5A6104E02B4A526982432A4BAB
:103F50005A61704729B1284A92690243264B9A61F7
:103F600004E0254A92698243234B9A61704729B144
:103F7000214AD2690243204BDA6104E01E4AD26929
:103F800082431D4BDA61704729B11B4AD268024354
:103F9000194BDA6004E0184AD2688243164BDA60A3
:103FA000704729B1144A12690243134B1A6104E0A5
:103FB000114A12698243104B1A6170471349403904
:103FC000086070471049C86470470B49C871704752
:103FD0000948406A40F080700749486270470146CE
:103FE0000020054A92680A4201D0012000E000202A
:103FF0007047014988727047001002400000FFF8C6
:10400000FFFFF6FEDC000020000042428004424236
:1040100000127A0000093D0060AC000831B1564A38
:1040200012880243554BA3F8002807E0524A128831
:10403000C3439BB21A40514BA3F8002870474E4827
:10404000001D008840F010004C49A1F8040870479A
:104050004948001D00884FF6EF7108404749A1F814
:1040600004087047002144481C3001884348B0F8D8
:10407000180841EA0040704700B50246FFF7DFFF2D
:10408000100C3D49183108803C49A1F81C28FFF765
:10409000DFFF00BD00B50246FFF7D1FFC2F30340CA
:1040A0003549083108803549A1F80C28FFF7D0FFC1
:1040B00000BD00B50246FFF7C2FF100C2E492031AB
:1040C00008802E49A1F82428FFF7C2FF00BD002078
:1040D0002949103109880907080B2849B1F8141833
:1040E0000843704700BF2448001D008810F0200FCF
:1040F000F9D070472048001D00884FF6F77108403E
:104100001E49A1F8040800BF1B48001D008810F0DC
:10411000080FF9D0704701460020174A121D128877
:104120000A4201D0012000E0002070471249091D19
:104130000988C24392B21140104AA2F8041870478D
:10414000014600200C4A121D12880A40D0B20B4AC8
:10415000B2F800280A4202D008B1012000E0002095
:1041600070470549091D0988C24392B21140034AAC
:10417000A2F804187047000000280040002000400A
:10418000042808D14FF0E021096941F004014FF003
:10419000E022116107E04FF0E021096921F00401FC
:1041A0004FF0E022116170474FF0E0214861704705
:1041B000012808D14FF0E021096941F001014FF0D9
:1041C000E02211610EE0811C08D14FF0E021096965
:1041D00021F001014FF0E022116103E000214FF0D6
:1041E000E0229161704740B14FF0E021096941F050
:1041F00002014FF0E022116107E04FF0E021096970
:1042000021F002014FF0E022116170474FF0E020F1
:104210008069704710B50146002200230020CB10B2
:10422000022B03D14FF0E024226902E04FF0E0249A
:10423000E26901248C40144201D0012000E00020FA
:1042400010BD000010B50446F849601A8C4245D0F4
:104250000CDCB4F1804F1DD0F548201823D0B0F508
:10426000806F29D0B0F5006F54D12EE0B0F5806F8B
:104270003DD0B0F58E3F03D0B0F5923F4AD13FE03C
:104280000121C802FFF780FE00214FF40060FFF714
:104290007BFE40E001210846FFF783FE002101205C
:1042A000FFF77FFE37E001210220FFF77AFE0021B1
:1042B0000220FFF776FE2EE001210420FFF771FEB9
:1042C00000210420FFF76DFE25E001210820FFF703
:1042D00068FE00210820FFF764FE1CE00121102089
:1042E000FFF75FFE00211020FFF75BFE13E00121C6
:1042F0002020FFF756FE00212020FFF752FE0AE0A3
:1043000001214803FFF740FE00214FF40050FFF762
:104310003BFE00E000BF00BF10BD028802F08F022C
:104320000280CA884B881A4303881A4302808A880D
:1043300082850A88028501228282BE4A904202D08A
:10434000BD4A904201D10A7A0286704770B50022B8
:1043500000230024058C4FF6FE7635400584038C3F
:104360008488028B4FF68F752A400D882A43751E6C
:104370002B400D892B434D882B43CD888586AD4D31
:10438000A84202D0AC4DA84213D14FF6F7752B408E
:104390004D892B434FF6FB752B408D882B4347F6F9
:1043A000FF652C4047F6FF552C408D892C43CD8965
:1043B0002C4384800283038470BD70B500220023E7
:1043C0000024058C4FF6EF7635400584038C8488F5
:1043D000028B48F6FF752A400D882D0642EA1542E9
:1043E0004FF6DF752B400D892D0543EA15434D88A7
:1043F0002D0543EA1543CD8805878E4DA84202D08E
:104400008D4DA8421BD14FF67F752B404D892D0550
:1044100043EA15434FF6BF752B408D882D0543EABF
:10442000154347F6FF352C4047F2FF752C408D8928
:10443000AD0444EA1544CD89AD0444EA15448480B2
:104440000283038470BD70B5002200230024058C14
:104450004FF6FF6635400584038C8488828B4FF6C7
:104460008F752A400D882A434FF6FF552B400D8942
:104470002D0643EA15434D882D0643EA1543CD88A2
:1044800085876C4DA84202D06B4DA8421BD14FF2DC
:10449000FF752B404D892D0643EA15434FF6FF3536
:1044A0002B408D882D0643EA154346F6FF752C40B8
:1044B00045F6FF752C408D892D0544EA1544CD89BC
:1044C0002D0544EA154484808283038470BD70B551
:1044D000002200230024058C4EF6FF76354005842B
:1044E000038C8488828B48F6FF752A400D882D0640
:1044F00042EA15424DF6FF752B400D892D0743EA20
:1045000015434D882D0743EA1543CD88A0F8405048
:10451000484DA84202D0484DA84205D1C4F30D042D
:104520008D89AD0544EA154484808283038470BD7F
:10453000828B4FF2FF331A408283828B0B0642EA52
:10454000134282837047F0B5002400250026078CB3
:104550004EF6FF7C07EA0C070784848B058C0F0757
:104560003E0C40F6FF473C4017063F0C4FEA037CE9
:1045700047EA1C473C434DF6FF773D4046F48057E1
:104580003D4384830584F0BD828B4FF6F3731A405C
:104590008283828B0A4382837047F0B50024002512
:1045A0000026078C4FF6FF6C07EA0C070784848B04
:1045B000058C0F063E0C4FF60C773C401F0542EA77
:1045C00017473C434FF6FF573D4046F480773D4345
:1045D00084830584F0BD028B4FF2FF331A400283BF
:1045E000028B0B0642EA134202837047F0B50024A7
:1045F00000250026078C4FF6EF7C07EA0C0707849E
:10460000048B058C0F053E0C40F6FF473C401F070E
:1046100044EA1744170644EA17444FF6DF773D4053
:1046200046F010073D4304830584F0BD00100040B0
:1046300000FCFFBF002C014000340140028B4FF60C
:10464000F3731A400283028B0A4302837047F0B56A
:1046500000240025068C4FF6FE773E400684048B2E
:10466000058C4FF60C7634401E0542EA164634435C
:104670007E1E354041F00106354304830584F0BDBC
:1046800070B504460D46288850B92B89AA886988D8
:104690002046FFF7DCFFE9882046FFF7CFFF25E043
:1046A000288804280AD12B89AA8869882046FFF720
:1046B0009DFFE9882046FFF78EFF17E0288808282D
:1046C0000AD12B89AA8869882046FFF766FFE98806
:1046D0002046FFF759FF09E02B89AA886988204600
:1046E000FFF731FFE9882046FFF722FF70BD2DE973
:1046F000F04104460D4600260127688808B90226C5
:1047000000E00026A888012801D1022700E0012747
:104710002888A0B92B89AA8869882046FFF797FFC7
:10472000E9882046FFF78AFF2B893A463146204622
:10473000FFF75CFFE9882046FFF74DFF13E02B8968
:10474000AA8869882046FFF751FFE9882046FFF7CD
:1047500042FF2B893A4631462046FFF778FFE98829
:104760002046FFF76BFFBDE8F0810A884B881A43AB
:104770008B881A43CB881A430B891A434B891A43F7
:104780008B891A43A0F8442070474FF6FF7181804F
:1047900000210180C18041800172704700210180A9
:1047A00041808180C180018141818181C1817047C7
:1047B000002101804180012181800021C18001818F
:1047C00070470021018041808180C1800181418149
:1047D0008181704721B1028842F00102028004E029
:1047E000028840F2FE331A400280704731B1B0F8BF
:1047F000442042F40042A0F8442005E0B0F84420F0
:10480000C2F30E02A0F84420704710B51AB1838994
:104810000B43838104E08389CC43A4B2234083818A
:1048200010BD8182704741EA0203A0F8483070470A
:1048300010B51AB183890B43838104E08389CC438B
:10484000A4B22340838110BD01894FF6F872114054
:1048500001817047002202894FF68F731A400A4384
:104860000281704730B504460D4629462046FFF7C1
:10487000F1FF208940F00700208130BD2DE9F04193
:1048800004460D4616461F46602D06D13B460122C2
:1048900031462046FFF7AAFE05E03B46012231469D
:1048A0002046FFF7D4FE29462046FFF7D3FF208994
:1048B00040F007002081BDE8F08170B50024048934
:1048C000E4B241EA02051E0645EA16452C4304817E
:1048D00070BD2DE9F04104460D4616469846002766
:1048E0004346324629462046FFF7E7FF27894FF621
:1048F000F870074047F007074FF68F70074047F002
:1049000070072781BDE8F081F0B504460D461646D4
:104910001F463B46324629462046FFF7CEFF2089F8
:1049200040F480402081F0BD0185828270470022E2
:10493000028840F28F331A400A4302807047F0B574
:104940000024002500260489058B068C4FF6F87795
:104950003C400C434FF6FC473D4040F201173D43BD
:104960004FF6DD773E401F0542EA17473E4304817C
:1049700005830684F0BD0022028B4FF68F731A4028
:104980000A43028370470022028B48F6FF731A40E5
:104990000B0642EA1342028370470022828B4FF6D5
:1049A0008F731A400A43828370470022828B48F635
:1049B000FF731A400B0642EA13428283704721B10B
:1049C000028842F08002028004E0028840F27F33D5
:1049D0001A400280704721B1828842F0040282802E
:1049E00004E082884FF6FB731A408280704721B141
:1049F000828842F00802828004E082884FF6F773D2
:104A00001A408280704721B1828842F00102828080
:104A100004E082884FF6FE731A40828070470022BD
:104A2000028B4FF6F7731A400A4302837047002245
:104A3000028B4FF2FF731A400B0642EA13420283C5
:104A400070470022828B4FF6F7731A400A43828325
:104A500070470022828B4FF2FF731A400B0642EA26
:104A60001342828370470022028B4FF6FB731A4079
:104A70000A43028370470022028B4FF6FF331A402D
:104A80000B0642EA1342028370470022828B4FF6E4
:104A9000FB731A400A43828370470022828B4FF6D1
:104AA000FF331A400B0642EA13428283704700220A
:104AB000028B4FF67F731A400A430283704700222D
:104AC000028BC2F30E020B0642EA134202837047C6
:104AD0000022828B4FF67F731A400A43828370470D
:104AE0000022828BC2F30E020B0642EA134282833B
:104AF00070470022028C4FF6FD731A400A4302846D
:104B000070470022028C4FF6F7731A400A43028462
:104B100070470022028C4FF6DF731A400B0542EA01
:104B20001342028470470022028C4FF67F731A40B2
:104B30000B0542EA1342028470470022028C4FF6B2
:104B4000FF531A400B0642EA1342028470470022C8
:104B5000028C4FF2FF731A400B0642EA13420284A2
:104B600070470022028C4DF6FF731A400B0742EA91
:104B700013420284704710B5038C01248C40E44337
:104B8000A4B223400384038C02FA01F4A4B22343A9
:104B9000038410BD10B5038C04248C40E443A4B2FC
:104BA00023400384038C02FA01F4A4B22343038458
:104BB00010BD30B5048C01238B40DB439BB21C40FD
:104BC000048409B1082912D100F1180303EB610331
:104BD0001C684FF68F731C4000F1180303EB610350
:104BE0001C6000F1180303EB61031A6019E00B1F4E
:104BF0009CB200F1180303EB64031C6848F6FF73D2
:104C00001C400B1F9DB200F1180303EB65031C60F1
:104C100013061C0C0B1F9DB200F1180303EB650378
:104C20001C6030BD21B1028842F00202028004E023
:104C3000028840F2FD331A400280704721B1028899
:104C400042F00402028004E0028840F2FB331A4082
:104C50000280704721B1828842F08002828004E0A5
:104C600082884FF67F731A4082807047028840F234
:104C7000F7331A40028002880A4302807047828814
:104C80004FF68F731A40828082880A438280704771
:104C900002894FF6F8731A40028102890A430281A1
:104CA000704702894FF67F731A40028102890A43D6
:104CB0000281704781847047818570478186704783
:104CC0000187704781877047A0F8401070470288BD
:104CD000D2B2028002880A43028070470146888E61
:104CE00070470146088F70470146888F704701461C
:104CF000B1F8400070470146888C70470146088D26
:104D0000704702460020138A0B4201D0012000E0C8
:104D100000207047CA430282704730B50246002027
:104D200000230024158A05EA0103958905EA010498
:104D300013B10CB1012000E0002030BDCA43028253
:104D40007047000010B50446D749601A8C422BD03A
:104D500006DCD648201813D0B0F5806F38D119E0A2
:104D6000B0F5806F2AD0B0F56C4F31D101218803A6
:104D7000FFF70AF900214FF48040FFF705F928E01A
:104D800001214804FFF70DF900214FF40030FFF72F
:104D900008F91EE001218804FFF703F900214FF410
:104DA0008020FFF7FEF814E00121C804FFF7F9F8AE
:104DB00000214FF40020FFF7F4F80AE00121080574
:104DC000FFF7EFF800214FF48010FFF7EAF800E05A
:104DD00000BF00BF10BD2DE9F04786B004460D4668
:104DE0000026002700BF00BFB246A246268A4CF626
:104DF000FF700640E88806432682A6894EF6F31027
:104E00000640A88829890843698908430643A68182
:104E1000A68A4FF6FF400640A8890643A68201A84D
:104E2000FFF72AF85446A248824501D1049F00E0CA
:104E3000039F07EBC70000EB071029688900B0FB50
:104E4000F1F86420B8FBF0F006013009642101FBA1
:104E50001089322101EB09106421B0FBF1F000F060
:104E60000F000643268106B0BDE8F0874FF41651C7
:104E7000016000218180C18001810C2141810021DC
:104E80008181704710B50022028A4FF2FF031A4059
:104E90000B884C8823438C882343CC8823431A43B4
:104EA000028210BD0021018041808180C180704755
:104EB00021B1828942F40052828104E082894DF658
:104EC000FF731A4082817047F0B500240025002648
:104ED00000230346C1F3421401F01F05012707FA1E
:104EE00005F6012C01D10C3304E0022C01D1103362
:104EF00000E014331AB11F6837431F6002E01F68D7
:104F0000B7431F60F0BD10B51AB1838A0B4383828B
:104F100004E0838ACC43A4B22340838210BD028A7A
:104F20004FF6F0731A400282028A0A4302827047E7
:104F300082894FF2FF731A40828182890A438281FB
:104F4000704721B1828942F00202828104E08289A5
:104F50004FF6FD731A4082817047028A4FF6DF7365
:104F60001A400282028A0A430282704721B1028AF1
:104F700042F48042028204E0028A4BF6FF731A4038
:104F800002827047C1F30802828070470146888818
:104F9000C0F308007047818941F0010181817047A9
:104FA000028BD2B20283028B42EA01220283704753
:104FB000028B02F47F420283028B0A430283704712
:104FC00021B1828A42F02002828204E0828A4FF676
:104FD000DF731A408282704721B1828A42F0100248
:104FE000828204E0828A4FF6EF731A408282704711
:104FF00021B1828A42F00802828204E0828A4FF65E
:10500000F7731A4082827047828A4FF6FB731A4008
:105010008282828A0A438282704721B1828A42F068
:105020000202828204E0828A4FF6FD731A40828275
:1050300070470246002013880B4201D0012000E097
:1050400000207047CA430280704770B502460023B3
:10505000002400250020C1F3421501F01F040126A1
:1050600006FA04F4012D02D19689344006E0022D9F
:1050700002D1168A344001E0968A34400B12012690
:1050800006FA03F31688334014B10BB1012000E097
:10509000002070BD10B5002200230A1201249440A4
:1050A000A3B2DC43048010BD004C004000BCFFBF35
:1050B0000038014070B50446A4F12000C4B20025B8
:1050C0000AE004EB4401A14A02EB4101485D0121E1
:1050D00002F0E7FD681CC5B2062DF2DB70BD10B50D
:1050E000044603E02078FFF7E5FF641C20780028E1
:1050F000F8D110BD70B504460E461546314620461F
:1051000002F010FE03E02878FFF7D4FF6D1C28782A
:105110000028F8D170BD10B5024600248C4B08E081
:10512000187E18B9587E08B9002010BD601CC4B2A2
:105130001A33187E9042F3D1587E8842F0D120462F
:10514000F3E72DE9F04704460D4616463BE096F896
:105150000090761C96F800A0761C51464846FFF752
:10516000DAFF00EB800101EBC000794901EB400759
:105170002946204602F0D6FD4FF0000808E017F857
:105180000800012102F08DFD08F1010000F0FF0888
:10519000B8F10C0FF3DB681CC1B2204602F0C2FD6F
:1051A0004FF0000809E008F10C01785C012102F0E1
:1051B00078FD08F1010000F0FF08B8F10C0FF2DBF8
:1051C00004F10D00C4B230780028C0D1BDE8F087EA
:1051D000F0B5542800DDF0BD302900DDFBE70D46B9
:1051E000CF1701EB5777FC10CF1701EB5777FF1064
:1051F000A1EBC707FEB2C4EBC40505EB4505554F4F
:1052000007EB85052B5C1AB90125B540AB430CE0D3
:10521000012A04D10125B5401D43EBB205E0022A65
:1052200003D10125B5405D40EBB2C4EBC40505EBED
:105230004505484F07EB85052B54CCE72DE9F84F82
:1052400004460D4616461F46B44202D14FF00008F0
:1052500010E0BD4202D14FF001080BE0B44209D08A
:10526000BD4207D04FF00208781B311B90FBF1F0D4
:1052700000F0FF0BB8F1000F06D0B8F1010F11D00C
:10528000B8F1020F42D11BE0AA4608E001225146C4
:105290002046FFF79DFF0AF1010000F0FF0ABA4522
:1052A000F4DB33E0A14608E0012229464846FFF737
:1052B0008FFF09F1010000F0FF09B145F4DB25E0A3
:1052C000A14620E0BBF1000F10D1781B64214843B8
:1052D000311B90FBF1F0C0B20090009800FB09F088
:1052E000642190FBF1F000F0FF0A03E00BFB09F0F2
:1052F00000F0FF0A012251464846FFF769FF09F115
:10530000010000F0FF09B145DCDB00BF00BFBDE8D4
:10531000F88F70B50021084602F004FD002412E069
:1053200000250CE0C4EBC40101EB4101094A02EB8A
:105330008101485D012102F0B4FC681CC5B2542D06
:10534000F0DB601CC4B2062CEADB70BDDD0000207F
:1053500074AC000878030020F94800687047002109
:10536000014600E0491E0029FCD1704705E04621B6
:1053700000BF0A00A1F10101FBD10200A0F1010070
:10538000F5D1704700B585B04FF48060ADF80000EE
:1053900004208DF803006946EA48FDF7D9FE4FF472
:1053A0000060ADF800006946E748FDF7D1FE4FF414
:1053B0000070ADF8000003208DF8020018208DF871
:1053C00003006946DF48FDF7C3FE4FF48060ADF887
:1053D00000006946DC48FDF7BBFE4FF4E130019068
:1053E0000020ADF80800ADF80A00ADF80C00ADF8EB
:1053F00010000C20ADF80E0001A9D448FFF7EBFC1B
:1054000001A9D348FFF7E7FC0021D048FFF750FD82
:105410000021CF48FFF74CFD00214FF48040FEF7FC
:1054200099FD00210120FEF795FD00214FF4002099
:10543000FEF79DFD05B000BD10B5FEF71FFC4FF453
:105440008030FEF73AFCFEF777FC0446012C28D1A9
:105450001020FDF793FB0220FDF77AFB0020FEF7FA
:10546000B1FC0020FEF7BEFC4FF4A060FEF7B2FCDA
:10547000A003FEF7D3FC4FF4E0112004FEF787FCF5
:105480000120FEF78FFC00BF3920FEF739FC002811
:10549000FAD00220FEF789FC00BFFEF78EFC082838
:1054A000FBD101210846FEF762FD01210220FEF733
:1054B0005EFD01210420FEF74DFD01210820FEF7CD
:1054C00049FD01211020FEF745FD01212020FEF7B6
:1054D00041FD01214020FEF73DFD01210846FEF778
:1054E00039FD10BD08B501219A48FDF7FBFE4FF4C8
:1054F0008050ADF8000010208DF8030003208DF8D7
:10550000020069469448FDF723FE01210220FEF7C0
:105510002EFD01211120FEF71DFD01218F48FDF711
:10552000E1FE4FF47070ADF8000018208DF8030014
:1055300003208DF8020069468348FDF709FE40F616
:10554000C800ADF8000010208DF8030069468448BB
:10555000FDF7FEFDFF20ADF8000028208DF80300C8
:1055600069467848FDF7F4FD0320ADF800002820D7
:105570008DF8030069467848FDF7EAFD3F20ADF855
:10558000000028208DF8030069466F48FDF7E0FD14
:105590004FF46040ADF8000048208DF803006946E4
:1055A0006948FDF7D5FD7C20ADF8000048208DF856
:1055B000030069466B48FDF7CBFD4FF47E70ADF8F4
:1055C000000048208DF8030069466348FDF7C0FDE0
:1055D0004FF40050ADF8000048208DF803006946F4
:1055E0005F48FDF7B5FD4FF48050ADF8000048204E
:1055F0008DF8030069465A48FDF7AAFD4FF4604054
:10560000ADF8000048208DF8030069465248FDF7C8
:105610009FFD4FF40140ADF8000010208DF803000D
:1056200069464848FDF794FD1020ADF800008DF85C
:10563000030069464A48FDF78BFD4FF4E060ADF882
:10564000000010208DF8030069464548FDF780FDF5
:1056500008BD08B500214FF00060FEF7B4F91C202A
:105660008DF8000000208DF8010001208DF8020067
:105670008DF803006846FEF7F4F834208DF800003A
:1056800001208DF801008DF802008DF803006846B6
:10569000FEF7E7F84FF4E060FEF7DDF803208DF841
:1056A000000001208DF8010000208DF8020001208B
:1056B0008DF803006846FEF7D4F808BD10B5042045
:1056C000FEF75EFD2848FEF76FFD0120FEF78BFD1B
:1056D00000202649087048708870C8700120FEF7C5
:1056E00067FD10BD2249086000BF214909680029F3
:1056F000FBD170471E48006820B11D480068401E5D
:105700001B490860704770B504460D46B4F5FA7F32
:1057100002DA4FF4FA7404E041F28830844200DD8A
:105720000446144890FBF4F0134948800846418829
:105730001248FFF7C1FA10480480057170BD0000DF
:105740000C03002000080140001001400038014017
:10575000004C004000023000000C0140000C1A0018
:1057600000140140001801404019010054030020BA
:105770000803002080EE3600700500200004004081
:1057800010B5642800DD6420642900DD6421642AEA
:1057900000DD6422642B00DD6423FF4CA071617284
:1057A0002273E37310BD38B50446002C2DDD032CA5
:1057B0002BDA012C02D0022C26D112E00121F7486D
:1057C000FDF790FD4FF47070ADF8000018208DF8D3
:1057D000030003208DF802006946F148FDF7B8FC8C
:1057E00012E00021ED48FDF77DFD4FF47070ADF83B
:1057F000000010208DF8030003208DF80200694698
:10580000E748FDF7A5FC00BF00BF38BD10B502207A
:10581000FFF7C9FF00224021E148FDF744FD0022C7
:105820008021DF48FDF73FFD00224FF48071DC4806
:10583000FDF739FD00224FF40071D948FDF733FD23
:1058400010BD7FB5044604F00F06042E3BDA20207D
:10585000ADF800000120ADF802000020ADF8060010
:105860000420ADF804000220ADF808000020ADF8D7
:105870000A004FF48070ADF80C000020ADF80E0067
:1058800036B1012E0AD0022E0ED0032E1AD112E00C
:105890006946C448FEF75AFD402513E06946C148F1
:1058A000FEF78BFD80250DE06946BE48FEF7CBFD77
:1058B0004FF4807506E06946BA48FEF708FE4FF4DB
:1058C000007500BF00BF01222946B548FDF7EBFC7B
:1058D0007FBD10B50020FFF7B4FF0120FFF7B1FF37
:1058E0000220FFF7AEFF0320FFF7ABFF10BD10B59E
:1058F000FFF7EFFF10BD2DE9F04786B004460D46D7
:1059000004F00F08A946B8F1040F79DA6020ADF869
:1059100008000120ADF80A000020ADF80E000420B8
:10592000ADF80C000220ADF810000020ADF8120018
:105930004FF48070ADF814000020ADF8160001207F
:10594000FFF731FF01219748FEF744FF01219548F9
:10595000FEF74CFF012090494874B8F1000F09D0C0
:10596000B8F1010F12D0B8F1020F1CD0B8F1030F3B
:1059700033D124E003228849491D01A802F0A2FE88
:10598000082702A98748FEF7E1FC26E08248018942
:10599000ADF804104089ADF80600402702A98148FF
:1059A000FEF70BFD19E003227B490B3101A802F041
:1059B00089FE802702A97B48FEF745FD0DE0764869
:1059C000C189ADF80410008AADF806004FF40067F5
:1059D00002A97448FEF77BFD00BF00BFB9F1640F58
:1059E00002DD4FF0640904E019F1640F01DA6FF091
:1059F00063098DF80490B9F1000F02DB484602E01C
:105A00006FE0C9F10000C6B29DF805007043642143
:105A100090FBF1F0C6B2604890F90400B04201DAA0
:105A20005D480679B9F1000F03D14046FFF709FF41
:105A300041E0B8F1000F09D0B8F1010F13D0B8F16F
:105A4000020F1DD0B8F1030F34D126E05248408830
:105A50007043642190FBF1F01FFA80FA51465148DF
:105A6000FFF72CF926E04C4840887043642190FBF6
:105A7000F1F01FFA80FA51464A48FFF721F919E080
:105A8000454840887043642190FBF1F01FFA80FA8A
:105A900051464448FFF716F90CE03F4840887043F0
:105AA000642190FBF1F01FFA80FA51463D48FFF760
:105AB0000BF900BF00BF9DF90400002808DB70B29D
:105AC0008DF80600012239463748FDF7ECFB08E067
:105AD000704240B28DF80600002239463248FDF788
