:020000040800F2
:10000000801700201D20000831020008330200087C
:10001000370200083B0200083F0200080000000011
:100020000000000000000000000000004502000881
:1000300043020008000000004702000849020008CF
:100040005B0200085D0200085F0200086102000810
:100050009302000895020008970200089902000820
:100060009B0200089D0200089F020008A1020008F0
:10007000A3020008A5020008A7020008A9020008C0
:10008000AB020008AD020008AF020008B102000890
:10009000B3020008B5020008B7020008B902000860
:1000A000BB020008BD020008BF020008C102000830
:1000B000C3020008DD020008DF020008B3030008E5
:1000C000B5030008B7030008B9030008BB03000824
:1000D000BD030008BF030008C1030008C3030008F4
:1000E000C5030008C7030008C9030008CB030008C4
:1000F000CD030008CF030008D1030008D303000894
:10010000D5030008D7030008D9030008DB03000863
:10011000DD0300080F0400081104000813040008A0
:100120001504000817040008190400081B0400083F
:1001300000F002F800F06FF80AA090E8000C82448A
:100140008344AAF10107DA4501D100F064F8AFF267
:10015000090EBAE80F0013F0010F18BFFB1A43F0A5
:1001600001031847F8B0000018B100000A444FF02E
:10017000000C10F8013B13F0070408BF10F8014B06
:100180001D1108BF10F8015B641E05D010F8016B4B
:10019000641E01F8016BF9D113F0080F1EBF10F8AF
:1001A000014BAD1C0C1B09D16D1E58BF01F801CBD2
:1001B000FAD505E014F8016B01F8016B6D1EF9D555
:1001C0009142D6D37047000000230024002500266A
:1001D000103A28BF78C1FBD8520728BF30C148BFAA
:1001E0000B60704766290AF0F481642907F0E48601
:1001F000782907F01987002070471FB5AFF30080FA
:1002000008F084FA04000020002108F0BBFFE06041
:100210001FBD10B510BD08F06FFB1146FFF7EDFFD5
:1002200007F011FB08F08DFBFFF7F3FF08F0D0FBA0
:10023000704700BFFEE700BFFEE700BFFEE700BF5C
:10024000FEE770477047704710B504F033FF7348FE
:100250000068401C7149086010BD704770477047C6
:1002600010B5012003F04CFC90B1012003F059FCC3
:100270006B4800686B49086003F014FC03F0D2FB84
:100280006949884204D3002003F0D6FB03F00AFC3E
:1002900010BD704770477047704770477047704790
:1002A0007047704770477047704770477047704796
:1002B0007047704770477047704770477047704786
:1002C000704710B50221480704F007FA28B102214F
:1002D000480704F013FA06F058FD10BD704710B53A
:1002E0000221524804F0F9F900B302214F4804F00A
:1002F00005FA4F480068401C4D4908604D48008889
:10030000B0F57A7F03DB40F2E9304A49088047487C
:1003100004F0C4F94849088008460088474A128812
:10032000104481B2414804F0A9F941E004213F485A
:1003300004F0D3F990B104213C4804F0DFF93B48C4
:1003400004F0AFF93C490880084600883C4A12880E
:10035000104481B2354804F093F929E0082133486C
:1003600004F0BBF990B10821304804F0C7F92F48D8
:1003700004F09AF93049088008460088314A12880A
:10038000104481B2294804F07DF911E0102127487A
:1003900004F0B4F9254804F08AF927490880084692
:1003A0000088294A1288104481B2204804F06CF970
:1003B00010BD70477047704770477047704770476F
:1003C0007047704770477047704770477047704775
:1003D00070477047704770477047704710B540F2DC
:1003E00025511A4804F011FB80B119480068401CDF
:1003F00017490860012017490870144804F0A6FA4C
:10040000C4B21548047060001449088010BD7047DC
:10041000704770477047704770477047E802002088
:1004200044030020500300207F51010000080040D9
:100430001803002014030020000000200C030020FB
:100440000E0300201003002012030020004C004087
:100450001C0300203503002034030020F00200209C
:100460002DE9F04F97B000BF07F006F850E007F015
:1004700047F906F0D4FF04460346FFA201210020FD
:1004800006F0D6F806F0BCFF04460346FDA20221A2
:10049000002006F0CDF8002005F08BFC0446034652
:1004A000FBA20321002006F0C3F8012005F081FC27
:1004B00004460346F8A203213C2006F0B9F80220C6
:1004C00005F077FC04460346F4A20421002006F060
:1004D000AFF8032005F06DFC04460346EEA20421AC
:1004E0003C2006F0A5F806F011FC04460346EDA2F8
:1004F0000521002006F09CF8EC4805F01BF90020CF
:1005000006F0ECFD012803D1E94805F013F900E0FD
:10051000ADE700BF06F0B0FF07F0F2F8E5A005F088
:10052000A5FF06F0ADFF16905EE0E14805F002F988
:100530000020E34908604EE00020E24908603BE00B
:10054000E148006878B9E1480068401CDF4908606C
:10055000DF4805F0EFF8DD480068642815D1012078
:10056000D949086011E0D848006801280DD1D74862
:100570000068401ED5490860D54805F0DBF8D3482F
:100580000068643001D1D0490860D0480368CC4885
:100590000093D0A203210368002006F049F8CB485D
:1005A000006841B2C6480068C0B204F084FEC54885
:1005B0000068401CC3490860C2480068B0F5C87FA5
:1005C00004DA002006F08AFD0028B9D0BC48006893
:1005D000401CBB490860BA480068042804DA0020BF
:1005E00006F07CFD0028A7D0002006F077FD00284B
:1005F0009BD004F05CFE00BF002006F06FFD0128D8
:10060000FAD0B84805F096F806F036FFA3E007F0F8
:1006100077F8B5A200211E2006F00AF8102005F098
:10062000C8FB044603469CA20121002006F000F806
:10063000112005F0BEFB0446034697A201211620B7
:1006400005F0F6FF122005F0B4FB0446034692A223
:1006500001212C2005F0ECFF132005F0AAFB044635
:1006600003468DA20121422005F0E2FF142005F08F
:10067000A0FB0446034688A20221002005F0D8FF13
:10068000152005F096FB0446034683A2022116209E
:1006900005F0CEFF162005F08CFB044603467EA233
:1006A00002212C2005F0C4FF91A203211E2005F099
:1006B000BFFF172005F07DFB0446034676A2042108
:1006C000002005F0B5FF182005F073FB0446034633
:1006D00071A20421162005F0ABFF192005F069FB7B
:1006E000044603466CA204212C2005F0A1FF1A2029
:1006F00005F05FFB0446034667A20421422005F093
:1007000097FF1B2005F055FB0446034662A2052116
:10071000002005F08DFF1C2005F04BFB044603462E
:100720005DA20521162005F083FF1D2005F041FB89
:100730000446034658A205212C2005F079FF5C48A9
:1007400004F0F8FF002006F0C9FC012803D1584846
:1007500004F0F0FF00E05AE700BF06F08DFE22E152
:1007600006F0CEFF64A200211E2005F061FF1F20CD
:1007700005F01FFB0446034647A200213C2005F07C
:1007800057FF002005F015FB0446034642A2012155
:10079000002005F04DFF012005F00BFB0446034649
:1007A0003DA20121162005F043FF022005F001FBC8
:1007B0000446034638A201212C2005F039FF03200E
:1007C00005F0F7FA0446034633A20121422005F062
:1007D0002FFF042005F0EDFA044603462EA2022165
:1007E000002005F025FF052005F0E3FA0446034646
:1007F00029A20221162005F01BFF062005F0D9FAD8
:100800000446034624A202212C2005F011FF0720F4
:1008100005F0CFFA044603461FA20221422005F04C
:1008200007FF082005F0C5FA044603461AA2032173
:10083000002005F0FDFE092005F0BBFA0446034642
:1008400015A20321162005F0F3FE0A2005F0B1FAE7
:100850000446034610A203212C2005F0E9FE0B20DC
:1008600005F0A7FA044603460BA20321422005F037
:10087000DFFE0C2042E000004559455F43483D251E
:10088000640000004559455F494E3D256400000065
:10089000414930313D25640025640000414932332F
:1008A0003D256400434F4D503D256400CDCCCC3DEB
:1008B000CDCC4C3E2020202020204D4F544F5200C4
:1008C0001400002010000020080000200C00002070
:1008D0000AD7233C4D4F543A2564202073703A25A3
:1008E00064200000CDCC4C3D45594530000000004F
:1008F00045594531000000004149000005F059FA12
:1009000004460346AFF270020421002005F090FE79
:100910000D2005F04EFA04460346AFF2840204218E
:10092000162005F085FE0E2005F043FA0446034626
:10093000AFF29C0204212C2005F07AFE0F2005F076
:1009400038FA04460346AFF2B0020421422005F013
:100950006FFE1E2005F02DFA04460346AFF2C802D2
:100960000521002005F064FE05F046FC044609F070
:1009700067FBCDE91401D9A2CDE9000105211E20B4
:1009800005F056FED7A205214E2005F051FED748AE
:1009900004F0D0FE002006F0A1FB012803D1D448CA
:1009A00004F0C8FE00E0DBE600BF06F065FD62E093
:1009B00006F0A6FE0F2004F0D1FE04460E2004F03F
:1009C000CDFE05460D2004F0C9FE06460C2004F0BD
:1009D000C5FE07460B2004F0C1FE80460A2004F045
:1009E000BDFE8146092004F0B9FE8246082004F0CD
:1009F000B5FE8346072004F0B1FE1590062004F0F2
:100A0000ADFE1490052004F0A9FE1390042004F01C
:100A1000A5FE1290032004F0A1FE1190022004F024
:100A20009DFE1090012004F099FE0F90002004F02C
:100A300095FECDE905BACDE90798CDE90976CDE96E
:100A40000B540E9012A80FC8CDE90323CDE9010184
:100A5000119B0093A7480EA90EC905F007FDA648F3
:100A600004F068FE002006F039FB012803D1A048FD
:100A700004F060FE00E09BE700BF06F0FDFC06F01E
:100A80003FFE9EA005F0F2FC64E006F039FE9BA05C
:100A900005F0ECFC9CA20121002005F0C9FD06F048
:100AA000EFFC169009E0002404E00121E0B204F01C
:100AB000BEFE641C0F2CF8DD00BF06F0E1FC05460D
:100AC000169909F0B1FC044609F0BAFACDE914010F
:100AD0008FA00CC8149808F0ADFF04D2002006F0D7
:100AE000FDFA0028DFD006F00BFE84A005F0BEFC66
:100AF00089A20121002005F09BFD06F0C1FC1690A3
:100B000009E0002404E00021E0B204F090FE641C3F
:100B10000F2CF8DD00BF06F0B3FC0546169909F06E
:100B200083FC044609F08CFACDE9140178A00CC8C6
:100B3000149808F07FFF04D2002006F0CFFA0028B6
:100B4000DFD0002006F0CAFA012803D1684804F07B
:100B5000F1FD00E099E700BF06F08EFC06F0D0FD45
:100B60006FA005F083FC72E0002405E064221E21E2
:100B7000E0B206F099F9641C0F2CF7DD06F0C0FD19
:100B80006BA20021084605F053FD6DA20221002052
:100B900005F04EFD6DA20421002005F049FD06F090
:100BA0006FFC169000BF06F06BFC0546169909F025
:100BB0003BFC044609F044FACDE9140166A00CC8D8
:100BC000149808F037FF04D2002006F087FA0028B6
:100BD000E9D0002405E03C22A021E0B206F064F94F
:100BE000641C0F2CF7DD06F08BFD51A20021084696
:100BF00005F01EFD5AA20221002005F019FD5BA29E
:100C00000421002005F014FD06F03AFC169000BF08
:100C100006F036FC0546169909F006FC044609F074
:100C20000FFACDE9140154A00CC8149808F002FF83
:100C300004D2002006F052FA0028E9D0002006F085
:100C40004DFA012803D12A4804F074FD00E08BE737
:100C500000BF06F011FC2DE006F052FD002006F06A
:100C600024FA0446014646A005F000FC01210020BC
:100C700006F038FD012006F018FA0446014643A0AC
:100C800005F0F4FB0221002006F02CFD022006F006
:100C90000CFA0446014640A005F0E8FB134804F0B6
:100CA00049FD002006F01AFA012803D1104804F08B
:100CB00041FD00E0D0E700BF06F022FD39A005F0BD
:100CC000D5FB09E0002006F009FA012804D1084804
:100CD00004F030FDFFF7C8BBF4E700005445502591
:100CE000660000002020202020000000CDCCCC3D5C
:100CF000CDCC4C3E6CA600080AD7233C20202020F7
:100D00002020444F00000000444F20204F4E200080
:100D1000000000000000E03F444F20204F46460006
:100D2000202020202020534552564F204D4F540064
:100D3000414C4C2053455256204D4F54200000004A
:100D4000646567726565202033300000207370652C
:100D50006564203130300000000000000000F83FE2
:100D600064656772656520313630000020737065F8
:100D700065642020363000009A9999999999094024
:100D800055415254303D25640000000055415254F5
:100D9000313D25640000000055415254323D256428
:100DA0000000000020202054455354204F56455247
:100DB0000000000010B50024F8480068F8490860F9
:100DC000F8480068F549086006F029FB0446F54834
:100DD0000460204610BD2DE9F04104460D46F2485E
:100DE0000460F2480560604209F016FA8046F04857
:100DF0000168404609F02EFA074609F0D5F946B2D7
:100E00003146002004F057FA684209F005FA80469E
:100E1000E7480168404609F01DFA074609F0C4F9A1
:100E200046B23146012004F046FABDE8F0812DE9D2
:100E3000F04104460D46684209F0EEF98046DC4870
:100E40000168404609F006FA074609F0ADF946B2D6
:100E50003146002004F02FFA604209F0DDF98046A7
:100E6000D3480168404609F0F5F9074609F09CF9B6
:100E700046B23146012004F01EFABDE8F081CD48AB
:100E80000068012802D1CC49086039E0C9480068EF
:100E9000012807D9C7480068052803D20220C6499F
:100EA00008602DE0C3480068052803D10320C2492B
:100EB000086025E0BF480068082803D10420BE4927
:100EC00008601DE0BB480068032803D10520BA492B
:100ED000086015E0B74800680A2803D10620B64923
:100EE00008600DE0B348006818B1B24800680D28EA
:100EF00003D10720B049086002E00820AE4908602D
:100F0000704710B50320AD49086005F0FFFEAC49FD
:100F1000086008460068142804DB08460068B0F53D
:100F2000AA7F26DD012004F044FFA6490860084698
:100F30000068642805D26FF059010846FFF74BFF9F
:100F4000EDE0A0480068A02805D26FF02701084610
:100F5000FFF741FFE3E09B480068DC2804D9142137
:100F60000846FFF738FFDAE000210846FFF733FFB5
:100F7000D5E093480068A02829DD91480068C8287A
:100F800025DA002004F015FF8F4908600846006844
:100F9000642804D25A210846FFF71DFFBFE08A48A3
:100FA0000068A02804D228210846FFF714FFB6E005
:100FB00085480068DC2805D96FF013010846FFF763
:100FC0000AFFACE000210846FFF705FFA7E07C48D8
:100FD0000068142808DB7A4800681E2804DA10210B
:100FE0004842FFF7F8FE9AE075480068B0F5A57F23
:100FF0000ADB73480068B0F5AA7F05DC6FF00F01CB
:101000001020FFF7E8FE8AE06D4800681E2808DB24
:101010006B4800683C2804DA1E214842FFF7DBFEDB
:101020007DE067480068B0F5967F0ADB6448006899
:10103000B0F5A57F05DA6FF01D011E20FFF7CBFE8E
:101040006DE05F4800683C2808DB5D4800685A286E
:1010500004DA32214842FFF7BEFE60E058480068DB
:10106000B0F5877F0ADB56480068B0F5967F05DA51
:101070006FF031013220FFF7AEFE50E050480068BB
:101080005A2809DB4E480068782805DA6FF03101EC
:101090003220FFF7A0FE42E049480068F02809DB53
:1010A00047480068B0F5877F04DA32214842FFF7ED
:1010B00092FE34E042480068782809DB4048006826
:1010C000962805DA6FF01D011E20FFF784FE26E04A
:1010D0003B480068D22808DB39480068F02804DA69
:1010E0001E214842FFF777FE19E035480068962830
:1010F00009DB33480068A02805DA6FF00F011020E3
:10110000FFF769FE0BE02E480068C82807DD2C4871
:101110000068D22803DA10214842FFF75CFE10BDB8
:1011200010B505F0F3FD26490860084600681F2841
:1011300003DA0120204908606EE0214800683D285C
:1011400003DA02201C49086066E01D4800685B283D
:1011500003DA0320184908605EE01948006879281E
:1011600003DA04201449086056E0154800689728FF
:1011700003DA0520104908604EE011480068B528E0
:1011800003DA06200C49086046E00D480068D328C1
:101190001CDA0720084908603EE0000078000020C3
:1011A0007C000020740000206C00002070000020F3
:1011B000400000201C0000201800002080000020BB
:1011C0003C0000202400002020000020FA48006895
:1011D000F12803DA0820F94908601DE0F6480068A4
:1011E000B0F5877F03DC0920F449086014E0F24879
:1011F0000068B0F5967F03DC0A20F04908600BE038
:10120000ED480068B0F5A57F03DC0B20EB490860D2
:1012100002E00C20E9490860E748006810BD10B5FD
:1012200086B0FFF7C7FDE649086009681031C8B20B
:1012300004F0BFFDE3490860E1480068072807D2D1
:10124000DF480068C0EB00104000DF49086007E09D
:10125000DB480068401EC0EB00104000DA4908601F
:10126000D74800680D2802D1D548006880B1D4481D
:1012700000680F30C0B204F09CFDD4490860D0482B
:1012800000681130C0B204F094FDD14908601BE041
:10129000CB4800680D280AD11C2004F08AFDCB49F8
:1012A0000860102004F085FDC94908600CE0C448BE
:1012B000006848B91D2004F07CFDC4490860112075
:1012C00004F077FDC2490860C0480068C049096859
:1012D00088420BD9BA4800680F30C0B204F069FDEB
:1012E000BC4908600120BC4908600AE0B4480068B5
:1012F0001130C0B204F05DFDB64908600220B64965
:101300000860AF480068062803D1B3480068022887
:1013100016D0AB480068072803D1AF480068012801
:101320000ED0A74800680D2803D1AB4800680228FA
:1013300006D0A348006838B9A7480068012803D13F
:101340000020A549086076E0A3480068012839D14B
:101350009C4800689F490968401AA04908600846EF
:101360000068282805D8984800680F389649086012
:1013700061E09A48006828280FD998480068C82872
:101380000BD8964800681E21B0FBF1F08E49096821
:101390000F3908448C4908604DE090480068C8281F
:1013A00049D98E480068B0F5C87F44D28B480068A0
:1013B0002821B0FBF1F0844909680F3908448249BB
:1013C000086038E07F48006882490968401A83490C
:1013D000086008460068282805D87B4800680F3058
:1013E0007949086027E07D48006828280FD97B48A4
:1013F0000068C8280BD8794800681E21B0FBF1F1BD
:10140000714800680F30401A6F49086013E0734854
:101410000068C8280FD971480068B0F5C87F0AD2A3
:101420006E4800682821B0FBF1F1674800680F3072
:10143000401A65490860644800685A2806D2624824
:10144000006800F587706049086004E05E48006845
:101450005A385D490860FFF763FE61490860084635
:1014600000685949096888420AD2574801685C48AF
:101470000068B430814203D201205A49086002E07A
:101480000220584908605048006855490968401AC8
:10149000524908600846006800F5B470B42805D2C7
:1014A0000846006800F5B470086016E04B48006814
:1014B00028B94A4800684042484908600DE047485A
:1014C0000068B42809D945480068B4384349086021
:1014D00008460068C0F1B400086040480068B0F5F4
:1014E000B47F02D100203D4908603F4800680728CA
:1014F00003D106203D49086006E03B4800680D28FE
:1015000002D100203949086038480068072803D113
:1015100006203649086006E0344800680D2802D1EC
:1015200000203249086032480068072803D10620AD
:101530002E49086006E02E4800680D2802D10020E0
:101540002A490860254800685A2813D225480068AF
:1015500001280FD121480068C0F15A000A21B0FBD0
:10156000F1F0642100FB01F41C4801682046FFF7FC
:1015700032FC7BE019480068B4283FD8194800685D
:1015800001283BD11548006808F04EFACDE9040166
:1015900018A00CC8049807F0A9FFCDE9020181F05A
:1015A0000041CDE9000108F0A1F90446014664209C
:1015B000FFF711FC5AE000003C000020180000205A
:1015C0001C00002050000020840000205400002057
:1015D0005800002060000020640000206800002007
:1015E000880000205C0000207400002078000020AB
:1015F0007C000020000000000000E03FF948006887
:101600005A2813D2F848006802280FD1F54800681C
:10161000C0F15A000A21B0FBF1F0642100FB01F493
:101620002146F0480068FFF7D6FB1FE0ED48006850
:10163000B4281BD8EC480068022817D1E948006894
:1016400008F0F2F9CDE90401AFF258000CC8049893
:1016500007F04CFFCDE9020181F00041CDE9000126
:1016600008F044F904466421FFF7B5FB002006B0FA
:1016700010BD70B50220DD49086005F047FBDC496C
:101680000860132004F095FBDA490860002004F09C
:1016900090FBD9490860012004F08BFBD749086012
:1016A000022004F086FBD6490860032004F081FB89
:1016B000D4490860132004F07CFBD34909688842B0
:1016C0000BD9052004F075FBD0490968884204D97C
:1016D00005F0D6FECE49086001E0FFF7A0FDC8483E
:1016E0000068C8490968401ACA490860CA480068C1
:1016F000C149096888420BD2C648006820B146211A
:101700006420FFF768FB03E064214620FFF763FBDA
:10171000C0480068C14909684942884278D9BD4833
:101720000068BE490968884272D2BA480068002839
:101730003DD005F0EBFAAE4908600846006819286C
:1017400004DD08460068B0F5A77F04DD64215A2057
:10175000FFF741FBB7E0A64800685A2807DCA44918
:101760000968C1F164006421FFF735FBABE0A048D4
:101770000068B42804DC64210020FFF72CFBA2E001
:101780009B480068B0F5877F04DC00216420FFF7E8
:1017900022FB98E096480068B0F5B47FDADC944804
:1017A0000068C0F164016420FFF715FB8BE005F0D1
:1017B000ADFA8F49086008460068192804DD08461C
:1017C0000068B0F5A77F04DD5A216420FFF703FB12
:1017D00079E0874800685A2807DC85480068C0F12E
:1017E00064016420FFF7F7FA6DE081480068B428CF
:1017F00004DC00216420FFF7EEFA64E07C48006816
:10180000B0F5877F05DC64210020FFF7E4FA5AE099
:101810000CE077480068B0F5B47F54DC744909687F
:10182000C1F5B4706421FFF7D6FA4CE0794800683E
:101830007A490968884222D905F068FA6C4908603B
:1018400008460068052807DB084600682D2803DCE9
:1018500064210846FFF7BFFA65480068052804DBE5
:1018600063480068B0F5A57F04DD46216420FFF7DA
:10187000B2FA28E064210A20FFF7ADFA23E005F070
:1018800045FA5B49086008460068B0F5B27F08DA9F
:1018900008460068B0F59D7F03DD64210846FFF728
:1018A0009AFA53480068B0F5B27F03DA50480068EE
:1018B0001E2804DA64214620FFF78DFA03E00A218E
:1018C0006420FFF788FA132004F073FA4E49096880
:1018D00088421DD9052004F06CFA4C4909688842F9
:1018E00016D905F0CDFD054649480168284608F09F
:1018F00091FD04464A4908F057FD09D200210846E7
:10190000FFF769FA4FF07C5003F014FFFFF787FCF4
:1019100070BD10B5FFF74EFA4249086008460068EE
:1019200020B964210020FFF756FA99E03D4800688D
:10193000012804D164211E20FFF74DFA90E03948B8
:101940000068022804D164213C20FFF744FA87E0B4
:1019500034480068032804D164210846FFF73BFAA5
:101960007EE030480068042804D13C216420FFF761
:1019700032FA75E02B480068052804D11E21642046
:10198000FFF729FA6CE027480068062804D10021F7
:101990006420FFF720FA63E022480068072804D19A
:1019A00000216420FFF717FA5AE01E480068082853
:1019B00005D16FF01D016420FFF70DFA50E01948C2
:1019C0000068092805D16FF03B016420FFF703FA96
:1019D00046E0144800680A2826D164214842FFF7EF
:1019E000FAF93DE0680000205C0000208000002043
:1019F0003C0000208C00002020000020240000205B
:101A0000280000202C00002090000020480000202A
:101A1000A0000020340000204C00002038000020EE
:101A2000000070411C0000201D4800680B2805D1F3
:101A300064216FF03B00FFF7CEF911E01848006811
:101A40000C2805D164216FF01D00FFF7C4F907E0F1
:101A5000134800680D2803D164210020FFF7BBF96B
:101A60000F480068032804D10E480068401C0D4947
:101A7000086010BD10B564210846FFF7ACF90A48AC
:101A800003F058FE05F03CFE08A004F0EFFC012036
:101A90000D49086003E001E0FFF73BFFFCE7FAE7D0
:101AA0001C00002084000020CDCC4C3D666F6F747C
:101AB00062616C6C20760A202020666F6F74626110
:101AC0006C6C206B69636B008000002010B501E036
:101AD00005F0E4FFFCE7000010B5FEA004F0C6FC32
:101AE0003221002003F0E7FB6FF01D01012003F01D
:101AF000E2FB08E0FD4803F01DFE002005F0EEFAD1
:101B0000012800D100E0F5E700BF002010BD2DE95D
:101B1000FF41322005F021FB122804DA322005F0C3
:101B20001CFBF349086005F0EBFDF2A20021022046
:101B300004F07EFDEE48F2A2002103684C2004F080
:101B400077FDF0A20121062004F072FDEFA2012131
:101B5000302004F06DFDEFA20221062004F068FDA4
:101B6000EEA20221302004F063FDEEA20321062044
:101B700004F05EFDEDA20321302004F059FDEDA23A
:101B80000421062004F054FDECA20421302004F0CE
:101B90004FFDECA20521062004F04AFDEBA2052131
:101BA000302004F045FD01240AE0EAA2E1B2002061
:101BB00004F03EFDE7A2E1B22A2004F039FD641CE6
:101BC000052CF2DDCA480068042808DCE2A2C848F7
:101BD0000068401CC1B2002004F02AFD0BE0C4489C
:101BE0000068042807DDC2480068001FC1B2DAA2FD
:101BF0002A2004F01DFDB2E0012005F06FFA012853
:101C00000AD1BB4800680628F5DAB9480068C1B2B5
:101C1000322005F0B6FAA2E0022005F05FFA0128B2
:101C20004CD1CE4803F086FD00BF022005F056FAE5
:101C30000128FAD0C94803F07DFDAD4800680828A6
:101C400008DCAB480068AA49086008460068401CE8
:101C5000086003E0A6480068A5490860A448A8A257
:101C6000002103684C2004F0E3FC01240AE0B9A23F
:101C7000E1B2002004F0DCFCB6A2E1B22A2004F0BC
:101C8000D7FC641C052CF2DD99480068042808DCA8
:101C9000B1A297480068401CC1B2002004F0C8FC03
:101CA0005DE093480068042859DD91480068001FF2
:101CB000C1B2A9A22A2004F0BBFC50E0002005F02C
:101CC0000DFA01284BD1A54803F034FD00BF0020D8
:101CD00005F004FA0128FAD0A04803F02BFD84484F
:101CE0000068012808DB82480068814908600846CE
:101CF0000068401E086003E07D4800687C49086079
:101D00007B487FA2002103684C2004F091FC012451
:101D10000AE090A2E1B2002004F08AFC8DA2E1B2B8
:101D20002A2004F085FC641C052CF2DD7048006854
:101D3000042808DC88A26E480068401CC1B200205C
:101D400004F076FC0BE06A480068042807DD684868
:101D50000068001FC1B280A22A2004F069FC0320A1
:101D600005F0BCF900283FF447AF6148006810B99E
:101D7000FFF780FEABE05E480068012849D10024EF
:101D80000025002605F07CFB054600BF07E0032088
:101D900094FBF0F7384608F03FFA0646641C42F21E
:101DA00010708442F3DB05F0ABFC6DA20021084605
:101DB00004F03EFC6EA20121002004F039FC234611
:101DC0006DA20221002004F033FC304608F038F9FF
:101DD000CDE902016AA2CDE900010321002004F04F
:101DE00027FC05F04DFB8046294608F01DFB074601
:101DF00008F026F9CDE9020163A2CDE90001042132
:101E0000002004F015FC5AA20521002004F010FC6B
:101E10005DE037480068022810D105F071FC0CE045
:101E2000002003F0C6FF044603465AA200210846DC
:101E300004F0FEFB594803F07DFCF1E72C480068F4
:101E4000032805D105F05CFC3AA004F00FFB3EE04E
:101E500027480068042805D105F052FC39A004F099
:101E600005FB34E022480068052805D105F048FC50
:101E700026A004F0FBFA2AE01D480068062805D1D8
:101E800005F03EFC25A004F0F1FA20E018480068B7
:101E9000072805D105F034FC24A004F0E7FA16E089
:101EA00013480068082807D105F02AFC23A004F095
:101EB000DDFAFFF70BFE0AE00D480068092806D19D
:101EC00005F01EFC21A004F0D1FAFEF7C9FA00BF0C
:101ED000FEE700004D6F746F722030202D3E2052BF
:101EE000756E2835302C2D3330293B00CDCCCC3DC0
:101EF000A400002051585F524F424F542049000027
:101F00002564000030206674626C000035202E2E9F
:101F10002E00000031206A737473000036202E2ECC
:101F20002E00000032202E2E2E00000037202E2EF4
:101F30002E00000033202E2E2E0000003820727458
:101F40006300000034202E2E2E000000392074651E
:101F500073740000200000003E0000006F12833AFE
:101F600031205072696E74665F746573740A000084
:101F70002A2A2A2A2A2A2A00693D2564000000000C
:101F8000692F333D2566000075736574696D653D85
:101F90002566000069726C3D25640000CDCC4C3D87
:101FA00030BF704720BF704740BF7047BFF36F8F8F
:101FB0007047BFF34F8F7047BFF35F8F704701DFEC
:101FC0007047EFF31480704780F31488BFF36F8F6E
:101FD0007047EFF30980704780F309887047EFF38B
:101FE0000880704780F30888704762B6704772B601
:101FF0007047EFF31080704771B6704761B6704755
:10200000EFF31380704780F311887047EFF312806D
:10201000704740BA704700BA704700000348004755
:1020200003480449044A054B704700003101000889
:10203000800F0020801700208013002080130020D4
:1020400010B50446FD48201806D0B0F5806F0DD0BD
:10205000B0F5C05F1ED113E00121480201F074FC0D
:1020600000214FF4007001F06FFC14E001218802A0
:1020700001F06AFC00214FF4806001F065FC0AE089
:102080000121C80301F060FC00214FF4004001F081
:102090005BFC00E000BF00BF10BD30B50022002394
:1020A0004268E74C22400D790C6844EA052422433B
:1020B00042608268E34C2240D1E902542C434D79BE
:1020C00044EA450422438260C26A22F470020C7C16
:1020D000641E1C43E3B242EA0352C26230BD0021D7
:1020E0000160017141718160C1600121017470471B
:1020F00021B1826842F00102826003E0826822F02E
:1021000001028260704721B1826842F4807282606D
:1021100003E0826822F480728260704710B5002369
:10212000CBB21AB144681C43446002E044689C434B
:10213000446010BD816841F008018160704701462C
:1021400000208A6812F0080F01D0012000E0002072
:102150007047816841F004018160704701460020AA
:102160008A6812F0040F01D0012000E000207047BF
:1021700021B1826842F4A002826003E0826822F406
:10218000A00282607047014600208A6812F4800F26
:1021900001D0012000E00020704710B5002200238C
:1021A000426822F460424B1E42EA4332426010BD54
:1021B00021B1426842F40062426003E0426822F4C6
:1021C000006242607047F0B500240025092911DD46
:1021D000C468A1F10A0606EB4607072606FA07F5CA
:1021E000AC43A1F10A0606EB460603FA06F52C43BA
:1021F000C4600CE0046901EB4107072606FA07F505
:10220000AC4301EB410603FA06F52C430461072AAF
:102210000FDA446B561E06EB86071F2606FA07F5F3
:10222000AC43561E06EB860601FA06F52C434463C2
:1022300022E00D2A0FDA046BD61F06EB86071F2655
:1022400006FA07F5AC43D61F06EB860601FA06F53B
:102250002C43046310E0C46AA2F10D0606EB860766
:102260001F2606FA07F5AC43A2F10D0606EB86061B
:1022700001FA06F52C43C462F0BD21B1826842F434
:102280008012826003E0826822F4801282607047CC
:102290000146C86C80B270476B480068704721B136
:1022A000426842F48062426003E0426822F4806245
:1022B0004260704721B1426842F48052426003E0BC
:1022C000426822F48052426070470022826822F401
:1022D000E0420A438260704721B1826842F40042C2
:1022E000826003E0826822F400428260704721B17C
:1022F000826842F40212826003E0826822F40212D1
:1023000082607047014600208A6812F4001F01D0E5
:10231000012000E000207047F0B5002400250026D1
:10232000092911DDC468A1F10A0707EB470C07274B
:1023300007FA0CF5AC43A1F10A0707EB470703FACC
:1023400007F52C43C4600CE0046901EB410C07273E
:1023500007FA0CF5AC4301EB410703FA07F52C43F0
:102360000461846BC4F30156D71C06F1010CA7EB82
:102370000C0707EB870C1F2707FA0CF5AC43D71C9B
:1023800006F1010CA7EB0C0707EB870701FA07F52D
:102390002C438463F0BD10B500220023826B22F42D
:1023A00040124B1E42EA0352826310BD42507047F6
:1023B00002465018806A80B2704700224268234B60
:1023C0001A400A43426070474162826270470022AD
:1023D000426822F01F020A434260704740B11A4926
:1023E0004439096841F40001194AC2F8081407E0A9
:1023F00015494439096821F40001154AC2F8081446
:1024000070470246002013680B4201D0012000E013
:1024100000207047CA430260704770B50246002032
:10242000002300240B125568CEB205EA0604156895
:102430001D420FD074B101200DE0000000DCFEBF92
:10244000FFFEF0FFFDF7F1FF4C240140FFFD3FFFD1
:1024500000200140002070BD00220A12D343036017
:102460007047000010B5012001F088FA002001F04B
:1024700085FA10BD2349086070472249091F08608A
:102480007047204984310860704700211E4A118836
:102490004FF67F42114001431C4AA2F82C1C7047A2
:1024A0000021194A11884FF6807211400143174AE2
:1024B000A2F82C1C7047154A0244A2F8001C704771
:1024C000014612480844B0F8000C70470D489C3093
:1024D0000068C0B270470C480830008840F0010026
:1024E0000A49A1F8340C70470648A0300068C0B211
:1024F000704705480830008840F002000349A1F801
:10250000340C704704860D422C6C00400060004083
:10251000FC49096801F03801FA4A1160114609685E
:10252000014311607047F749096821F00801F54A35
:10253000116011460968014311607047F14909684B
:1025400021F01001EF4A1160114609680143116042
:102550007047ED48EB494860EC4848607047E948EF
:10256000006940F08000E749086170470420E549B0
:10257000C96801F00101012901D101200EE0E14902
:10258000C96811F0040F01D0022007E0DD49C968D5
:1025900011F0100F01D0032000E00420704700204C
:1025A000FF2000E0401E0028FCD1704770B50446B3
:1025B0000425FFF7DBFF054605E0FFF7F0FFFFF717
:1025C000D5FF0546641E012D01D1002CF5D104B9BB
:1025D0000525284670BD70B50446042540F6FF70F9
:1025E000FFF7E4FF0546042D19D1C648006940F005
:1025F0000200C449086108464461006940F0400097
:10260000086140F6FF70FFF7D1FF0546012D06D0A7
:10261000BC48006941F6FD710840BA490861284686
:1026200070BD10B5042440F6FF70FFF7BFFF0446ED
:10263000042C18D1B348006940F00400B149086186
:102640000846006940F04000086140F6FF70FFF75F
:10265000ADFF0446012C06D0AA48006941F6FB7183
:102660000840A8490861204610BD10B5042440F672
:10267000FF70FFF79BFF0446042C3BD1A248A14901
:102680008860A24888600846006940F02000086120
:102690000846006940F04000086140F6FF70FFF70F
:1026A00085FF0446042C1CD19648006941F6DF7171
:1026B0000840944908610846006940F0100008612C
:1026C000A520934908800F20FFF770FF0446012CD6
:1026D00010D08C48006941F6EF71084089490861C3
:1026E00008E0012C06D08748006941F6EF710840E8
:1026F00084490861204610BD70B504460D46042685
:102700000F20FFF753FF0646042E25D17D480069B0
:1027100040F001007B49086125800F20FFF746FF4C
:102720000646042E0FD1280C60800F20FFF73EFFD5
:102730000646012E10D07348006941F6FE7108402C
:102740007049086108E0012E06D06E48006941F624
:10275000FE7108406B490861304670BD70B5044693
:102760000D4604260F20FFF721FF0646042E13D145
:102770006448006940F001006249086125800F202B
:10278000FFF714FF0646012E06D05E48006941F6A9
:10279000FE7108405B490861304670BD70B5044663
:1027A0000D4604260F20FFF701FF0646042E17D121
:1027B000554854498860554888600846006940F08B
:1027C0001000086125800F20FFF7F0FE0646012E5D
:1027D00006D04C48006941F6EF710840494908614C
:1027E000304670BD2DE9F04704464FF6FF752E4682
:1027F0002F46A8464FF00409E443E5B2C4F3072688
:10280000C4F307474FEA14680F20FFF7CFFE814655
:10281000B9F1040F41D13C483A4988603B4888608F
:102820000846006940F010000861FF2D06D03848C6
:10283000083005800F20FFF7B9FE8146B9F1040F7B
:1028400008D1FF2E06D032480A3006800F20FFF74D
:10285000ADFE8146B9F1040F08D1FF2F06D02C48F8
:102860000C3007800F20FFF7A1FE8146B9F1040F5D
:1028700009D1B8F1FF0F06D02648A0F80E880F2026
:10288000FFF794FE8146B9F1010F06D01D4800699B
:1028900041F6EF7108401B4908614846BDE8F087E2
:1028A00070B50446042540F6FF70FFF77FFE05462D
:1028B000042D4CD114481349886014488860084698
:1028C000006940F0200008610846006940F04000BF
:1028D000086140F6FF70FFF769FE0546042D2DD113
:1028E0000848006941F6DF7108400649086108465A
:1028F000006940F01000086174B1002004490880AC
:102900000DE000000020024023016745AB89EFCDB8
:1029100000F8FF1F00F0FF1FA5204549088040F682
:10292000FF70FFF743FE0546012D10D041480069B6
:1029300041F6EF7108403F49086108E0012D06D0DB
:102940003C48006941F6DF7108403A490861284671
:1029500070BD2DE9F04104460D4616460427364861
:1029600034498860354888600F20FFF71FFE07460E
:10297000042F1AD12F48006940F010002D4908613A
:1029800044EA0500304340F0F8002949891C0880DA
:102990000F20FFF70BFE0746012F06D025480069E0
:1029A00041F6EF710840234908613846BDE8F081DF
:1029B0002048C069800870471E48006A70470020A0
:1029C0001C49C96911F0020F01D0012000E000206C
:1029D000704700201749096811F0200F01D001202D
:1029E00000E00020704729B1124A12690243114BDE
:1029F0001A6104E00F4A126982430E4B1A61704754
:102A000001460020012908D10A4AD26912F0010FBB
:102A100001D0012008E0002006E0064AD2680A4200
:102A200001D0012000E0002070470249C8607047D3
:102A300000F8FF1F0020024023016745AB89EFCD5E
:102A400010B50446C049601A8C422FD009DCBF483B
:102A5000201810D0B0F5806F16D0B0F5006F4AD1B5
:102A60001BE0B0F5806F2AD0B0F5006F30D0B0F524
:102A7000406F40D135E00121042000F065FF0021C6
:102A8000042000F061FF37E00121082000F05CFF26
:102A90000021082000F058FF2EE00121102000F056
:102AA00053FF0021102000F04FFF25E001212020DE
:102AB00000F04AFF0021202000F046FF1CE0012129
:102AC000402000F041FF0021402000F03DFF13E0D6
:102AD0000121802000F038FF0021802000F034FF29
:102AE0000AE00121080200F02FFF00214FF480705E
:102AF00000F02AFF00E000BF00BF10BD10B50121AB
:102B0000084600F021FF0021012000F01DFF10BD4C
:102B1000F0B500220023002400250026002791F8AC
:102B200003C00CF00F0291F803C01CF0100F03D08B
:102B300091F802C04CEA0202B1F800C01CF0FF0F8D
:102B400030D0066800242AE04FF0010C0CFA04F59E
:102B5000B1F800C00CEA0503AB421FD1A5004FF04D
:102B60000F0C0CFA05F7BE4302FA05FC4CEA060608
:102B700091F803C0BCF1280F05D14FF0010C0CFAFD
:102B800004FCC0F814C091F803C0BCF1480F05D193
:102B90004FF0010C0CFA04FCC0F810C0641C082CA7
:102BA000D2D30660B1F800C0BCF1FF0F34DD466837
:102BB00000242EE004F1080C4FF0010E0EFA0CF583
:102BC000B1F800C00CEA0503AB4221D1A5004FF0DB
:102BD0000F0C0CFA05F7BE4302FA05FC4CEA060698
:102BE00091F803C0BCF1280F05D104F1080C0EFACE
:102BF0000CFEC0F814E091F803C0BCF1480F07D1F7
:102C000004F1080C4FF0010E0EFA0CFEC0F810E0B3
:102C1000641C082CCED34660F0BD4FF6FF710180D6
:102C2000022181700421C170704702460020936820
:102C30000B4201D0012000E0002070470146886867
:102C400080B2704702460020D3680B4201D00120B9
:102C500000E0002070470146C86880B270470161FB
:102C60007047416170470AB1016100E041617047FE
:102C7000C16070474FF480320A4382618161826192
:102C80008269826970470022314B1A684FF680735F
:102C90001A4042EA00120A432D4B1A6070472D4930
:102CA000C8617047F0B50022002300250024284E9B
:102CB0007568C0F3034482B200F44016B6F5401FB5
:102CC00008D125F07065224E766826F07066204F98
:102CD0007E6012E000F48016B6F5801F06D1032650
:102CE00006FA04F39D4345F0706506E0460D360193
:102CF00002FA06F6B54345F0706521B1460D36017E
:102D000002FA06F63543124E7560F0BD30B500226A
:102D10008B071C0F0F2303FA04F20D4B08338C10A2
:102D200053F8244094438D1043F825408C1053F8F9
:102D300024308C07240F00FA04F42343044C083495
:102D40008D1044F8253030BD0014014000F8FEBF5E
:102D5000000001400000204210B50446F848201849
:102D600003D0B0F5806F14D109E00121480500F0CF
:102D7000F8FD00214FF4001000F0F3FD0AE00121FE
:102D8000880500F0EEFD00214FF4800000F0E9FD21
:102D900000E000BF00BF10BD2DE9F04385B0044640
:102DA0000D46002600274FF00408DFF89893A68808
:102DB0004FF6C0700640684600F03EFDDDF8089012
:102DC000E148B9FBF0F087B23E43A68020884FF679
:102DD000FE71084020800026DC49E86888420FD850
:102DE000E8684000B9FBF0F01FFA80F8B8F1040F72
:102DF00001DA4FF0040846EA0806781C208429E02E
:102E00006888A0F53F41FF3907D1E86800EB400032
:102E1000B9FBF0F01FFA80F80AE0E86800EBC001A7
:102E200001EB0010B9FBF0F01FFA80F848F480487D
:102E3000C8F30B00002801D148F0010848F4004015
:102E400006434FF4967078434FF47A7190FBF1F09B
:102E5000401C2084A683208840F001002080268822
:102E60004FF6F53006402888E98808430643268057
:102E70002889A9880843208105B0BDE8F083002196
:102E800001804BF6FF71418000218180C1804FF4A9
:102E90008041018141F28831C160704721B10288CF
:102EA00042F00102028004E002884FF6FE731A40ED
:102EB0000280704721B1828842F40062828004E07F
:102EC00082884FF2FF731A408280704721B1828856
:102ED00042F48052828004E082884EF6FF731A40EA
:102EE0008280704721B1028842F48072028004E03F
:102EF00002884FF6FF631A400280704721B10288B2
:102F000042F40072028004E002884FF6FF531A4038
:102F10000280704721B1028842F48062028004E09E
:102F200002884FF6FF331A400280704700228289E0
:102F30004FF601731A4001F0FE031A438281704775
:102F400021B1828942F00102828104E082894FF638
:102F5000FE731A408281704721B1028842F040021C
:102F6000028004E002884FF6BF731A400280704767
:102F700010B51AB183880B43838004E08388CC4367
:102F8000A4B22340838010BD018270470146088AA5
:102F9000C0B2704712B141F0010102E04FF6FE737A
:102FA0001940018270470246505A704721B1028889
:102FB00042F40042028003E00288C2F30E02028063
:102FC0007047B1F5005F04D1028842F400520280DC
:102FD00004E002884DF6FF731A400280704721B169
:102FE000028842F48052028004E002884EF6FF73A9
:102FF0001A4002807047B1F5006F04D1028842F494
:103000000062028004E002884FF2FF731A400280DF
:10301000704721B1028842F02002028004E0028859
:103020004FF6DF731A40028070470146088B00128A
:10303000704721B1028842F01002028004E0028849
:103040004FF6EF731A400280704721B9028842F0B0
:103050008002028004E002884FF67F731A400280EB
:103060007047B1F5804F05D0828B4BF6FF731A4045
:10307000828303E0828B42F480428283704710B5E2
:103080000346002000210022998A1A8B120441EA8B
:10309000020424F07F4010BD70B5034600240022D6
:1030A000002500209A8A1D8B2D0442EA050626F091
:1030B0007F448C4201D1012000E0002070BD70B53A
:1030C00004460020002500220023A28A238B1B0433
:1030D00042EA030521F07F410D4201D0012000E0CA
:1030E000002070BD10B50022002321F07F420B0F9D
:1030F000012B02D1D44384820DE0022B01D1848ABA
:1031000009E0062B05D1848A048844F00104048078
:1031100001E0848A048B10BD70B5044600200025B0
:1031200000220023A28A238B1B0442EA030521F01C
:103130007F410D4201D0012000E0002070BD000061
:1031400000ACFFBF00127A0040420F00A0860100D1
:1031500010B50022002321F07F420B0F012B02D17A
:10316000D44384820DE0022B01D1848A09E0062B2E
:1031700005D1848A048844F00104048001E0848A33
:10318000048B10BD0020411EF24A11600A09F1496A
:103190008039C1F88420411E4FF0E022C2F880122D
:1031A0000A09ED490A6000BF04E00022EB4941F83A
:1031B0002020401C0F28F8D3704700204FF02061DA
:1031C000E74A116000214FF0E022C2F8081DE549EE
:1031D000E34A083211600021121D1160121D1160B6
:1031E00000BF05E00022DE49143141F82020401CD8
:1031F0000328F7D30021DA4A20321160491E4FF02C
:10320000E022C2F8281DD64A283211604FF0E02291
:10321000C2F8301D7047D3490143D14A08321160CA
:103220007047F0B500210022002300240F25C67846
:10323000002E36D0CA4E0836366806F4E066C6F56B
:10324000E066310AC1F10404CD40467806FA04F183
:1032500086782E40314309010678B607F60EB14054
:10326000BE4E0778BF1056F827200678B607F70E2F
:10327000FF2606FA07F39A4319400A43B74E077828
:10328000BF1046F82720067806F01F070126BE402B
:1032900007787F114FF0E02C0CEB8707C7F800612F
:1032A0000BE0067806F01F060127B740A94E90F8FC
:1032B00000C04FEA6C1C46F82C70F0BD0021017074
:1032C00041708170C170704710B5FEF790FE10BD5F
:1032D00010B5FEF78AFE10BD10B5FEF78DFE10BDCD
:1032E00010B5FEF78BFE10BD10B504462001FEF7A9
:1032F0008AFE10BD10B5FEF789FE10BD9848006823
:10330000C0F30930704710B501460020002201F0DB
:103310001F04012303FA04F28E4B80334C1153F83F
:1033200024301340934201D1012000E0002010BD61
:103330008D490860704700F01F0101228A408649CC
:10334000091F431141F82320704785480068C0F3E6
:103350000900704710B501460020002201F01F044B
:10336000012303FA04F27C4B7C334C1153F82430D4
:103370001340934201D1012000E0002010BD7848A5
:10338000001F00687047794A0A400243744B1B1DB6
:103390001A6070477348001D714908310860704712
:1033A0007048401C6E4908310860704741B16C4A52
:1033B0000C32126802434FF0E023C3F8102D07E0EF
:1033C000674A0C32126882434FF0E023C3F8102D95
:1033D000704710B5002200F01F04012303FA04F225
:1033E00041B15F4B20331B6813434FF0E024C4F816
:1033F000243D07E05A4B20331B6893434FF0E024F1
:10340000C4F8243D10BDF0B50023FF24002500269C
:10341000534F08373F6807F4E067C7F5E0673E0A97
:10342000C6F10403F44001FA03F602EA04073E433E
:10343000360100F0C0039B09C0F30124E700BE4041
:103440004FEAC40CFF2707FA0CF5454F143757F81D
:1034500023C02CEA050C47F823C057F823C04CEAD8
:10346000060C47F823C0F0BD10B50146002000222D
:1034700000238B0A03F00F03012404FA03F3384CF2
:103480002034246804EA03029A4201D1012000E0BA
:10349000002010BD002100F01F01314A13680122F5
:1034A0008A4013434FF0E022C2F8043D704710B544
:1034B000002100F01F012A4A13684C1E0122A2407D
:1034C00013434FF0E022C2F8043D10BD10B5014691
:1034D000002000230022C1F38332012404FA02F207
:1034E0001F4C2034246804EA0203934201D10120D6
:1034F00000E0002010BD30B501460020002200236E
:10350000C1F38142C1F301531AB9154C2834206824
:1035100011E0012A0CD1124C24342468DD0024FA75
:1035200005F0022B02D000F00F0004E0C0B202E070
:103530000B4C2C34206830BD014600200022C1F322
:1035400080521AB9064B3033186802E0044B34330A
:103550001868704780E100E084E200E000E400E0E9
:1035600004ED00E00000FA0500EF00E080FFFF1F1F
:1035700010B50121080700F0F4F900214FF0805048
:1035800000F0EFF910BD2A49086270472849086128
:1035900070470021274A116821F0E00101431160C2
:1035A00070472349A0310860704770B504460E4645
:1035B00000252048056825F00305254305601E48C1
:1035C000006840F004004FF0E021C1F8100D012E1A
:1035D00002D1FEF7E5FC01E0FEF7E4FC70BD10B59A
:1035E0001448006840F0040012490860084600686A
:1035F00040F0020008601048006840F004004FF0FE
:10360000E021C1F8100DFEF7CBFC10BD01460020F3
:10361000084A52680A4201D0012000E000207047A9
:103620000449096841EA8001024A116070470000BC
:1036300000000E420070004010ED00E0DE4800681F
:1036400040F00100DC49086008464068DB4908405A
:10365000D949486008460068D9490840D6490860F9
:103660000846006820F4802008600846406820F47E
:10367000FE004860002088607047CF49096821F447
:103680008031CD4A11601146096821F48021116012
:10369000B0F5803F03D0B0F5802F0ED106E0C649CB
:1036A000096841F48031C44A116007E0C2490968E1
:1036B00041F4A021C04A116000E000BF00BF704784
:1036C00010B501460022002300204A11012A02D130
:1036D000B94C236806E0022A02D1B74C236A01E004
:1036E000B54C636A01F01F02012494401C4201D0D2
:1036F000012000E0002010BD10B5002400BF3120E3
:10370000FFF7DEFFAF490870081F0068401C091F63
:103710000860081D007828B908460068A0F5807187
:10372000FF39ECD13120FFF7CBFF08B1012400E0D5
:103730000024204610BD00219F4A116821F0F801A5
:1037400041EAC001116070479F490860704700223C
:10375000994B5A6822F47C1240EA01031A43964BB3
:103760005A6070479849086670470021924A51682C
:1037700021F003010143516070478F48406800F019
:103780000C00704700218C4A516821F0F001014380
:10379000516070470021884A516821F4E06101437B
:1037A000516070470021844A516821F4605141EA18
:1037B000C0015160704729B17F4A527A02437E4B63
:1037C0005A7206E07C4A527AC343DBB21A407A4B03
:1037D0005A7270477C49D831086070470021764A98
:1037E000516821F440410143516070470021724A01
:1037F00020321170704A82F82010012802D004286B
:103800000AD104E001216C4A2032117005E0052143
:10381000694A2032117000E000BF00BF70476B4959
:10382000086070476449096A0143634A116270473E
:10383000664944390860704730B5002100220023F2
:1038400000245D4D6D6805F00C0121B1042905D0FF
:10385000082923D105E05E4D056022E05C4D05603E
:103860001FE0554D6D6805F47012022505EB92427C
:10387000514D6D6805F480331BB9564D55430560B5
:103880000BE04D4D6D6815F4003F03D0514D55438D
:10389000056002E04E4D5543056002E04C4D056069
:1038A00000BF00BF444D6D6805F0F00109094A4DA5
:1038B0006C5C0568E54045603F4D6D6805F4E0616E
:1038C000090A454D6C5C4568E54085603A4D6D6878
:1038D00005F46051C90A404D6C5C4568E540C5601F
:1038E000354D6D6805F44041890B3B4D10356C5CDE
:1038F000C568B5FBF4F5056130BD29B12E4A5269A2
:1039000002432D4B5A6104E02B4A526982432A4BF1
:103910005A61704729B1284A92690243264B9A613D
:1039200004E0254A92698243234B9A61704729B18A
:10393000214AD2690243204BDA6104E01E4AD2696F
:1039400082431D4BDA61704729B11B4AD26802439A
:10395000194BDA6004E0184AD2688243164BDA60E9
:10396000704729B1144A12690243134B1A6104E0EB
:10397000114A12698243104B1A617047134940394A
:10398000086070471049C86470470B49C871704798
:103990000948406A40F08070074948627047014614
:1039A0000020054A92680A4201D0012000E0002070
:1039B0007047014988727047001002400000FFF80C
:1039C000FFFFF6FEB80000200000424280044242A1
:1039D00000127A0000093D00BCA6000831B1564A29
:1039E00012880243554BA3F8002807E0524A128878
:1039F000C3439BB21A40514BA3F8002870474E486E
:103A0000001D008840F010004C49A1F804087047E0
:103A10004948001D00884FF6EF7108404749A1F85A
:103A200004087047002144481C3001884348B0F81E
:103A3000180841EA0040704700B50246FFF7DFFF73
:103A4000100C3D49183108803C49A1F81C28FFF7AB
:103A5000DFFF00BD00B50246FFF7D1FFC2F3034010
:103A60003549083108803549A1F80C28FFF7D0FF07
:103A700000BD00B50246FFF7C2FF100C2E492031F1
:103A800008802E49A1F82428FFF7C2FF00BD0020BE
:103A90002949103109880907080B2849B1F8141879
:103AA0000843704700BF2448001D008810F0200F15
:103AB000F9D070472048001D00884FF6F771084084
:103AC0001E49A1F8040800BF1B48001D008810F023
:103AD000080FF9D0704701460020174A121D1288BE
:103AE0000A4201D0012000E0002070471249091D60
:103AF0000988C24392B21140104AA2F804187047D4
:103B0000014600200C4A121D12880A40D0B20B4A0E
:103B1000B2F800280A4202D008B1012000E00020DB
:103B200070470549091D0988C24392B21140034AF2
:103B3000A2F8041870470000002800400020004050
:103B4000042808D14FF0E021096941F004014FF049
:103B5000E022116107E04FF0E021096921F0040142
:103B60004FF0E022116170474FF0E021486170474B
:103B7000012808D14FF0E021096941F001014FF01F
:103B8000E02211610EE0811C08D14FF0E0210969AB
:103B900021F001014FF0E022116103E000214FF01C
:103BA000E0229161704740B14FF0E021096941F096
:103BB00002014FF0E022116107E04FF0E0210969B6
:103BC00021F002014FF0E022116170474FF0E02038
:103BD0008069704710B50146002200230020CB10F9
:103BE000022B03D14FF0E024226902E04FF0E024E1
:103BF000E26901248C40144201D0012000E0002041
:103C000010BD000010B50446F849601A8C4245D03A
:103C10000CDCB4F1804F1DD0F548201823D0B0F54E
:103C2000806F29D0B0F5006F54D12EE0B0F5806FD1
:103C30003DD0B0F58E3F03D0B0F5923F4AD13FE082
:103C40000121C802FFF780FE00214FF40060FFF75A
:103C50007BFE40E001210846FFF783FE00210120A2
:103C6000FFF77FFE37E001210220FFF77AFE0021F7
:103C70000220FFF776FE2EE001210420FFF771FEFF
:103C800000210420FFF76DFE25E001210820FFF749
:103C900068FE00210820FFF764FE1CE001211020CF
:103CA000FFF75FFE00211020FFF75BFE13E001210C
:103CB0002020FFF756FE00212020FFF752FE0AE0E9
:103CC00001214803FFF740FE00214FF40050FFF7A9
:103CD0003BFE00E000BF00BF10BD028802F08F0273
:103CE0000280CA884B881A4303881A4302808A8854
:103CF00082850A88028501228282BE4A904202D0D1
:103D0000BD4A904201D10A7A0286704770B50022FE
:103D100000230024058C4FF6FE7635400584038C85
:103D20008488028B4FF68F752A400D882A43751EB2
:103D30002B400D892B434D882B43CD888586AD4D77
:103D4000A84202D0AC4DA84213D14FF6F7752B40D4
:103D50004D892B434FF6FB752B408D882B4347F63F
:103D6000FF652C4047F6FF552C408D892C43CD89AB
:103D70002C4384800283038470BD70B5002200232D
:103D80000024058C4FF6EF7635400584038C84883B
:103D9000028B48F6FF752A400D882D0642EA15422F
:103DA0004FF6DF752B400D892D0543EA15434D88ED
:103DB0002D0543EA1543CD8805878E4DA84202D0D4
:103DC0008D4DA8421BD14FF67F752B404D892D0597
:103DD00043EA15434FF6BF752B408D882D0543EA06
:103DE000154347F6FF352C4047F2FF752C408D896F
:103DF000AD0444EA1544CD89AD0444EA15448480F9
:103E00000283038470BD70B5002200230024058C5A
:103E10004FF6FF6635400584038C8488828B4FF60D
:103E20008F752A400D882A434FF6FF552B400D8988
:103E30002D0643EA15434D882D0643EA1543CD88E8
:103E400085876C4DA84202D06B4DA8421BD14FF222
:103E5000FF752B404D892D0643EA15434FF6FF357C
:103E60002B408D882D0643EA154346F6FF752C40FE
:103E700045F6FF752C408D892D0544EA1544CD8902
:103E80002D0544EA154484808283038470BD70B597
:103E9000002200230024058C4EF6FF763540058471
:103EA000038C8488828B48F6FF752A400D882D0686
:103EB00042EA15424DF6FF752B400D892D0743EA66
:103EC00015434D882D0743EA1543CD88A0F840508F
:103ED000484DA84202D0484DA84205D1C4F30D0474
:103EE0008D89AD0544EA154484808283038470BDC6
:103EF000828B4FF2FF331A408283828B0B0642EA99
:103F0000134282837047F0B5002400250026078CF9
:103F10004EF6FF7C07EA0C070784848B058C0F079D
:103F20003E0C40F6FF473C4017063F0C4FEA037C2F
:103F300047EA1C473C434DF6FF773D4046F4805727
:103F40003D4384830584F0BD828B4FF6F3731A40A2
:103F50008283828B0A4382837047F0B50024002558
:103F60000026078C4FF6FF6C07EA0C070784848B4A
:103F7000058C0F063E0C4FF60C773C401F0542EABD
:103F800017473C434FF6FF573D4046F480773D438B
:103F900084830584F0BD028B4FF2FF331A40028305
:103FA000028B0B0642EA134202837047F0B50024ED
:103FB00000250026078C4FF6EF7C07EA0C070784E4
:103FC000048B058C0F053E0C40F6FF473C401F0755
:103FD00044EA1744170644EA17444FF6DF773D409A
:103FE00046F010073D4304830584F0BD00100040F7
:103FF00000FCFFBF002C014000340140028B4FF653
:10400000F3731A400283028B0A4302837047F0B5B0
:1040100000240025068C4FF6FE773E400684048B74
:10402000058C4FF60C7634401E0542EA16463443A2
:104030007E1E354041F00106354304830584F0BD02
:1040400070B504460D46288850B92B89AA8869881E
:104050002046FFF7DCFFE9882046FFF7CFFF25E089
:10406000288804280AD12B89AA8869882046FFF766
:104070009DFFE9882046FFF78EFF17E02888082873
:104080000AD12B89AA8869882046FFF766FFE9884C
:104090002046FFF759FF09E02B89AA886988204646
:1040A000FFF731FFE9882046FFF722FF70BD2DE9B9
:1040B000F04104460D4600260127688808B902260B
:1040C00000E00026A888012801D1022700E001278E
:1040D0002888A0B92B89AA8869882046FFF797FF0E
:1040E000E9882046FFF78AFF2B893A463146204669
:1040F000FFF75CFFE9882046FFF74DFF13E02B89AF
:10410000AA8869882046FFF751FFE9882046FFF713
:1041100042FF2B893A4631462046FFF778FFE9886F
:104120002046FFF76BFFBDE8F0810A884B881A43F1
:104130008B881A43CB881A430B891A434B891A433D
:104140008B891A43A0F8442070474FF6FF71818095
:1041500000210180C18041800172704700210180EF
:1041600041808180C180018141818181C18170470D
:10417000002101804180012181800021C1800181D5
:1041800070470021018041808180C180018141818F
:104190008181704721B1028842F00102028004E06F
:1041A000028840F2FE331A400280704731B1B0F805
:1041B000442042F40042A0F8442005E0B0F8442036
:1041C000C2F30E02A0F84420704710B51AB18389DB
:1041D0000B43838104E08389CC43A4B223408381D1
:1041E00010BD8182704741EA0203A0F84830704751
:1041F00010B51AB183890B43838104E08389CC43D2
:10420000A4B22340838110BD01894FF6F87211409A
:1042100001817047002202894FF68F731A400A43CA
:104220000281704730B504460D4629462046FFF707
:10423000F1FF208940F00700208130BD2DE9F041D9
:1042400004460D4616461F46602D06D13B46012208
:1042500031462046FFF7AAFE05E03B4601223146E3
:104260002046FFF7D4FE29462046FFF7D3FF2089DA
:1042700040F007002081BDE8F08170B5002404897A
:10428000E4B241EA02051E0645EA16452C430481C4
:1042900070BD2DE9F04104460D46164698460027AC
:1042A0004346324629462046FFF7E7FF27894FF667
:1042B000F870074047F007074FF68F70074047F048
:1042C00070072781BDE8F081F0B504460D4616461B
:1042D0001F463B46324629462046FFF7CEFF20893F
:1042E00040F480402081F0BD018582827047002229
:1042F000028840F28F331A400A4302807047F0B5BB
:104300000024002500260489058B068C4FF6F877DB
:104310003C400C434FF6FC473D4040F201173D4303
:104320004FF6DD773E401F0542EA17473E430481C2
:1043300005830684F0BD0022028B4FF68F731A406E
:104340000A43028370470022028B48F6FF731A402B
:104350000B0642EA1342028370470022828B4FF61B
:104360008F731A400A43828370470022828B48F67B
:10437000FF731A400B0642EA13428283704721B151
:10438000028842F08002028004E0028840F27F331B
:104390001A400280704721B1828842F00402828074
:1043A00004E082884FF6FB731A408280704721B187
:1043B000828842F00802828004E082884FF6F77318
:1043C0001A408280704721B1828842F001028280C7
:1043D00004E082884FF6FE731A4082807047002204
:1043E000028B4FF6F7731A400A430283704700228C
:1043F000028B4FF2FF731A400B0642EA134202830C
:1044000070470022828B4FF6F7731A400A4382836B
:1044100070470022828B4FF2FF731A400B0642EA6C
:104420001342828370470022028B4FF6FB731A40BF
:104430000A43028370470022028B4FF6FF331A4073
:104440000B0642EA1342028370470022828B4FF62A
:10445000FB731A400A43828370470022828B4FF617
:10446000FF331A400B0642EA134282837047002250
:10447000028B4FF67F731A400A4302837047002273
:10448000028BC2F30E020B0642EA1342028370470C
:104490000022828B4FF67F731A400A438283704753
:1044A0000022828BC2F30E020B0642EA1342828381
:1044B00070470022028C4FF6FD731A400A430284B3
:1044C00070470022028C4FF6F7731A400A430284A9
:1044D00070470022028C4FF6DF731A400B0542EA48
:1044E0001342028470470022028C4FF67F731A40F9
:1044F0000B0542EA1342028470470022028C4FF6F9
:10450000FF531A400B0642EA13420284704700220E
:10451000028C4FF2FF731A400B0642EA13420284E8
:1045200070470022028C4DF6FF731A400B0742EAD7
:1045300013420284704710B5038C01248C40E4437D
:10454000A4B223400384038C02FA01F4A4B22343EF
:10455000038410BD10B5038C04248C40E443A4B242
:1045600023400384038C02FA01F4A4B2234303849E
:1045700010BD30B5048C01238B40DB439BB21C4043
:10458000048409B1082912D100F1180303EB610377
:104590001C684FF68F731C4000F1180303EB610396
:1045A0001C6000F1180303EB61031A6019E00B1F94
:1045B0009CB200F1180303EB64031C6848F6FF7318
:1045C0001C400B1F9DB200F1180303EB65031C6038
:1045D00013061C0C0B1F9DB200F1180303EB6503BF
:1045E0001C6030BD21B1028842F00202028004E06A
:1045F000028840F2FD331A400280704721B10288E0
:1046000042F00402028004E0028840F2FB331A40C8
:104610000280704721B1828842F08002828004E0EB
:1046200082884FF67F731A4082807047028840F27A
:10463000F7331A40028002880A430280704782885A
:104640004FF68F731A40828082880A4382807047B7
:1046500002894FF6F8731A40028102890A430281E7
:10466000704702894FF67F731A40028102890A431C
:1046700002817047818470478185704781867047C9
:104680000187704781877047A0F840107047028803
:10469000D2B2028002880A43028070470146888EA7
:1046A00070470146088F70470146888F7047014662
:1046B000B1F8400070470146888C70470146088D6C
:1046C000704702460020138A0B4201D0012000E00F
:1046D00000207047CA430282704730B5024600206E
:1046E00000230024158A05EA0103958905EA0104DF
:1046F00013B10CB1012000E0002030BDCA4302829A
:104700007047000010B50446D749601A8C422BD080
:1047100006DCD648201813D0B0F5806F38D119E0E8
:10472000B0F5806F2AD0B0F56C4F31D101218803EC
:10473000FFF70AF900214FF48040FFF705F928E060
:1047400001214804FFF70DF900214FF40030FFF775
:1047500008F91EE001218804FFF703F900214FF456
:104760008020FFF7FEF814E00121C804FFF7F9F8F4
:1047700000214FF40020FFF7F4F80AE001210805BA
:10478000FFF7EFF800214FF48010FFF7EAF800E0A0
:1047900000BF00BF10BD2DE9F04786B004460D46AE
:1047A0000026002700BF00BFB246A246268A4CF66C
:1047B000FF700640E88806432682A6894EF6F3106D
:1047C0000640A88829890843698908430643A681C9
:1047D000A68A4FF6FF400640A8890643A68201A894
:1047E000FFF72AF85446A248824501D1049F00E011
:1047F000039F07EBC70000EB071029688900B0FB97
:10480000F1F86420B8FBF0F006013009642101FBE7
:104810001089322101EB09106421B0FBF1F000F0A6
:104820000F000643268106B0BDE8F0874FF416510D
:10483000016000218180C18001810C214181002122
:104840008181704710B50022028A4FF2FF031A409F
:104850000B884C8823438C882343CC8823431A43FA
:10486000028210BD0021018041808180C18070479B
:1048700021B1828942F40052828104E082894DF69E
:10488000FF731A4082817047F0B50024002500268E
:1048900000230346C1F3421401F01F05012707FA64
:1048A00005F6012C01D10C3304E0022C01D11033A8
:1048B00000E014331AB11F6837431F6002E01F681D
:1048C000B7431F60F0BD10B51AB1838A0B438382D2
:1048D00004E0838ACC43A4B22340838210BD028AC1
:1048E0004FF6F0731A400282028A0A43028270472E
:1048F00082894FF2FF731A40828182890A43828142
:10490000704721B1828942F00202828104E08289EB
:104910004FF6FD731A4082817047028A4FF6DF73AB
:104920001A400282028A0A430282704721B1028A37
:1049300042F48042028204E0028A4BF6FF731A407E
:1049400002827047C1F3080282807047014688885E
:10495000C0F308007047818941F0010181817047EF
:10496000028BD2B20283028B42EA01220283704799
:10497000028B02F47F420283028B0A430283704758
:1049800021B1828A42F02002828204E0828A4FF6BC
:10499000DF731A408282704721B1828A42F010028E
:1049A000828204E0828A4FF6EF731A408282704757
:1049B00021B1828A42F00802828204E0828A4FF6A4
:1049C000F7731A4082827047828A4FF6FB731A404F
:1049D0008282828A0A438282704721B1828A42F0AF
:1049E0000202828204E0828A4FF6FD731A408282BC
:1049F00070470246002013880B4201D0012000E0DE
:104A000000207047CA430280704770B502460023F9
:104A1000002400250020C1F3421501F01F040126E7
:104A200006FA04F4012D02D19689344006E0022DE5
:104A300002D1168A344001E0968A34400B120126D6
:104A400006FA03F31688334014B10BB1012000E0DD
:104A5000002070BD10B5002200230A1201249440EA
:104A6000A3B2DC43048010BD004C004000BCFFBF7B
:104A70000038014070B50446A4F12000C4B20025FE
:104A80000AE004EB4401A14A02EB4101485D012127
:104A900002F0E7FD681CC5B2062DF2DB70BD10B553
:104AA000044603E02078FFF7E5FF641C2078002827
:104AB000F8D110BD70B504460E4615463146204665
:104AC00002F010FE03E02878FFF7D4FF6D1C287871
:104AD0000028F8D170BD10B5024600248C4B08E0C8
:104AE000187E18B9587E08B9002010BD601CC4B2E9
:104AF0001A33187E9042F3D1587E8842F0D1204676
:104B0000F3E72DE9F04704460D4616463BE096F8DC
:104B10000090761C96F800A0761C51464846FFF798
:104B2000DAFF00EB800101EBC000794901EB40079F
:104B30002946204602F0D6FD4FF0000808E017F89D
:104B40000800012102F08DFD08F1010000F0FF08CE
:104B5000B8F10C0FF3DB681CC1B2204602F0C2FDB5
:104B60004FF0000809E008F10C01785C012102F027
:104B700078FD08F1010000F0FF08B8F10C0FF2DB3E
:104B800004F10D00C4B230780028C0D1BDE8F08730
:104B9000F0B5542800DDF0BD302900DDFBE70D46FF
:104BA000CF1701EB5777FC10CF1701EB5777FF10AA
:104BB000A1EBC707FEB2C4EBC40505EB4505554F95
:104BC00007EB85052B5C1AB90125B540AB430CE01A
:104BD000012A04D10125B5401D43EBB205E0022AAC
:104BE00003D10125B5405D40EBB2C4EBC40505EB34
:104BF0004505484F07EB85052B54CCE72DE9F84FC9
:104C000004460D4616461F46B44202D14FF0000836
:104C100010E0BD4202D14FF001080BE0B44209D0D0
:104C2000BD4207D04FF00208781B311B90FBF1F01A
:104C300000F0FF0BB8F1000F06D0B8F1010F11D052
:104C4000B8F1020F42D11BE0AA4608E0012251460A
:104C50002046FFF79DFF0AF1010000F0FF0ABA4568
:104C6000F4DB33E0A14608E0012229464846FFF77D
:104C70008FFF09F1010000F0FF09B145F4DB25E0E9
:104C8000A14620E0BBF1000F10D1781B64214843FE
:104C9000311B90FBF1F0C0B20090009800FB09F0CE
:104CA000642190FBF1F000F0FF0A03E00BFB09F038
:104CB00000F0FF0A012251464846FFF769FF09F15B
:104CC000010000F0FF09B145DCDB00BF00BFBDE81B
:104CD000F88F70B50021084602F004FD002412E0B0
:104CE00000250CE0C4EBC40101EB4101094A02EBD1
:104CF0008101485D012102F0B4FC681CC5B2542D4D
:104D0000F0DB601CC4B2062CEADB70BDB9000020E9
:104D1000D0A6000854030020F9480068704700211D
:104D2000014600E0491E0029FCD1704705E04621FC
:104D300000BF0A00A1F10101FBD10200A0F10100B6
:104D4000F5D1704700B585B04FF48060ADF8000034
:104D500004208DF803006946EA48FDF7D9FE4FF4B8
:104D60000060ADF800006946E748FDF7D1FE4FF45A
:104D70000070ADF8000003208DF8020018208DF8B7
:104D800003006946DF48FDF7C3FE4FF48060ADF8CD
:104D900000006946DC48FDF7BBFE4FF4E1300190AE
:104DA0000020ADF80800ADF80A00ADF80C00ADF831
:104DB00010000C20ADF80E0001A9D448FFF7EBFC61
:104DC00001A9D348FFF7E7FC0021D048FFF750FDC9
:104DD0000021CF48FFF74CFD00214FF48040FEF743
:104DE00099FD00210120FEF795FD00214FF40020E0
:104DF000FEF79DFD05B000BD10B5FEF71FFC4FF49A
:104E00008030FEF73AFCFEF777FC0446012C28D1EF
:104E10001020FDF793FB0220FDF77AFB0020FEF740
:104E2000B1FC0020FEF7BEFC4FF4A060FEF7B2FC20
:104E3000A003FEF7D3FC4FF4E0112004FEF787FC3B
:104E40000120FEF78FFC00BF3920FEF739FC002857
:104E5000FAD00220FEF789FC00BFFEF78EFC08287E
:104E6000FBD101210846FEF762FD01210220FEF779
:104E70005EFD01210420FEF74DFD01210820FEF713
:104E800049FD01211020FEF745FD01212020FEF7FC
:104E900041FD01214020FEF73DFD01210846FEF7BE
:104EA00039FD10BD08B501219A48FDF7FBFE4FF40E
:104EB0008050ADF8000010208DF8030003208DF81D
:104EC000020069469448FDF723FE01210220FEF707
:104ED0002EFD01211120FEF71DFD01218F48FDF758
:104EE000E1FE4FF47070ADF8000018208DF803005B
:104EF00003208DF8020069468348FDF709FE40F65D
:104F0000C800ADF8000010208DF803006946844801
:104F1000FDF7FEFDFF20ADF8000028208DF803000E
:104F200069467848FDF7F4FD0320ADF8000028201D
:104F30008DF8030069467848FDF7EAFD3F20ADF89B
:104F4000000028208DF8030069466F48FDF7E0FD5A
:104F50004FF46040ADF8000048208DF8030069462A
:104F60006948FDF7D5FD7C20ADF8000048208DF89C
:104F7000030069466B48FDF7CBFD4FF47E70ADF83A
:104F8000000048208DF8030069466348FDF7C0FD26
:104F90004FF40050ADF8000048208DF8030069463A
:104FA0005F48FDF7B5FD4FF48050ADF80000482094
:104FB0008DF8030069465A48FDF7AAFD4FF460409A
:104FC000ADF8000048208DF8030069465248FDF70F
:104FD0009FFD4FF40140ADF8000010208DF8030054
:104FE00069464848FDF794FD1020ADF800008DF8A3
:104FF000030069464A48FDF78BFD4FF4E060ADF8C9
:10500000000010208DF8030069464548FDF780FD3B
:1050100008BD08B500214FF00060FEF7B4F91C2070
:105020008DF8000000208DF8010001208DF80200AD
:105030008DF803006846FEF7F4F834208DF8000080
:1050400001208DF801008DF802008DF803006846FC
:10505000FEF7E7F84FF4E060FEF7DDF803208DF887
:10506000000001208DF8010000208DF802000120D1
:105070008DF803006846FEF7D4F808BD10B504208B
:10508000FEF75EFD2848FEF76FFD0120FEF78BFD61
:1050900000202649087048708870C8700120FEF70B
:1050A00067FD10BD2249086000BF21490968002939
:1050B000FBD170471E48006820B11D480068401EA3
:1050C0001B490860704770B504460D46B4F5FA7F79
:1050D00002DA4FF4FA7404E041F28830844200DDD1
:1050E0000446144890FBF4F0134948800846418870
:1050F0001248FFF7C1FA10480480057170BD000026
:10510000E802002000080140001001400038014082
:10511000004C004000023000000C0140000C1A005E
:105120000014014000180140401901003003002024
:10513000E402002080EE36004C0500200004004010
:1051400010B5642800DD6420642900DD6421642A30
:1051500000DD6422642B00DD6423FF4CA0716172CA
:105160002273E37310BD38B50446002C2DDD032CEB
:105170002BDA012C02D0022C26D112E00121F748B3
:10518000FDF790FD4FF47070ADF8000018208DF819
:10519000030003208DF802006946F148FDF7B8FCD2
:1051A00012E00021ED48FDF77DFD4FF47070ADF881
:1051B000000010208DF8030003208DF802006946DE
:1051C000E748FDF7A5FC00BF00BF38BD10B50220C1
:1051D000FFF7C9FF00224021E148FDF744FD00220E
:1051E0008021DF48FDF73FFD00224FF48071DC484D
:1051F000FDF739FD00224FF40071D948FDF733FD6A
:1052000010BD7FB5044604F00F06042E3BDA2020C3
:10521000ADF800000120ADF802000020ADF8060056
:105220000420ADF804000220ADF808000020ADF81D
:105230000A004FF48070ADF80C000020ADF80E00AD
:1052400036B1012E0AD0022E0ED0032E1AD112E052
:105250006946C448FEF75AFD402513E06946C14837
:10526000FEF78BFD80250DE06946BE48FEF7CBFDBD
:105270004FF4807506E06946BA48FEF708FE4FF421
:10528000007500BF00BF01222946B548FDF7EBFCC1
:105290007FBD10B50020FFF7B4FF0120FFF7B1FF7D
:1052A0000220FFF7AEFF0320FFF7ABFF10BD10B5E4
:1052B000FFF7EFFF10BD2DE9F04786B004460D461D
:1052C00004F00F08A946B8F1040F79DA6020ADF8B0
:1052D00008000120ADF80A000020ADF80E000420FF
:1052E000ADF80C000220ADF810000020ADF812005F
:1052F0004FF48070ADF814000020ADF816000120C6
:10530000FFF731FF01219748FEF744FF012195483F
:10531000FEF74CFF012090494874B8F1000F09D006
:10532000B8F1010F12D0B8F1020F1CD0B8F1030F81
:1053300033D124E003228849491D01A802F0A2FECE
:10534000082702A98748FEF7E1FC26E08248018988
:10535000ADF804104089ADF80600402702A9814845
:10536000FEF70BFD19E003227B490B3101A802F087
:1053700089FE802702A97B48FEF745FD0DE07648AF
:10538000C189ADF80410008AADF806004FF400673B
:1053900002A97448FEF77BFD00BF00BFB9F1640F9E
:1053A00002DD4FF0640904E019F1640F01DA6FF0D7
:1053B00063098DF80490B9F1000F02DB484602E062
:1053C0006FE0C9F10000C6B29DF80500704364218A
:1053D00090FBF1F0C6B2604890F90400B04201DAE7
:1053E0005D480679B9F1000F03D14046FFF709FF88
:1053F00041E0B8F1000F09D0B8F1010F13D0B8F1B6
:10540000020F1DD0B8F1030F34D126E05248408876
:105410007043642190FBF1F01FFA80FA5146514825
:10542000FFF72CF926E04C4840887043642190FB3C
:10543000F1F01FFA80FA51464A48FFF721F919E0C6
:10544000454840887043642190FBF1F01FFA80FAD0
:1054500051464448FFF716F90CE03F484088704336
:10546000642190FBF1F01FFA80FA51463D48FFF7A6
:105470000BF900BF00BF9DF90400002808DB70B2E3
:105480008DF80600012239463748FDF7ECFB08E0AD
:10549000704240B28DF80600002239463248FDF7CE
:1054A000E2FB06B0BDE8F0872DE9F04104460D4669
:1054B00016461F46DDF8188014F0010F03D0294668
:1054C0000020FFF7F8FE14F0100F03D03146012042
:1054D000FFF7F1FE14F4807F03D039460220FFF776
:1054E000EAFE14F4805F03D041460320FFF7E3FE99
:1054F000BDE8F08100B587B001210220FEF717FA60
:1055000001211120FEF706FA0020ADF81600ADF8D3
:1055100012008DF818000920ADF8100042F20F704B
:10552000ADF8140004A90F48FEF7D7FB6020ADF8D2
:1055300000000120ADF802000020ADF806000420B4
:10554000ADF804000220ADF808000020ADF80A0014
:105550004FF480700AE000004C050020000C1A0097
:10556000001001400004004000140140ADF80C00A0
:105570000020ADF80E006946F848FEF7C7FB694603
:10558000F648FEF7FAFB6946F448FEF73CFC69462C
:10559000F248FEF77CFC0121F048FEF7F0FE4FF4E4
:1055A0007A70EF4908804FF4616048806420087188
:1055B0000020487448716421E94881710021C1715B
:1055C0000020E74908726421E54841720021817298
:1055D0000020E349C8726421E1480173002141734E
:1055E0000020DF4988736421DD48C1730021017404
:1055F000DA48FEF7CFFDFFF7E9FD0120FFF7B3FD25
:1056000064214FF47A70FFF75EFD5F231A46194656
:105610001846FFF795FDFFF73CFE07B000BD10B53B
:105620000346002213E0082A07DA940041FA04F442
:1056300004F00300CB4CA05408E0A2F10804A4003D
:1056400041FA04F404F00300C64CA054521C102A82
:10565000E9DB10BDF8B504460D46102C57DA032DD2
:1056600055DA102C3BD2DFE804F0080C10131619A1
:105670001C1F2225282B2E313437BB4E4FF40047F8
:105680002DE0B94E4FF4804729E0B74E771426E05D
:10569000B64E402723E0B54E202720E0B34E10271A
:1056A0001DE0B24E08271AE0B04E042717E0B04EB6
:1056B000082714E0AE4E102711E0AD4E20270EE073
:1056C000AB4E40270BE0AA4E802708E0A84EB71546
:1056D00005E0A74E771502E0A64E771400BF00BF85
:1056E000A0480555ADF800701DB948208DF803009D
:1056F00006E0012D01D0022D02D110208DF803000B
:1057000003208DF8020069463046FDF701FAF8BD26
:1057100010B500240BE0102C04DA0021E0B2FFF7F2
:1057200099FF03E00121E0B2FFF794FF641C102C05
:10573000F1DB10BD7FB50446204604F081FCCDE9C5
:1057400002018DA00CC8029804F0ACF9CDE900016B
:1057500004F01AF90546FFF7A5FC7FBD2DE9F041DD
:1057600004468027142C5FDA102C09DA7D48005D8E
:1057700030B100212046FFF76DFF8148FFF7DAFFC7
:10578000142C4BD2DFE804F00A0E1215181B1E2150
:1057900024272A2D303336393C3F4246724D4FF490
:1057A00000463BE0704D4FF4804637E06E4D6E147E
:1057B00034E06E4D402631E06C4D20262EE06B4DDE
:1057C00010262BE0694D082628E0684D042625E0C8
:1057D000674D082622E0664D10261FE0644D202606
:1057E0001CE0634D402619E0614D802616E0604DB7
:1057F000AE1513E05E4D6E1510E05E4D6E140DE0BB
:105800005C4DAE140AE05A4D6E1407E0584D4FF44B
:10581000804603E0564D4FF4004600BF00BF3146BE
:105820002846FDF702FA07463846BDE8F0812DE923
:10583000F04704460D462646A9463446172E62DA3E
:10584000B9F1020FFBDA102E06DA4648805D18B96E
:1058500001213046FFF7FEFE102E49D2DFE806F0A8
:10586000080C1014181C2024282C3034383C4044D8
:105870003D4F4FF400483BE03B4F4FF4804837E04A
:10588000394F4FF4005833E0384F4FF040082FE0C5
:10589000364F4FF020082BE0344F4FF0100827E030
:1058A000324F4FF0080823E0304F4FF004081FE05C
:1058B0002F4F4FF008081BE02D4F4FF0100817E056
:1058C0002B4F4FF0200813E0294F4FF040080FE016
:1058D000274F4FF080080BE0254F4FF4807807E00A
:1058E000234F4FF4007803E0224F4FF4005800BFDD
:1058F00000BF102E0EDAB9F1000F05D1002241468B
:105900003846FDF7B0F997E0012241463846FDF7E9
:10591000AAF991E0102E0ED1B9F1000F05D10022A5
:1059200031021348FDF79FF986E001221103104868
:10593000FDF799F980E0112E26D1B9F1000F06D1BB
:1059400000224FF400410F48FDF78DF974E0012269
:10595000D1030C48FDF787F96EE000000004004019
:105960004C050020CE050020001001400018014029
:10597000000C0140001401400000000000408F4076
:105980000AD7A33B00080140122E0ED1B9F1000F37
:1059900005D100221021FC48FDF765F94CE00122F9
:1059A0001021F948FDF75FF946E0132E0FD1B9F148
:1059B000000F06D100224FF48071F448FDF753F92F
:1059C0003AE001221102F148FDF74DF934E0142EBE
:1059D0000FD1B9F1000F06D100224FF48061EA48DF
:1059E000FDF741F928E001229102E748FDF73BF974
:1059F00022E0152E0FD1B9F1000F06D100224FF48D
:105A00000071E148FDF72FF916E001225102DE484E
:105A1000FDF729F910E0162E0ED1B9F1000F06D1CD
:105A200000224FF48071D848FDF71DF904E00122EF
:105A30001102D548FDF717F9BDE8F08770B50446A7
:105A40000D46012C76D1082D74DA6DD2DFE805F011
:105A500004111E2B3845525F00211120FFF7E7FE8D
:105A600000211220FFF7E3FE00211320FFF7DFFEE5
:105A70005AE001211120FFF7DAFE00211220FFF782
:105A8000D6FE00211320FFF7D2FE4DE000211120A9
:105A9000FFF7CDFE01211220FFF7C9FE00211320E0
:105AA000FFF7C5FE40E001211120FFF7C0FE0121F4
:105AB0001220FFF7BCFE00211320FFF7B8FE33E0F1
:105AC00000211120FFF7B3FE00211220FFF7AFFEE7
:105AD00001211320FFF7ABFE26E001211120FFF783
