:020000040800F2
:1000000078170020DD2500083102000833020008BF
:10001000370200083B0200083F0200080000000011
:100020000000000000000000000000004502000881
:1000300043020008000000004702000849020008CF
:100040005B0200085D0200085F0200086102000810
:100050009302000895020008970200089902000820
:100060009B0200089D0200089F020008A1020008F0
:10007000A3020008A5020008A7020008A9020008C0
:10008000AB020008AD020008AF020008B102000890
:10009000B3020008B5020008B7020008B902000860
:1000A000BB020008BD020008BF020008C102000830
:1000B000C3020008DD020008DF020008B3030008E5
:1000C000B5030008B7030008B9030008BB03000824
:1000D000BD030008BF030008C1030008C3030008F4
:1000E000C5030008C7030008C9030008CB030008C4
:1000F000CD030008CF030008D1030008D303000894
:10010000D5030008D7030008D9030008DB03000863
:10011000DD0300080F0400081104000813040008A0
:100120001504000817040008190400081B0400083F
:1001300000F002F800F06FF80AA090E8000C82448A
:100140008344AAF10107DA4501D100F064F8AFF267
:10015000090EBAE80F0013F0010F18BFFB1A43F0A5
:10016000010318471CB600003CB600000A444FF0DB
:10017000000C10F8013B13F0070408BF10F8014B06
:100180001D1108BF10F8015B641E05D010F8016B4B
:10019000641E01F8016BF9D113F0080F1EBF10F8AF
:1001A000014BAD1C0C1B09D16D1E58BF01F801CBD2
:1001B000FAD505E014F8016B01F8016B6D1EF9D555
:1001C0009142D6D37047000000230024002500266A
:1001D000103A28BF78C1FBD8520728BF30C148BFAA
:1001E0000B60704766290AF08684642908F0C48190
:1001F000782908F0F981002070471FB5AFF300801F
:1002000008F064FD04000020002109F09BFAE06082
:100210001FBD10B510BD08F04FFE1146FFF7EDFFF2
:1002200007F0F1FD08F06DFEFFF7F3FF08F0B0FEF8
:10023000704700BFFEE700BFFEE700BFFEE700BF5C
:10024000FEE770477047704710B505F013FA734822
:100250000068401C7149086010BD704770477047C6
:1002600010B5012003F02CFF90B1012003F039FFFD
:100270006B4800686B49086003F0F4FE03F0B2FEBF
:100280006949884204D3002003F0B6FE03F0EAFE79
:1002900010BD704770477047704770477047704790
:1002A0007047704770477047704770477047704796
:1002B0007047704770477047704770477047704786
:1002C000704710B50221480704F0E7FC28B102216D
:1002D000480704F0F3FC07F038F810BD704710B57C
:1002E0000221524804F0D9FC00B302214F4804F027
:1002F000E5FC4F480068401C4D4908604D480088A7
:10030000B0F57A7F03DB40F2E9304A49088047487C
:1003100004F0A4FC4849088008460088474A12882F
:10032000104481B2414804F089FC41E004213F4877
:1003300004F0B3FC90B104213C4804F0BFFC3B48FE
:1003400004F08FFC3C490880084600883C4A12882B
:10035000104481B2354804F073FC29E00821334889
:1003600004F09BFC90B10821304804F0A7FC2F4812
:1003700004F07AFC3049088008460088314A128827
:10038000104481B2294804F05DFC11E01021274897
:1003900004F094FC254804F06AFC274908800846CC
:1003A0000088294A1288104481B2204804F04CFC8D
:1003B00010BD70477047704770477047704770476F
:1003C0007047704770477047704770477047704775
:1003D00070477047704770477047704710B540F2DC
:1003E00025511A4804F0F1FD80B119480068401CFD
:1003F00017490860012017490870144804F086FD69
:10040000C4B21548047060001449088010BD7047DC
:10041000704770477047704770477047E002002090
:100420003C030020480300207F51010000080040E9
:10043000100300200C030020000000200403002013
:1004400006030020080300200A030020004C00409F
:10045000140300202D0300202C030020E8020020BC
:100460002DE9F04F97B000BF07F0E6FA50E007F033
:1004700027FC07F0B4FA04460346FFA2012100203E
:1004800006F0B6FB07F09CFA04460346FDA20221E3
:10049000002006F0ADFB002005F06BFF044603468C
:1004A000FBA20321002006F0A3FB012005F061FF61
:1004B00004460346F8A203213C2006F099FB0220E3
:1004C00005F057FF04460346F4A20421002006F07D
:1004D0008FFB032005F04DFF04460346EEA20421E6
:1004E0003C2006F085FB06F0F1FE04460346EDA233
:1004F0000521002006F07CFBEC4805F0FBFB00200A
:1005000007F0CCF8012803D1E94805F0F3FB00E03F
:10051000ADE700BF07F090FA07F0D2FBE5A006F0C8
:1005200085FA07F08DFA16905EE0E14805F0E2FBEF
:100530000020E34908604EE00020E24908603BE00B
:10054000E148006878B9E1480068401CDF4908606C
:10055000DF4805F0CFFBDD480068642815D1012095
:10056000D949086011E0D848006801280DD1D74862
:100570000068401ED5490860D54805F0BBFBD3484C
:100580000068643001D1D0490860D0480368CC4885
:100590000093D0A203210368002006F029FBCB487A
:1005A000006841B2C6480068C0B205F064F9C548A9
:1005B0000068401CC3490860C2480068B0F5C87FA5
:1005C00004DA002007F06AF80028B9D0BC480068B7
:1005D000401CBB490860BA480068042804DA0020BF
:1005E00007F05CF80028A7D0002007F057F8002893
:1005F0009BD005F03CF900BF002007F04FF8012820
:10060000FAD0B84805F076FB07F016FAA3E007F039
:1006100057FBB5A200211E2006F0EAFA102005F0D3
:10062000A8FE044603469CA20121002006F0E0FA41
:10063000112005F09EFE0446034697A201211620D4
:1006400006F0D6FA122005F094FE0446034692A264
:1006500001212C2006F0CCFA132005F08AFE044676
:1006600003468DA20121422006F0C2FA142005F0B3
:1006700080FE0446034688A20221002006F0B8FA54
:10068000152005F076FE0446034683A202211620BB
:1006900006F0AEFA162005F06CFE044603467EA274
:1006A00002212C2006F0A4FA91A203211E2006F0BC
:1006B0009FFA172005F05DFE0446034676A204214A
:1006C000002006F095FA182005F053FE0446034674
:1006D00071A20421162006F08BFA192005F049FEBC
:1006E000044603466CA204212C2006F081FA1A204D
:1006F00005F03FFE0446034667A20421422006F0AF
:1007000077FA1B2005F035FE0446034662A2052158
:10071000002006F06DFA1C2005F02BFE044603466F
:100720005DA20521162006F063FA1D2005F021FECA
:100730000446034658A205212C2006F059FA5C48CD
:1007400005F0D8FA002006F0A9FF012803D1584887
:1007500005F0D0FA00E05AE700BF07F06DF9FDE0C0
:1007600007F0AEFA64A200211E2006F041FA002133
:10077000084601F0E9FC0446034647A20121002097
:1007800006F036FA0021012001F0DEFC04460346A3
:1007900041A20121162006F02BFA0021022001F0CF
:1007A000D3FC044603463CA201212C2006F020FA8B
:1007B0000021032001F0C8FC0446034636A20121B3
:1007C000422006F015FA0021042001F0BDFC044689
:1007D000034631A20221002006F00AFA002105207A
:1007E00001F0B2FC044603462BA20221162006F0BB
:1007F000FFF90021062001F0A7FC0446034626A2CB
:1008000002212C2006F0F4F93DA203211E2006F05F
:10081000EFF90021072001F097FC044603461EA2D1
:100820000421002006F0E4F90021082001F08CFCEE
:100830000446034618A20421162006F0D9F9002127
:10084000092001F081FC0446034613A204212C2058
:1008500006F0CEF900210A2001F076FC044603469A
:100860000DA20421422006F0C3F900210B2001F063
:100870006BFC0446034647E04559455F43483D2528
:10088000640000004559455F494E3D256400000065
:10089000414930313D25640025640000414932332F
:1008A0003D256400434F4D503D256400CDCCCC3DEB
:1008B000CDCC4C3E2020202020204D4F544F5200C4
:1008C0001400002010000020080000200C00002070
:1008D0000AD7233C4D4F543A2564202073703A25A3
:1008E00064200000CDCC4C3D45594530000000004F
:1008F0004559453100000000455945302D4D430014
:10090000455945312D4D4300AFF2740205210020B9
:1009100006F06EF900210C2001F016FC0446034697
:10092000AFF28C020521162006F062F900210D209D
:1009300001F00AFC04460346AFF2A40205212C2074
:1009400006F056F9FF4805F0D5F9002006F0A6FE9E
:10095000012803D1FB4805F0CDF900E000E700BF16
:1009600007F06AF8EBE007F0ABF9F7A200211E20D0
:1009700006F03EF91F2005F0FCFC04460346AFF2EA
:10098000E80200213C2006F033F9002005F0F1FCDC
:1009900004460346AFF200120121002006F028F9B8
:1009A000012005F0E6FC04460346AFF214120121D3
:1009B000162006F01DF9022005F0DBFC0446034674
:1009C000AFF22C1201212C2006F012F9032005F0C1
:1009D000D0FC04460346AFF240120121422006F04B
:1009E00007F9042005F0C5FC04460346AFF258128F
:1009F0000221002006F0FCF8052005F0BAFC0446B0
:100A00000346AFF26C120221162006F0F1F8062020
:100A100005F0AFFC04460346AFF2841202212C20FD
:100A200006F0E6F8072005F0A4FC04460346AFF202
:100A300098120221422006F0DBF8082005F099FC0C
:100A400004460346AFF2B0120321002006F0D0F8AE
:100A5000092005F08EFC04460346AFF2C4120321C0
:100A6000162006F0C5F80A2005F083FC044603466C
:100A7000AFF2DC1203212C2006F0BAF80B2005F0AF
:100A800078FC04460346AFF2F0120321422006F040
:100A9000AFF80C2005F06DFC04460346AFF20822C7
:100AA0000421002006F0A4F80D2005F062FC0446A5
:100AB0000346AFF21C220421162006F099F80E20FE
:100AC00005F057FC04460346AFF2342204212C20E3
:100AD00006F08EF80F2005F04CFC04460346AFF2FA
:100AE00048220421422006F083F81E2005F041FC34
:100AF00004460346AFF260220521002006F078F894
:100B000005F05AFE044609F02DFDCDE914018FA22F
:100B1000CDE9000105211E2006F06AF88DA205210D
:100B20004E2006F065F88D4805F0E4F8002006F048
:100B3000B5FD012803D1834805F0DCF800E012E799
:100B400000BF06F079FF62E007F0BAF80F2005F069
:100B5000E5F804460E2005F0E1F805460D2005F005
:100B6000DDF806460C2005F0D9F807460B2005F005
:100B7000D5F880460A2005F0D1F88146092005F015
:100B8000CDF88246082005F0C9F88346072005F015
:100B9000C5F81590062005F0C1F81490052005F061
:100BA000BDF81390042005F0B9F81290032005F069
:100BB000B5F81190022005F0B1F81090012005F071
:100BC000ADF80F90002005F0A9F8CDE905BACDE900
:100BD0000798CDE90976CDE90B540E9012A80FC8FD
:100BE000CDE90323CDE90101119B00935C480EA9D7
:100BF0000EC905F01BFF5B4805F07CF8002006F0ED
:100C00004DFD012803D14F4805F074F800E09BE743
:100C100000BF06F011FF07F053F853A005F006FFE0
:100C200064E007F04DF850A005F000FF51A201214B
:100C3000002005F0DDFF06F003FF169009E0002418
:100C400004E00121E0B205F0D2F8641C0F2CF8DDBD
:100C500000BF06F0F5FE0546169909F077FE04463A
:100C600009F080FCCDE9140144A00CC8149809F0E7
:100C700073F904D2002006F011FD0028DFD007F040
:100C80001FF839A005F0D2FE3EA20121002005F098
:100C9000AFFF06F0D5FE169009E0002404E0002125
:100CA000E0B205F0A4F8641C0F2CF8DD00BF06F0DC
:100CB000C7FE0546169909F049FE044609F052FCA4
:100CC000CDE914012DA00CC8149809F045F904D2FF
:100CD000002006F0E3FC0028DFD0002006F0DEFC58
:100CE000012803D1174805F005F800E099E700BF97
:100CF00006F0A2FE06F0E4FF24A005F097FEB4E0A3
:100D0000002405E064221E21E0B206F0ADFB641C65
:100D10000F2CF7DD06F0D4FF20A20021084605F0D5
:100D200067FF22A20221002005F062FF22A2042117
:100D3000002005F05DFF06F083FE169000BF06F070
:100D40007FFE3FE0CDCC4C3E41490000544550254C
:100D5000660000002020202020000000CDCCCC3DEB
:100D600090AB00080AD7233C202020202020444FAD
:100D700000000000444F20204F4E200000000000E3
:100D80000000E03F444F20204F4646002020202016
:100D90002020534552564F204D4F5400414C4C207B
:100DA00053455256204D4F54200000006465677231
:100DB0006565202033300000207370656564203144
:100DC000303000000546169909F0C0FD044609F0D0
:100DD000C9FBCDE9140148A00CC8149809F0BCF86F
:100DE00004D2002006F05AFC0028A8D0002405E018
:100DF0003C22A021E0B206F037FB641C0F2CF7DD8B
:100E000006F05EFFAFF26C020021084605F0F0FE2E
:100E10003BA20221002005F0EBFE3CA204210020B1
:100E200005F0E6FE06F00CFE169000BF06F008FE88
:100E30000546169909F08AFD044609F093FBCDE9B1
:100E4000140135A00CC8149809F086F804D20020CB
:100E500006F024FC0028E9D0002006F01FFC012841
:100E600003D12F4804F046FF00E049E700BF06F039
:100E7000E3FD2DE006F024FF002006F0F6FB04461B
:100E8000014628A005F0D2FD0121002006F00AFF4E
:100E9000012006F0EAFB0446014625A005F0C6FD48
:100EA0000221002006F0FEFE022006F0DEFB0446D2
:100EB000014622A005F0BAFD234804F01BFF0020E4
:100EC00006F0ECFB012803D1154804F013FF00E005
:100ED000D0E700BF06F0F4FE1CA005F0A7FD09E076
:100EE000002006F0DBFB012804D10D4804F002FFCE
:100EF000FFF7BABAF4E70000000000000000F83F76
:100F00006465677265652031363000002073706556
:100F100065642020363000009A9999999999094082
:100F2000CDCC4C3E55415254303D2564000000006C
:100F300055415254313D2564000000005541525442
:100F4000323D256400000000CDCCCC3D2020205453
:100F5000455354204F5645520000000010B5002460
:100F600006F03DFD0446204610BD70B504460D4612
:100F70000A2C00DD0A3C0A2D00DD0A3D61B200208A
:100F800004F079FC69B2012004F075FC70BD2DE914
:100F9000F04104460D46684209F0D0FB8046FF4808
:100FA0000168404609F0E8FB074609F08FFB46B2AE
:100FB0003146002004F05FFC604209F0BFFB804630
:100FC000F6480168404609F0D7FB074609F07EFB6A
:100FD00046B23146012004F04EFCBDE8F081F048F5
:100FE0000068012802D1EF49086039E0EC48006848
:100FF000012807D9EA480068052803D20220E949F8
:1010000008602DE0E6480068052803D10320E54983
:10101000086025E0E2480068082803D10420E1497F
:1010200008601DE0DE480068032803D10520DD4983
:10103000086015E0DA4800680A2803D10620D9497B
:1010400008600DE0D648006818B1D54800680D2842
:1010500003D10720D349086002E00820D149086085
:10106000704710B50320D049086006F02FF9CF492A
:10107000086008460068142804DB08460068B0F5DC
:10108000AA7F26DD012005F074F9C94908600846E9
:101090000068642805D26FF059010846FFF765FF24
:1010A000EDE0C3480068A02805D26FF0270108468C
:1010B000FFF75BFFE3E0BE480068DC2804D9142199
:1010C0000846FFF752FFDAE000210846FFF74DFF20
:1010D000D5E0B6480068A02829DDB4480068C828D3
:1010E00025DA002005F045F9B24908600846006895
:1010F000642804D25A210846FFF737FFBFE0AD4805
:101100000068A02804D228210846FFF72EFFB6E089
:10111000A8480068DC2805D96FF013010846FFF7DE
:1011200024FFACE000210846FFF71FFFA7E09F481F
:101130000068142808DB9D4800681E2804DA102186
:101140004842FFF712FF9AE098480068B0F5A57F83
:101150000ADB96480068B0F5AA7F05DC6FF00F0146
:101160001020FFF702FF8AE0904800681E2808DB85
:101170008E4800683C2804DA1E214842FFF7F5FE3D
:101180007DE08A480068B0F5967F0ADB87480068F2
:10119000B0F5A57F05DA6FF01D011E20FFF7E5FE13
:1011A0006DE0824800683C2808DB804800685A28C7
:1011B00004DA32214842FFF7D8FE60E07B4800683D
:1011C000B0F5877F0ADB79480068B0F5967F05DACD
:1011D0006FF031013220FFF7C8FE50E0734800681D
:1011E0005A2809DB71480068782805DA6FF0310168
:1011F0003220FFF7BAFE42E06C480068F02809DBB5
:101200006A480068B0F5877F04DA32214842FFF768
:10121000ACFE34E065480068782809DB6348006864
:10122000962805DA6FF01D011E20FFF79EFE26E0CE
:101230005E480068D22808DB5C480068F02804DAC1
:101240001E214842FFF791FE19E058480068962891
:1012500009DB56480068A02805DA6FF00F0110205E
:10126000FFF783FE0BE051480068C82807DD4F48B0
:101270000068D22803DA10214842FFF776FE10BD3D
:1012800010B506F023F849490860084600681F2891
:1012900003DA01204349086055E0444800683D28CE
:1012A00003DA02203F4908604DE0404800685B28AF
:1012B00003DA03203B49086045E03C480068792890
:1012C00003DA0420374908603DE038480068972871
:1012D00003DA05203349086035E034480068B52852
:1012E00003DA06202F4908602DE030480068D32833
:1012F00003DA07202B49086025E02C480068F12814
:1013000003DA0820274908601DE028480068B0F586
:10131000877F03DC09202349086014E02348006824
:10132000B0F5967F03DC0A201E4908600BE01F48D9
:101330000068B0F5A57F03DC0B201A49086002E0C5
:101340000C20184908601948006810BD10B506F057
:1013500046FB1349086000211148006800F0F4FEC4
:101360001549086006F0ACFC0D4814A20121036881
:10137000002005F03DFC104813A202210368002064
:1013800005F036FC0648006801282ED10A4800689E
:1013900010490968884223D964211DE044000020D7
:1013A000200000201C0000205800002040000020E9
:1013B0002800002024000020540000204559455FEB
:1013C00043483D25640000004559455F494E3D2591
:1013D000640000007C0000201E20FFF7C6FDFFE037
:1013E00064211E20FFF7C1FDFAE0FF4800680228D3
:1013F0000FD1FE480068FE490968884204D964217B
:101400003C20FFF7B2FDEBE064213C20FFF7ADFD8F
:10141000E6E0F548006803280FD1F4480068F44975
:101420000968884204D964210846FFF79EFDD7E089
:1014300064210846FFF799FDD2E0EB4800680428D4
:101440000FD1EA480068EA490968884204D93C217A
:101450006420FFF78AFDC3E03C216420FFF785FD8F
:10146000BEE0E148006805280FD1E0480068E04987
:101470000968884204D91E216420FFF776FDAFE099
:101480001E216420FFF771FDAAE0D74800680628F6
:101490000FD1D6480068D6490968884204D900218E
:1014A0006420FFF762FD9BE000216420FFF75DFDF3
:1014B00096E0CD480068072811D1CC480068CC4997
:1014C0000968884205D96FF009016420FFF74DFDD6
:1014D00086E06FF009016420FFF747FD80E0C24815
:1014E0000068082811D1C1480068C14909688842CC
:1014F00005D96FF01D016420FFF737FD70E06FF034
:101500001D016420FFF731FD6AE0B7480068092833
:1015100011D1B6480068B6490968884205D96FF00C
:101520003B016420FFF721FD5AE06FF03B0164208E
:10153000FFF71BFD54E0AC4800680A2811D1AB4806
:101540000068AB490968884205D96FF063016420DF
:10155000FFF70BFD44E06FF063016420FFF705FD2A
:101560003EE0A14800680B2811D1A0480068A049BE
:101570000968884205D964216FF03B00FFF7F5FC4C
:101580002EE064216FF03B00FFF7EFFC28E0964867
:1015900000680C2811D1954800689549096888426F
:1015A00005D964216FF01D00FFF7DFFC18E064210E
:1015B0006FF01D00FFF7D9FC12E08B4800680D2882
:1015C0000ED18A4800688A490968884204D9642192
:1015D0000020FFF7CAFC03E064210020FFF7C5FCF0
:1015E000002010BD70B502208249086005F06EFE33
:1015F00081490860132004F0BCFE80490860002087
:1016000004F0B7FE7E490860012004F0B2FE7D4977
:101610000860022004F0ADFE7B490860032004F05E
:10162000A8FE7A490860132004F0A3FE78490968EF
:1016300088420BD9052004F09CFE7649096888424F
:1016400004D906F0FDF97449086001E0FFF77EFE59
:101650006D4800686D490968401A70490860704813
:1016600000686749096888420BD26C48006820B15D
:1016700046216420FFF779FC03E064214620FFF750
:1016800074FC66480068674909684942884278D90D
:101690006248006863490968884272D25F480068FE
:1016A00000283DD005F012FE534908600846006846
:1016B000192804DD08460068B0F5A77F04DD642121
:1016C0005A20FFF752FCD8E04B4800685A2807DC44
:1016D00049490968C1F164006421FFF746FCCCE088
:1016E00045480068B42804DC64210020FFF73DFC75
:1016F000C3E041480068B0F5877F04DC0021642026
:10170000FFF733FCB9E03C480068B0F5B47FDADCA1
:1017100039480068C0F164016420FFF726FCACE0A2
:1017200005F0D4FD3449086008460068192804DD36
:1017300008460068B0F5A77F04DD5A216420FFF752
:1017400014FC9AE02C4800685A2807DC2A480068F4
:10175000C0F164016420FFF708FC8EE026480068B1
:10176000B42804DC00216420FFF7FFFB85E0224859
:101770000068B0F5877F05DC64210020FFF7F5FBEA
:101780007BE00CE01C480068B0F5B47F75DC1A49BA
:101790000968C1F5B4706421FFF7E7FB6DE01F48ED
:1017A000006820490968884243D905F08FFD124935
:1017B000086008460068052807DB084600682D28F1
:1017C00003DC64210846FFF7D0FB0B4800680528BE
:1017D00004DB09480068B0F5A57F25DD46216420BB
:1017E000FFF7C3FB49E00000200000205400002068
:1017F0007C00002058000020400000206C000020E9
:1018000024000020280000202C00002030000020B0
:10181000700000204C0000209000002038000020C4
:10182000500000203C00002064210A20FFF79DFBAF
:1018300023E005F04BFD2D49086008460068B0F52F
:10184000B27F08DA08460068B0F59D7F03DD6421A9
:101850000846FFF78AFB25480068B0F5B27F03DA37
:10186000224800681E2804DA64214620FFF77DFB29
:1018700003E00A216420FFF778FB132004F079FDD0
:101880001B49096888421DD9052004F072FD1949D9
:101890000968884216D906F0D3F80546164801684B
:1018A000284609F049F80446144909F00FF809D20E
:1018B00000210846FFF759FB4FF07C5004F01AFA5C
:1018C000FFF744FD70BD10B506F0FAF90CA2002137
:1018D000084605F08DF901200C49086004E0FFF787
:1018E00035FD0B4804F006FAF9E70000400000203F
:1018F000700000204C00002090000020000070418B
:101900006674626C206120302E3133005800002054
:101910000AD7A33C10B501E006F0A0FBFCE70000ED
:101920002DE9F0439DB004460D464FF00709022C07
:1019300003DD00201DB0BDE8F083022C03D100249C
:101940004FF00E0901E04FF0070900260CE00721D7
:1019500001FB0460294600F006FD0FA941F82600AE
:1019600001A840F82660761C4E45F0DB002623E0F7
:10197000771C1EE00FA850F826000FA951F8271079
:10198000884215DD0FA850F8268050F827000FA9CF
:1019900041F826000FA840F8278001A850F82680BB
:1019A00050F8270001A941F8260001A840F8278037
:1019B0007F1C4F45DEDB761CA9F10100B042D7DC6D
:1019C00001A951F82000FF490860A9F101000FA901
:1019D00051F82000FC4908600020ABE710B5FBA0DF
:1019E00005F024F83221002003F045FF6FF01D01BF
:1019F000012003F040FF08E0FA4804F07BF90020E2
:101A000005F04CFE012800D100E0F5E700BF002002
:101A100010BD2DE9FF41322005F07FFE122804DAC7
:101A2000322005F07AFEF049086006F049F9EFA28D
:101A30000021022005F0DCF8EB48EFA2002103684A
:101A40004C2005F0D5F8EDA20121062005F0D0F8D4
:101A5000ECA20121302005F0CBF8ECA202210620F7
:101A600005F0C6F8EBA20221302005F0C1F8EBA288
:101A70000321062005F0BCF8EAA20321302005F07E
:101A8000B7F8EAA20421062005F0B2F8E9A2042181
:101A9000302005F0ADF8E9A20521062005F0A8F8F0
:101AA000E8A20521302005F0A3F801240AE0E7A20E
:101AB000E1B2002005F09CF8E4A2E1B22A2005F092
:101AC00097F8641C052CF2DDC7480068042808DC80
:101AD000DFA2C5480068401CC1B2002005F088F8AC
:101AE0000BE0C1480068042807DDBF480068001FFC
:101AF000C1B2D7A22A2005F07BF8B2E0012005F0A0
:101B0000CDFD01280AD1B84800680628F5DAB648A4
:101B10000068C1B2322005F014FEA2E0022005F0F8
:101B2000BDFD01284CD1CB4804F0E4F800BF0220F1
:101B300005F0B4FD0128FAD0C64804F0DBF8AA4845
:101B40000068082808DCA8480068A749086008461B
:101B50000068401C086003E0A3480068A2490860D0
:101B6000A148A5A2002103684C2005F041F80124FA
:101B70000AE0B6A2E1B2002005F03AF8B3A2E1B261
:101B80002A2005F035F8641C052CF2DD9648006823
:101B9000042808DCAEA294480068401CC1B20020B2
:101BA00005F026F85DE090480068042859DD8E486D
:101BB0000068001FC1B2A6A22A2005F019F850E063
:101BC000002005F06BFD01284BD1A24804F092F8EB
:101BD00000BF002005F062FD0128FAD09D4804F006
:101BE00089F881480068012808DB7F4800687E4941
:101BF000086008460068401E086003E07A480068F4
:101C00007949086078487CA2002103684C2004F0E0
:101C1000EFFF01240AE08DA2E1B2002004F0E8FF0A
:101C20008AA2E1B22A2004F0E3FF641C052CF2DD55
:101C30006D480068042808DC85A26B480068401CD9
:101C4000C1B2002004F0D4FF0BE06748006804280C
:101C500007DD65480068001FC1B27DA22A2004F09C
:101C6000C7FF032005F01AFD00283FF447AF5E4888
:101C7000006810B9FFF727FE33E25B4800680128CF
:101C800049D100240025002605F0DAFE054600BFF4
:101C900007E0032094FBF0F7384608F04FFD0646B6
:101CA000641C42F210708442F3DB06F009F86AA269
:101CB0000021084604F09CFF6BA20121002004F0E3
:101CC00097FF23466AA20221002004F091FF3046CC
:101CD00008F048FCCDE9020167A2CDE9000103212B
:101CE000002004F085FF05F0ABFE8046294608F091
:101CF0002DFE074608F036FCCDE9020160A2CDE9D1
:101D000000010421002004F073FF57A205210020E8
:101D100004F06EFFE5E134480068022851D1F6E096
:101D200005F0CEFF0021022000F075FA04460346BC
:101D300056A20121002004F05BFF0021022000F0E8
:101D4000BEFA0446034653A201212A2004F050FFA4
:101D50000021022000F058FB044603464FA2022156
:101D6000002004F045FF0021022000F0A1FB044602
:101D700003464CA202212A2004F03AFF012102204E
:101D800000F049FA0446034648A20321002004F06B
:101D90002FFF0121022000F092FA0446034645A2DB
:101DA00003212A2004F024FF064844A204210368EA
:101DB000002004F01DFF044842A2042103682A20E9
:101DC00084E0A5E0A4000020A80000204D6F746FFF
:101DD000722030202D3E2052756E2835302C2D3348
:101DE00030293B00CDCCCC3D9400002051585F52AF
:101DF0004F424F5420490000256400003020667493
:101E0000626C000035202E2E2E00000031206A73F7
:101E10007473000036202E2E2E00000032205473E2
:101E20004D43000037202E2E2E0000003320547327
:101E30004D65000038207274630000003420543176
:101E400030300000392074657374000020000000F9
:101E50003E0000006F12833A31205072696E746642
:101E60005F746573740A00002A2A2A2A2A2A2A0023
:101E7000693D256400000000692F333D25660000A0
:101E800075736574696D653D256600005463683D32
:101E90002564000054696E3D256400003130433DE7
:101EA000256400003130493D2564000063683D250C
:101EB00064000000696E3D25640000004843683DF1
:101EC0002564000048496E3D2564000004F090FE42
:101ED00000210A2000F038F90446034682A20521B9
:101EE000002004F085FE01210A2000F02DF90446AF
:101EF0000346AFF2580205212C2004F079FE7CA2A3
:101F00000021084604F074FE7D4803F0F3FE07E765
:101F10007C48006803286FD1002400250126012792
:101F200005F0CEFE78A20021084604F061FE79A2F9
:101F30000121002004F05CFE23467CA20221002047
:101F400004F056FE2B467BA20321002004F050FE35
:101F500070A20421002004F04BFE0021084603F08B
:101F60008AFC0021012003F086FC75E0002005F0CA
:101F700095FB012833D1012E05D10A346E2C09D1ED
:101F80005A24022606E00A3C14F1640002D16FF0E4
:101F90005904012661B2002003F06DFC05F090FEAB
:101FA00059A20021084604F023FE5AA20121002074
:101FB00004F01EFE23465DA20221002004F018FE5C
:101FC0002B465CA20321002004F012FE51A2042142
:101FD000002004F00DFE4FF07C5003F08BFE022039
:101FE00005F05CFB012834D1012F06D10A356E2D96
:101FF0000AD15A25022707E02FE00A3D15F16E00AD
:1020000002D16FF05905012769B2012003F033FCBA
:1020100005F056FE3CA20021084604F0E9FD3DA271
:102020000121002004F0E4FD234640A2022100200B
:1020300004F0DEFD2B463FA20321002004F0D8FD72
:1020400034A20421002004F0D3FD4FF07C5003F0B3
:1020500051FE3A4803F04EFE88E72A4800680428FB
:1020600005D105F02DFE36A004F0E0FC39E025484E
:102070000068052806D105F023FEAFF2782004F0B1
:10208000D5FC2EE01F480068062806D105F018FE92
:10209000AFF2802004F0CAFC23E01A480068072849
:1020A00006D105F00DFEAFF2842004F0BFFC18E06D
:1020B00014480068082808D105F002FEAFF28C2011
:1020C00004F0B4FCFFF726FC0BE00E48006809287A
:1020D00007D105F0F5FDAFF2942004F0A7FCFEF760
:1020E000BFF900BFFEE700005431303D2564000019
:1020F00054657374204D616943686F6E670000001A
:10210000CDCCCC3D940000204D65632054657374A4
:10211000000000002A2A2A2A2A2A2A2A2A2A2A2AC7
:102120002A2A2A2A2A2A2A2A000000006C733D251E
:102130006400000072733D25640000008FC2F53C0E
:1021400034202E2E2E0000002DE9F04FA5B00446BD
:102150000D464FF000080D2C03DD002025B0BDE832
:10216000F08F05F06DFC249020E005F069FC2390D1
:10217000DDE9230108F0EAFB019008F0F3F9CDE96D
:102180000201F5A00CC8029808F002F800D20EE097
:10219000B8F11E0F00DB0AE004F11001C8B204F030
:1021A000E8F805A941F8280008F10108DDE700BFBB
:1021B000002618E0771C13E005A850F8260005A9B2
:1021C00051F8271088420ADD05A850F826B050F8CB
:1021D000270005A941F8260005A840F827B07F1C74
:1021E0004745E9DB761CA8F10100B042E2DCDDF8EE
:1021F00014A0DDF81490B8F1000F02DD05A951F824
:1022000020901DB9A9EB0A00049001E0CDF81090D0
:1022100004984000A2E72DE9F0439DB004460D4626
:102220004FF00709022C03DD00201DB0BDE8F0834C
:10223000022C03D100244FF00E0901E04FF00709F2
:1022400000260CE0072101FB04602946FFF77CFF14
:102250000FA941F8260001A840F82660761C4E45DB
:10226000F0DB002623E0771C1EE00FA850F82600C4
:102270000FA951F82710884215DD0FA850F82680C5
:1022800050F827000FA941F826000FA840F8278032
:1022900001A850F8268050F8270001A941F826002F
:1022A00001A840F827807F1C4F45DEDB761CA9F192
:1022B0000100B042D7DC01A951F82000B5E72DE9B3
:1022C000F0439DB004460D464FF00709022C03DD94
:1022D00000201DB0BDE8F083022C03D100244FF094
:1022E0000E0901E04FF0070900260CE0072101FB71
:1022F00004602946FFF728FF0FA941F8260001A82E
:1023000040F82660761C4E45F0DB002623E0771C63
:102310001EE00FA850F826000FA951F82710884298
:1023200015DD0FA850F8268050F827000FA941F8B6
:1023300026000FA840F8278001A850F8268050F802
:10234000270001A941F8260001A840F827807F1C3A
:102350004F45DEDB761CA9F10100B042D7DC0FA9A6
:1023600051F82000B5E72DE9F34F9FB00446002057
:10237000009000270D2C02DD21B0BDE8F08F002079
:1023800000900EE01E2F00DB0EE004F11001C8B239
:1023900003F0EFFF01A941F827007F1C0098401CC3
:1023A000009000980A28EDDB00BF002518E06E1CA5
:1023B00013E001A850F8250001A951F82610884221
:1023C0000ADD01A850F825B050F8260001A941F80F
:1023D000250001A840F826B0761CBE42E9DB6D1C42
:1023E000781EA842E3DCDDF80490DDF80480002FBD
:1023F00002DD01A951F82080209810B9A8EB090A44
:1024000000E0C2465046B7E72DE9F0439DB00446D0
:102410000D464FF00709022C03DD00201DB0BDE87A
:10242000F083022C03D100244FF00E0901E04FF09D
:10243000070900260CE0072101FB04602946FFF78D
:1024400092FF0FA941F8260001A840F82660761CEB
:102450004E45F0DB002623E0771C1EE00FA850F865
:1024600026000FA951F82710884215DD0FA850F853
:10247000268050F827000FA941F826000FA840F841
:10248000278001A850F8268050F8270001A941F8BC
:10249000260001A840F827807F1C4F45DEDB761C14
:1024A000A9F10100B042D7DC01A951F82000B5E73D
:1024B0002DE9F0439DB004460D464FF00709022C6C
:1024C00003DD00201DB0BDE8F083022C03D1002401
:1024D0004FF00E0901E04FF0070900260CE007213C
:1024E00001FB04602946FFF73EFF0FA941F82600D3
:1024F00001A840F82660761C4E45F0DB002623E05C
:10250000771C1EE00FA850F826000FA951F82710DD
:10251000884215DD0FA850F8268050F827000FA933
:1025200041F826000FA840F8278001A850F826801F
:1025300050F8270001A941F8260001A840F827809B
:102540007F1C4F45DEDB761CA9F10100B042D7DCD1
:102550000FA951F82000B5E718EC866D8B324B3F80
:1025600030BF704720BF704740BF7047BFF36F8FC9
:102570007047BFF34F8F7047BFF35F8F704701DF26
:102580007047EFF31480704780F31488BFF36F8FA8
:102590007047EFF30980704780F309887047EFF3C5
:1025A0000880704780F30888704762B6704772B63B
:1025B0007047EFF31080704771B6704761B670478F
:1025C000EFF31380704780F311887047EFF31280A8
:1025D000704740BA704700BA704700000348004790
:1025E00003480449044A054B7047000031010008C4
:1025F000780F00207817002078130020781300202F
:1026000010B50446FD48201806D0B0F5806F0DD0F7
:10261000B0F5C05F1ED113E00121480201F074FC47
:1026200000214FF4007001F06FFC14E001218802DA
:1026300001F06AFC00214FF4806001F065FC0AE0C3
:102640000121C80301F060FC00214FF4004001F0BB
:102650005BFC00E000BF00BF10BD30B500220023CE
:102660004268E74C22400D790C6844EA0524224375
:1026700042608268E34C2240D1E902542C434D79F8
:1026800044EA450422438260C26A22F470020C7C50
:10269000641E1C43E3B242EA0352C26230BD002111
:1026A0000160017141718160C16001210174704755
:1026B00021B1826842F00102826003E0826822F068
:1026C00001028260704721B1826842F480728260A8
:1026D00003E0826822F480728260704710B50023A4
:1026E000CBB21AB144681C43446002E044689C4386
:1026F000446010BD816841F0080181607047014667
:1027000000208A6812F0080F01D0012000E00020AC
:102710007047816841F004018160704701460020E4
:102720008A6812F0040F01D0012000E000207047F9
:1027300021B1826842F4A002826003E0826822F440
:10274000A00282607047014600208A6812F4800F60
:1027500001D0012000E00020704710B500220023C6
:10276000426822F460424B1E42EA4332426010BD8E
:1027700021B1426842F40062426003E0426822F400
:10278000006242607047F0B500240025092911DD80
:10279000C468A1F10A0606EB4607072606FA07F504
:1027A000AC43A1F10A0606EB460603FA06F52C43F4
:1027B000C4600CE0046901EB4107072606FA07F53F
:1027C000AC4301EB410603FA06F52C430461072AEA
:1027D0000FDA446B561E06EB86071F2606FA07F52E
:1027E000AC43561E06EB860601FA06F52C434463FD
:1027F00022E00D2A0FDA046BD61F06EB86071F2690
:1028000006FA07F5AC43D61F06EB860601FA06F575
:102810002C43046310E0C46AA2F10D0606EB8607A0
:102820001F2606FA07F5AC43A2F10D0606EB860655
:1028300001FA06F52C43C462F0BD21B1826842F46E
:102840008012826003E0826822F480128260704706
:102850000146C86C80B270476B480068704721B170
:10286000426842F48062426003E0426822F480627F
:102870004260704721B1426842F48052426003E0F6
:10288000426822F48052426070470022826822F43B
:10289000E0420A438260704721B1826842F40042FC
:1028A000826003E0826822F400428260704721B1B6
:1028B000826842F40212826003E0826822F402120B
:1028C00082607047014600208A6812F4001F01D020
:1028D000012000E000207047F0B50024002500260C
:1028E000092911DDC468A1F10A0707EB470C072786
:1028F00007FA0CF5AC43A1F10A0707EB470703FA07
:1029000007F52C43C4600CE0046901EB410C072778
:1029100007FA0CF5AC4301EB410703FA07F52C432A
:102920000461846BC4F30156D71C06F1010CA7EBBC
:102930000C0707EB870C1F2707FA0CF5AC43D71CD5
:1029400006F1010CA7EB0C0707EB870701FA07F567
:102950002C438463F0BD10B500220023826B22F467
:1029600040124B1E42EA0352826310BD4250704730
:1029700002465018806A80B2704700224268234B9A
:102980001A400A43426070474162826270470022E7
:10299000426822F01F020A434260704740B11A4960
:1029A0004439096841F40001194AC2F8081407E0E3
:1029B00015494439096821F40001154AC2F8081480
:1029C00070470246002013680B4201D0012000E04E
:1029D00000207047CA430260704770B5024600206D
:1029E000002300240B125568CEB205EA06041568D0
:1029F0001D420FD074B101200DE0000000DCFEBFCD
:102A0000FFFEF0FFFDF7F1FF4C240140FFFD3FFF0B
:102A100000200140002070BD00220A12D343036051
:102A20007047000010B5012001F088FA002001F085
:102A300085FA10BD2349086070472249091F0860C4
:102A40007047204984310860704700211E4A118870
:102A50004FF67F42114001431C4AA2F82C1C7047DC
:102A60000021194A11884FF6807211400143174A1C
:102A7000A2F82C1C7047154A0244A2F8001C7047AB
:102A8000014612480844B0F8000C70470D489C30CD
:102A90000068C0B270470C480830008840F0010060
:102AA0000A49A1F8340C70470648A0300068C0B24B
:102AB000704705480830008840F002000349A1F83B
:102AC000340C704704860D422C6C004000600040BE
:102AD000FC49096801F03801FA4A11601146096899
:102AE000014311607047F749096821F00801F54A70
:102AF000116011460968014311607047F149096886
:102B000021F01001EF4A116011460968014311607C
:102B10007047ED48EB494860EC4848607047E94829
:102B2000006940F08000E749086170470420E549EA
:102B3000C96801F00101012901D101200EE0E1493C
:102B4000C96811F0040F01D0022007E0DD49C9680F
:102B500011F0100F01D0032000E004207047002086
:102B6000FF2000E0401E0028FCD1704770B50446ED
:102B70000425FFF7DBFF054605E0FFF7F0FFFFF751
:102B8000D5FF0546641E012D01D1002CF5D104B9F5
:102B90000525284670BD70B50446042540F6FF7033
:102BA000FFF7E4FF0546042D19D1C648006940F03F
:102BB0000200C449086108464461006940F04000D1
:102BC000086140F6FF70FFF7D1FF0546012D06D0E2
:102BD000BC48006941F6FD710840BA4908612846C1
:102BE00070BD10B5042440F6FF70FFF7BFFF044628
:102BF000042C18D1B348006940F00400B1490861C1
:102C00000846006940F04000086140F6FF70FFF799
:102C1000ADFF0446012C06D0AA48006941F6FB71BD
:102C20000840A8490861204610BD10B5042440F6AC
:102C3000FF70FFF79BFF0446042C3BD1A248A1493B
:102C40008860A24888600846006940F0200008615A
:102C50000846006940F04000086140F6FF70FFF749
:102C600085FF0446042C1CD19648006941F6DF71AB
:102C70000840944908610846006940F01000086166
:102C8000A520934908800F20FFF770FF0446012C10
:102C900010D08C48006941F6EF71084089490861FD
:102CA00008E0012C06D08748006941F6EF71084022
:102CB00084490861204610BD70B504460D460426BF
:102CC0000F20FFF753FF0646042E25D17D480069EB
:102CD00040F001007B49086125800F20FFF746FF87
:102CE0000646042E0FD1280C60800F20FFF73EFF10
:102CF0000646012E10D07348006941F6FE71084067
:102D00007049086108E0012E06D06E48006941F65E
:102D1000FE7108406B490861304670BD70B50446CD
:102D20000D4604260F20FFF721FF0646042E13D17F
:102D30006448006940F001006249086125800F2065
:102D4000FFF714FF0646012E06D05E48006941F6E3
:102D5000FE7108405B490861304670BD70B504469D
:102D60000D4604260F20FFF701FF0646042E17D15B
:102D7000554854498860554888600846006940F0C5
:102D80001000086125800F20FFF7F0FE0646012E97
:102D900006D04C48006941F6EF7108404949086186
:102DA000304670BD2DE9F04704464FF6FF752E46BC
:102DB0002F46A8464FF00409E443E5B2C4F30726C2
:102DC000C4F307474FEA14680F20FFF7CFFE814690
:102DD000B9F1040F41D13C483A4988603B488860CA
:102DE0000846006940F010000861FF2D06D0384801
:102DF000083005800F20FFF7B9FE8146B9F1040FB6
:102E000008D1FF2E06D032480A3006800F20FFF787
:102E1000ADFE8146B9F1040F08D1FF2F06D02C4832
:102E20000C3007800F20FFF7A1FE8146B9F1040F97
:102E300009D1B8F1FF0F06D02648A0F80E880F2060
:102E4000FFF794FE8146B9F1010F06D01D480069D5
:102E500041F6EF7108401B4908614846BDE8F0871C
:102E600070B50446042540F6FF70FFF77FFE054667
:102E7000042D4CD1144813498860144888600846D2
:102E8000006940F0200008610846006940F04000F9
:102E9000086140F6FF70FFF769FE0546042D2DD14D
:102EA0000848006941F6DF71084006490861084694
:102EB000006940F01000086174B1002004490880E6
:102EC0000DE000000020024023016745AB89EFCDF3
:102ED00000F8FF1F00F0FF1FA5204549088040F6BD
:102EE000FF70FFF743FE0546012D10D041480069F1
:102EF00041F6EF7108403F49086108E0012D06D016
:102F00003C48006941F6DF7108403A4908612846AB
:102F100070BD2DE9F04104460D461646042736489B
:102F200034498860354888600F20FFF71FFE074648
:102F3000042F1AD12F48006940F010002D49086174
:102F400044EA0500304340F0F8002949891C088014
:102F50000F20FFF70BFE0746012F06D0254800691A
:102F600041F6EF710840234908613846BDE8F08119
:102F70002048C069800870471E48006A70470020DA
:102F80001C49C96911F0020F01D0012000E00020A6
:102F9000704700201749096811F0200F01D0012067
:102FA00000E00020704729B1124A12690243114B18
:102FB0001A6104E00F4A126982430E4B1A6170478E
:102FC00001460020012908D10A4AD26912F0010FF6
:102FD00001D0012008E0002006E0064AD2680A423B
:102FE00001D0012000E0002070470249C86070470E
:102FF00000F8FF1F0020024023016745AB89EFCD99
:1030000010B50446C049601A8C422FD009DCBF4875
:10301000201810D0B0F5806F16D0B0F5006F4AD1EF
:103020001BE0B0F5806F2AD0B0F5006F30D0B0F55E
:10303000406F40D135E00121042000F065FF002100
:10304000042000F061FF37E00121082000F05CFF60
:103050000021082000F058FF2EE00121102000F090
:1030600053FF0021102000F04FFF25E00121202018
:1030700000F04AFF0021202000F046FF1CE0012163
:10308000402000F041FF0021402000F03DFF13E010
:103090000121802000F038FF0021802000F034FF63
:1030A0000AE00121080200F02FFF00214FF4807098
:1030B00000F02AFF00E000BF00BF10BD10B50121E5
:1030C000084600F021FF0021012000F01DFF10BD87
:1030D000F0B500220023002400250026002791F8E7
:1030E00003C00CF00F0291F803C01CF0100F03D0C6
:1030F00091F802C04CEA0202B1F800C01CF0FF0FC8
:1031000030D0066800242AE04FF0010C0CFA04F5D8
:10311000B1F800C00CEA0503AB421FD1A5004FF087
:103120000F0C0CFA05F7BE4302FA05FC4CEA060642
:1031300091F803C0BCF1280F05D14FF0010C0CFA37
:1031400004FCC0F814C091F803C0BCF1480F05D1CD
:103150004FF0010C0CFA04FCC0F810C0641C082CE1
:10316000D2D30660B1F800C0BCF1FF0F34DD466871
:1031700000242EE004F1080C4FF0010E0EFA0CF5BD
:10318000B1F800C00CEA0503AB4221D1A5004FF015
:103190000F0C0CFA05F7BE4302FA05FC4CEA0606D2
:1031A00091F803C0BCF1280F05D104F1080C0EFA08
:1031B0000CFEC0F814E091F803C0BCF1480F07D131
:1031C00004F1080C4FF0010E0EFA0CFEC0F810E0EE
:1031D000641C082CCED34660F0BD4FF6FF71018011
:1031E000022181700421C17070470246002093685B
:1031F0000B4201D0012000E00020704701468868A2
:1032000080B2704702460020D3680B4201D00120F3
:1032100000E0002070470146C86880B27047016135
:103220007047416170470AB1016100E04161704738
:10323000C16070474FF480320A43826181618261CC
:103240008269826970470022314B1A684FF6807399
:103250001A4042EA00120A432D4B1A6070472D496A
:10326000C8617047F0B50022002300250024284ED5
:103270007568C0F3034482B200F44016B6F5401FEF
:1032800008D125F07065224E766826F07066204FD2
:103290007E6012E000F48016B6F5801F06D103268A
:1032A00006FA04F39D4345F0706506E0460D3601CD
:1032B00002FA06F6B54345F0706521B1460D3601B8
:1032C00002FA06F63543124E7560F0BD30B50022A5
:1032D0008B071C0F0F2303FA04F20D4B08338C10DD
:1032E00053F8244094438D1043F825408C1053F834
:1032F00024308C07240F00FA04F42343044C0834D0
:103300008D1044F8253030BD0014014000F8FEBF98
:10331000000001400000204210B50446F848201883
:1033200003D0B0F5806F14D109E00121480500F009
:10333000F8FD00214FF4001000F0F3FD0AE0012138
:10334000880500F0EEFD00214FF4800000F0E9FD5B
:1033500000E000BF00BF10BD2DE9F04385B004467A
:103360000D46002600274FF00408DFF89893A68842
:103370004FF6C0700640684600F03EFDDDF808904C
:10338000E148B9FBF0F087B23E43A68020884FF6B3
:10339000FE71084020800026DC49E86888420FD88A
:1033A000E8684000B9FBF0F01FFA80F8B8F1040FAC
:1033B00001DA4FF0040846EA0806781C208429E068
:1033C0006888A0F53F41FF3907D1E86800EB40006D
:1033D000B9FBF0F01FFA80F80AE0E86800EBC001E2
:1033E00001EB0010B9FBF0F01FFA80F848F48048B8
:1033F000C8F30B00002801D148F0010848F4004050
:1034000006434FF4967078434FF47A7190FBF1F0D5
:10341000401C2084A683208840F00100208026885C
:103420004FF6F53006402888E98808430643268091
:103430002889A9880843208105B0BDE8F0830021D0
:1034400001804BF6FF71418000218180C1804FF4E3
:103450008041018141F28831C160704721B1028809
:1034600042F00102028004E002884FF6FE731A4027
:103470000280704721B1828842F40062828004E0B9
:1034800082884FF2FF731A408280704721B1828890
:1034900042F48052828004E082884EF6FF731A4024
:1034A0008280704721B1028842F48072028004E079
:1034B00002884FF6FF631A400280704721B10288EC
:1034C00042F40072028004E002884FF6FF531A4073
:1034D0000280704721B1028842F48062028004E0D9
:1034E00002884FF6FF331A4002807047002282891B
:1034F0004FF601731A4001F0FE031A4382817047B0
:1035000021B1828942F00102828104E082894FF672
:10351000FE731A408281704721B1028842F0400256
:10352000028004E002884FF6BF731A4002807047A1
:1035300010B51AB183880B43838004E08388CC43A1
:10354000A4B22340838010BD018270470146088ADF
:10355000C0B2704712B141F0010102E04FF6FE73B4
:103560001940018270470246505A704721B10288C3
:1035700042F40042028003E00288C2F30E0202809D
:103580007047B1F5005F04D1028842F40052028016
:1035900004E002884DF6FF731A400280704721B1A3
:1035A000028842F48052028004E002884EF6FF73E3
:1035B0001A4002807047B1F5006F04D1028842F4CE
:1035C0000062028004E002884FF2FF731A4002801A
:1035D000704721B1028842F02002028004E0028894
:1035E0004FF6DF731A40028070470146088B0012C5
:1035F000704721B1028842F01002028004E0028884
:103600004FF6EF731A400280704721B9028842F0EA
:103610008002028004E002884FF67F731A40028025
:103620007047B1F5804F05D0828B4BF6FF731A407F
:10363000828303E0828B42F480428283704710B51C
:103640000346002000210022998A1A8B120441EAC5
:10365000020424F07F4010BD70B503460024002210
:10366000002500209A8A1D8B2D0442EA050626F0CB
:103670007F448C4201D1012000E0002070BD70B574
:1036800004460020002500220023A28A238B1B046D
:1036900042EA030521F07F410D4201D0012000E004
:1036A000002070BD10B50022002321F07F420B0FD7
:1036B000012B02D1D44384820DE0022B01D1848AF4
:1036C00009E0062B05D1848A048844F001040480B3
:1036D00001E0848A048B10BD70B5044600200025EB
:1036E00000220023A28A238B1B0442EA030521F057
:1036F0007F410D4201D0012000E0002070BD00009C
:1037000000ACFFBF00127A0040420F00A08601000B
:1037100010B50022002321F07F420B0F012B02D1B4
:10372000D44384820DE0022B01D1848A09E0062B68
:1037300005D1848A048844F00104048001E0848A6D
:10374000048B10BD0020411EF24A11600A09F149A4
:103750008039C1F88420411E4FF0E022C2F8801267
:103760000A09ED490A6000BF04E00022EB4941F874
:103770002020401C0F28F8D3704700204FF0206114
:10378000E74A116000214FF0E022C2F8081DE54928
:10379000E34A083211600021121D1160121D1160F0
:1037A00000BF05E00022DE49143141F82020401C12
:1037B0000328F7D30021DA4A20321160491E4FF066
:1037C000E022C2F8281DD64A283211604FF0E022CC
:1037D000C2F8301D7047D3490143D14A0832116005
:1037E0007047F0B500210022002300240F25C67881
:1037F000002E36D0CA4E0836366806F4E066C6F5A6
:10380000E066310AC1F10404CD40467806FA04F1BD
:1038100086782E40314309010678B607F60EB1408E
:10382000BE4E0778BF1056F827200678B607F70E69
:10383000FF2606FA07F39A4319400A43B74E077862
:10384000BF1046F82720067806F01F070126BE4065
:1038500007787F114FF0E02C0CEB8707C7F8006169
:103860000BE0067806F01F060127B740A94E90F836
:1038700000C04FEA6C1C46F82C70F0BD00210170AE
:1038800041708170C170704710B5FEF790FE10BD99
:1038900010B5FEF78AFE10BD10B5FEF78DFE10BD07
:1038A00010B5FEF78BFE10BD10B504462001FEF7E3
:1038B0008AFE10BD10B5FEF789FE10BD984800685D
:1038C000C0F30930704710B501460020002201F016
:1038D0001F04012303FA04F28E4B80334C1153F87A
:1038E00024301340934201D1012000E0002010BD9C
:1038F0008D490860704700F01F0101228A40864907
:10390000091F431141F82320704785480068C0F320
:103910000900704710B501460020002201F01F0485
:10392000012303FA04F27C4B7C334C1153F824300E
:103930001340934201D1012000E0002010BD7848DF
:10394000001F00687047794A0A400243744B1B1DF0
:103950001A6070477348001D71490831086070474C
:103960007048401C6E4908310860704741B16C4A8C
:103970000C32126802434FF0E023C3F8102D07E029
:10398000674A0C32126882434FF0E023C3F8102DCF
:10399000704710B5002200F01F04012303FA04F25F
:1039A00041B15F4B20331B6813434FF0E024C4F850
:1039B000243D07E05A4B20331B6893434FF0E0242B
:1039C000C4F8243D10BDF0B50023FF2400250026D7
:1039D000534F08373F6807F4E067C7F5E0673E0AD2
:1039E000C6F10403F44001FA03F602EA04073E4379
:1039F000360100F0C0039B09C0F30124E700BE407C
:103A00004FEAC40CFF2707FA0CF5454F143757F857
:103A100023C02CEA050C47F823C057F823C04CEA12
:103A2000060C47F823C0F0BD10B501460020002267
:103A300000238B0A03F00F03012404FA03F3384C2C
:103A40002034246804EA03029A4201D1012000E0F4
:103A5000002010BD002100F01F01314A136801222F
:103A60008A4013434FF0E022C2F8043D704710B57E
:103A7000002100F01F012A4A13684C1E0122A240B7
:103A800013434FF0E022C2F8043D10BD10B50146CB
:103A9000002000230022C1F38332012404FA02F241
:103AA0001F4C2034246804EA0203934201D1012010
:103AB00000E0002010BD30B50146002000220023A8
:103AC000C1F38142C1F301531AB9154C283420685F
:103AD00011E0012A0CD1124C24342468DD0024FAB0
:103AE00005F0022B02D000F00F0004E0C0B202E0AB
:103AF0000B4C2C34206830BD014600200022C1F35D
:103B000080521AB9064B3033186802E0044B343344
:103B10001868704780E100E084E200E000E400E023
:103B200004ED00E00000FA0500EF00E080FFFF1F59
:103B300010B50121080700F0F4F900214FF0805082
:103B400000F0EFF910BD2A49086270472849086162
:103B500070470021274A116821F0E00101431160FC
:103B600070472349A0310860704770B504460E467F
:103B700000252048056825F00305254305601E48FB
:103B8000006840F004004FF0E021C1F8100D012E54
:103B900002D1FEF7E5FC01E0FEF7E4FC70BD10B5D4
:103BA0001448006840F004001249086008460068A4
:103BB00040F0020008601048006840F004004FF038
:103BC000E021C1F8100DFEF7CBFC10BD014600202E
:103BD000084A52680A4201D0012000E000207047E4
:103BE0000449096841EA8001024A116070470000F7
:103BF00000000E420070004010ED00E0DE4800685A
:103C000040F00100DC49086008464068DB49084094
:103C1000D949486008460068D9490840D649086033
:103C20000846006820F4802008600846406820F4B8
:103C3000FE004860002088607047CF49096821F481
:103C40008031CD4A11601146096821F4802111604C
:103C5000B0F5803F03D0B0F5802F0ED106E0C64905
:103C6000096841F48031C44A116007E0C24909681B
:103C700041F4A021C04A116000E000BF00BF7047BE
:103C800010B501460022002300204A11012A02D16A
:103C9000B94C236806E0022A02D1B74C236A01E03E
:103CA000B54C636A01F01F02012494401C4201D00C
:103CB000012000E0002010BD10B5002400BF31201D
:103CC000FFF7DEFFAF490870081F0068401C091F9E
:103CD0000860081D007828B908460068A0F58071C2
:103CE000FF39ECD13120FFF7CBFF08B1012400E010
:103CF0000024204610BD00219F4A116821F0F801E0
:103D000041EAC001116070479F4908607047002276
:103D1000994B5A6822F47C1240EA01031A43964BED
:103D20005A6070479849086670470021924A516866
:103D300021F003010143516070478F48406800F053
:103D40000C00704700218C4A516821F0F0010143BA
:103D5000516070470021884A516821F4E0610143B5
:103D6000516070470021844A516821F4605141EA52
:103D7000C0015160704729B17F4A527A02437E4B9D
:103D80005A7206E07C4A527AC343DBB21A407A4B3D
:103D90005A7270477C49D831086070470021764AD2
:103DA000516821F440410143516070470021724A3B
:103DB00020321170704A82F82010012802D00428A5
:103DC0000AD104E001216C4A2032117005E005217E
:103DD000694A2032117000E000BF00BF70476B4994
:103DE000086070476449096A0143634A1162704779
:103DF000664944390860704730B50021002200232D
:103E000000245D4D6D6805F00C0121B1042905D039
:103E1000082923D105E05E4D056022E05C4D056078
:103E20001FE0554D6D6805F47012022505EB9242B6
:103E3000514D6D6805F480331BB9564D55430560EF
:103E40000BE04D4D6D6815F4003F03D0514D5543C7
:103E5000056002E04E4D5543056002E04C4D0560A3
:103E600000BF00BF444D6D6805F0F00109094A4DDF
:103E70006C5C0568E54045603F4D6D6805F4E061A8
:103E8000090A454D6C5C4568E54085603A4D6D68B2
:103E900005F46051C90A404D6C5C4568E540C56059
:103EA000354D6D6805F44041890B3B4D10356C5C18
:103EB000C568B5FBF4F5056130BD29B12E4A5269DC
:103EC00002432D4B5A6104E02B4A526982432A4B2C
:103ED0005A61704729B1284A92690243264B9A6178
:103EE00004E0254A92698243234B9A61704729B1C5
:103EF000214AD2690243204BDA6104E01E4AD269AA
:103F000082431D4BDA61704729B11B4AD2680243D4
:103F1000194BDA6004E0184AD2688243164BDA6023
:103F2000704729B1144A12690243134B1A6104E025
:103F3000114A12698243104B1A6170471349403984
:103F4000086070471049C86470470B49C8717047D2
:103F50000948406A40F0807007494862704701464E
:103F60000020054A92680A4201D0012000E00020AA
:103F70007047014988727047001002400000FFF846
:103F8000FFFFF6FEB00000200000424280044242E3
:103F900000127A0000093D00E0AB000831B1564A3A
:103FA00012880243554BA3F8002807E0524A1288B2
:103FB000C3439BB21A40514BA3F8002870474E48A8
:103FC000001D008840F010004C49A1F8040870471B
:103FD0004948001D00884FF6EF7108404749A1F895
:103FE00004087047002144481C3001884348B0F859
:103FF000180841EA0040704700B50246FFF7DFFFAE
:10400000100C3D49183108803C49A1F81C28FFF7E5
:10401000DFFF00BD00B50246FFF7D1FFC2F303404A
:104020003549083108803549A1F80C28FFF7D0FF41
:1040300000BD00B50246FFF7C2FF100C2E4920312B
:1040400008802E49A1F82428FFF7C2FF00BD0020F8
:104050002949103109880907080B2849B1F81418B3
:104060000843704700BF2448001D008810F0200F4F
:10407000F9D070472048001D00884FF6F7710840BE
:104080001E49A1F8040800BF1B48001D008810F05D
:10409000080FF9D0704701460020174A121D1288F8
:1040A0000A4201D0012000E0002070471249091D9A
:1040B0000988C24392B21140104AA2F8041870470E
:1040C000014600200C4A121D12880A40D0B20B4A49
:1040D000B2F800280A4202D008B1012000E0002016
:1040E00070470549091D0988C24392B21140034A2D
:1040F000A2F804187047000000280040002000408B
:10410000042808D14FF0E021096941F004014FF083
:10411000E022116107E04FF0E021096921F004017C
:104120004FF0E022116170474FF0E0214861704785
:10413000012808D14FF0E021096941F001014FF059
:10414000E02211610EE0811C08D14FF0E0210969E5
:1041500021F001014FF0E022116103E000214FF056
:10416000E0229161704740B14FF0E021096941F0D0
:1041700002014FF0E022116107E04FF0E0210969F0
:1041800021F002014FF0E022116170474FF0E02072
:104190008069704710B50146002200230020CB1033
:1041A000022B03D14FF0E024226902E04FF0E0241B
:1041B000E26901248C40144201D0012000E000207B
:1041C00010BD000010B50446F849601A8C4245D075
:1041D0000CDCB4F1804F1DD0F548201823D0B0F589
:1041E000806F29D0B0F5006F54D12EE0B0F5806F0C
:1041F0003DD0B0F58E3F03D0B0F5923F4AD13FE0BD
:104200000121C802FFF780FE00214FF40060FFF794
:104210007BFE40E001210846FFF783FE00210120DC
:10422000FFF77FFE37E001210220FFF77AFE002131
:104230000220FFF776FE2EE001210420FFF771FE39
:1042400000210420FFF76DFE25E001210820FFF783
:1042500068FE00210820FFF764FE1CE00121102009
:10426000FFF75FFE00211020FFF75BFE13E0012146
:104270002020FFF756FE00212020FFF752FE0AE023
:1042800001214803FFF740FE00214FF40050FFF7E3
:104290003BFE00E000BF00BF10BD028802F08F02AD
:1042A0000280CA884B881A4303881A4302808A888E
:1042B00082850A88028501228282BE4A904202D00B
:1042C000BD4A904201D10A7A0286704770B5002239
:1042D00000230024058C4FF6FE7635400584038CC0
:1042E0008488028B4FF68F752A400D882A43751EED
:1042F0002B400D892B434D882B43CD888586AD4DB2
:10430000A84202D0AC4DA84213D14FF6F7752B400E
:104310004D892B434FF6FB752B408D882B4347F679
:10432000FF652C4047F6FF552C408D892C43CD89E5
:104330002C4384800283038470BD70B50022002367
:104340000024058C4FF6EF7635400584038C848875
:10435000028B48F6FF752A400D882D0642EA154269
:104360004FF6DF752B400D892D0543EA15434D8827
:104370002D0543EA1543CD8805878E4DA84202D00E
:104380008D4DA8421BD14FF67F752B404D892D05D1
:1043900043EA15434FF6BF752B408D882D0543EA40
:1043A000154347F6FF352C4047F2FF752C408D89A9
:1043B000AD0444EA1544CD89AD0444EA1544848033
:1043C0000283038470BD70B5002200230024058C95
:1043D0004FF6FF6635400584038C8488828B4FF648
:1043E0008F752A400D882A434FF6FF552B400D89C3
:1043F0002D0643EA15434D882D0643EA1543CD8823
:1044000085876C4DA84202D06B4DA8421BD14FF25C
:10441000FF752B404D892D0643EA15434FF6FF35B6
:104420002B408D882D0643EA154346F6FF752C4038
:1044300045F6FF752C408D892D0544EA1544CD893C
:104440002D0544EA154484808283038470BD70B5D1
:10445000002200230024058C4EF6FF7635400584AB
:10446000038C8488828B48F6FF752A400D882D06C0
:1044700042EA15424DF6FF752B400D892D0743EAA0
:1044800015434D882D0743EA1543CD88A0F84050C9
:10449000484DA84202D0484DA84205D1C4F30D04AE
:1044A0008D89AD0544EA154484808283038470BD00
:1044B000828B4FF2FF331A408283828B0B0642EAD3
:1044C000134282837047F0B5002400250026078C34
:1044D0004EF6FF7C07EA0C070784848B058C0F07D8
:1044E0003E0C40F6FF473C4017063F0C4FEA037C6A
:1044F00047EA1C473C434DF6FF773D4046F4805762
:104500003D4384830584F0BD828B4FF6F3731A40DC
:104510008283828B0A4382837047F0B50024002592
:104520000026078C4FF6FF6C07EA0C070784848B84
:10453000058C0F063E0C4FF60C773C401F0542EAF7
:1045400017473C434FF6FF573D4046F480773D43C5
:1045500084830584F0BD028B4FF2FF331A4002833F
:10456000028B0B0642EA134202837047F0B5002427
:1045700000250026078C4FF6EF7C07EA0C0707841E
:10458000048B058C0F053E0C40F6FF473C401F078F
:1045900044EA1744170644EA17444FF6DF773D40D4
:1045A00046F010073D4304830584F0BD0010004031
:1045B00000FCFFBF002C014000340140028B4FF68D
:1045C000F3731A400283028B0A4302837047F0B5EB
:1045D00000240025068C4FF6FE773E400684048BAF
:1045E000058C4FF60C7634401E0542EA16463443DD
:1045F0007E1E354041F00106354304830584F0BD3D
:1046000070B504460D46288850B92B89AA88698858
:104610002046FFF7DCFFE9882046FFF7CFFF25E0C3
:10462000288804280AD12B89AA8869882046FFF7A0
:104630009DFFE9882046FFF78EFF17E028880828AD
:104640000AD12B89AA8869882046FFF766FFE98886
:104650002046FFF759FF09E02B89AA886988204680
:10466000FFF731FFE9882046FFF722FF70BD2DE9F3
:10467000F04104460D4600260127688808B9022645
:1046800000E00026A888012801D1022700E00127C8
:104690002888A0B92B89AA8869882046FFF797FF48
:1046A000E9882046FFF78AFF2B893A4631462046A3
:1046B000FFF75CFFE9882046FFF74DFF13E02B89E9
:1046C000AA8869882046FFF751FFE9882046FFF74E
:1046D00042FF2B893A4631462046FFF778FFE988AA
:1046E0002046FFF76BFFBDE8F0810A884B881A432C
:1046F0008B881A43CB881A430B891A434B891A4378
:104700008B891A43A0F8442070474FF6FF718180CF
:1047100000210180C1804180017270470021018029
:1047200041808180C180018141818181C181704747
:10473000002101804180012181800021C18001810F
:1047400070470021018041808180C18001814181C9
:104750008181704721B1028842F00102028004E0A9
:10476000028840F2FE331A400280704731B1B0F83F
:10477000442042F40042A0F8442005E0B0F8442070
:10478000C2F30E02A0F84420704710B51AB1838915
:104790000B43838104E08389CC43A4B2234083810B
:1047A00010BD8182704741EA0203A0F8483070478B
:1047B00010B51AB183890B43838104E08389CC430C
:1047C000A4B22340838110BD01894FF6F8721140D5
:1047D00001817047002202894FF68F731A400A4305
:1047E0000281704730B504460D4629462046FFF742
:1047F000F1FF208940F00700208130BD2DE9F04114
:1048000004460D4616461F46602D06D13B46012242
:1048100031462046FFF7AAFE05E03B46012231461D
:104820002046FFF7D4FE29462046FFF7D3FF208914
:1048300040F007002081BDE8F08170B500240489B4
:10484000E4B241EA02051E0645EA16452C430481FE
:1048500070BD2DE9F04104460D46164698460027E6
:104860004346324629462046FFF7E7FF27894FF6A1
:10487000F870074047F007074FF68F70074047F082
:1048800070072781BDE8F081F0B504460D46164655
:104890001F463B46324629462046FFF7CEFF208979
:1048A00040F480402081F0BD018582827047002263
:1048B000028840F28F331A400A4302807047F0B5F5
:1048C0000024002500260489058B068C4FF6F87716
:1048D0003C400C434FF6FC473D4040F201173D433E
:1048E0004FF6DD773E401F0542EA17473E430481FD
:1048F00005830684F0BD0022028B4FF68F731A40A9
:104900000A43028370470022028B48F6FF731A4065
:104910000B0642EA1342028370470022828B4FF655
:104920008F731A400A43828370470022828B48F6B5
:10493000FF731A400B0642EA13428283704721B18B
:10494000028842F08002028004E0028840F27F3355
:104950001A400280704721B1828842F004028280AE
:1049600004E082884FF6FB731A408280704721B1C1
:10497000828842F00802828004E082884FF6F77352
:104980001A408280704721B1828842F00102828001
:1049900004E082884FF6FE731A408280704700223E
:1049A000028B4FF6F7731A400A43028370470022C6
:1049B000028B4FF2FF731A400B0642EA1342028346
:1049C00070470022828B4FF6F7731A400A438283A6
:1049D00070470022828B4FF2FF731A400B0642EAA7
:1049E0001342828370470022028B4FF6FB731A40FA
:1049F0000A43028370470022028B4FF6FF331A40AE
:104A00000B0642EA1342028370470022828B4FF664
:104A1000FB731A400A43828370470022828B4FF651
:104A2000FF331A400B0642EA13428283704700228A
:104A3000028B4FF67F731A400A43028370470022AD
:104A4000028BC2F30E020B0642EA13420283704746
:104A50000022828B4FF67F731A400A43828370478D
:104A60000022828BC2F30E020B0642EA13428283BB
:104A700070470022028C4FF6FD731A400A430284ED
:104A800070470022028C4FF6F7731A400A430284E3
:104A900070470022028C4FF6DF731A400B0542EA82
:104AA0001342028470470022028C4FF67F731A4033
:104AB0000B0542EA1342028470470022028C4FF633
:104AC000FF531A400B0642EA134202847047002249
:104AD000028C4FF2FF731A400B0642EA1342028423
:104AE00070470022028C4DF6FF731A400B0742EA12
:104AF00013420284704710B5038C01248C40E443B8
:104B0000A4B223400384038C02FA01F4A4B2234329
:104B1000038410BD10B5038C04248C40E443A4B27C
:104B200023400384038C02FA01F4A4B223430384D8
:104B300010BD30B5048C01238B40DB439BB21C407D
:104B4000048409B1082912D100F1180303EB6103B1
:104B50001C684FF68F731C4000F1180303EB6103D0
:104B60001C6000F1180303EB61031A6019E00B1FCE
:104B70009CB200F1180303EB64031C6848F6FF7352
:104B80001C400B1F9DB200F1180303EB65031C6072
:104B900013061C0C0B1F9DB200F1180303EB6503F9
:104BA0001C6030BD21B1028842F00202028004E0A4
:104BB000028840F2FD331A400280704721B102881A
:104BC00042F00402028004E0028840F2FB331A4003
:104BD0000280704721B1828842F08002828004E026
:104BE00082884FF67F731A4082807047028840F2B5
:104BF000F7331A40028002880A4302807047828895
:104C00004FF68F731A40828082880A4382807047F1
:104C100002894FF6F8731A40028102890A43028121
:104C2000704702894FF67F731A40028102890A4356
:104C30000281704781847047818570478186704703
:104C40000187704781877047A0F84010704702883D
:104C5000D2B2028002880A43028070470146888EE1
:104C600070470146088F70470146888F704701469C
:104C7000B1F8400070470146888C70470146088DA6
:104C8000704702460020138A0B4201D0012000E049
:104C900000207047CA430282704730B502460020A8
:104CA00000230024158A05EA0103958905EA010419
:104CB00013B10CB1012000E0002030BDCA430282D4
:104CC0007047000010B50446D749601A8C422BD0BB
:104CD00006DCD648201813D0B0F5806F38D119E023
:104CE000B0F5806F2AD0B0F56C4F31D10121880327
:104CF000FFF70AF900214FF48040FFF705F928E09B
:104D000001214804FFF70DF900214FF40030FFF7AF
:104D100008F91EE001218804FFF703F900214FF490
:104D20008020FFF7FEF814E00121C804FFF7F9F82E
:104D300000214FF40020FFF7F4F80AE001210805F4
:104D4000FFF7EFF800214FF48010FFF7EAF800E0DA
:104D500000BF00BF10BD2DE9F04786B004460D46E8
:104D60000026002700BF00BFB246A246268A4CF6A6
:104D7000FF700640E88806432682A6894EF6F310A7
:104D80000640A88829890843698908430643A68103
:104D9000A68A4FF6FF400640A8890643A68201A8CE
:104DA000FFF72AF85446A248824501D1049F00E04B
:104DB000039F07EBC70000EB071029688900B0FBD1
:104DC000F1F86420B8FBF0F006013009642101FB22
:104DD0001089322101EB09106421B0FBF1F000F0E1
:104DE0000F000643268106B0BDE8F0874FF4165148
:104DF000016000218180C18001810C21418100215D
:104E00008181704710B50022028A4FF2FF031A40D9
:104E10000B884C8823438C882343CC8823431A4334
:104E2000028210BD0021018041808180C1807047D5
:104E300021B1828942F40052828104E082894DF6D8
:104E4000FF731A4082817047F0B5002400250026C8
:104E500000230346C1F3421401F01F05012707FA9E
:104E600005F6012C01D10C3304E0022C01D11033E2
:104E700000E014331AB11F6837431F6002E01F6857
:104E8000B7431F60F0BD10B51AB1838A0B4383820C
:104E900004E0838ACC43A4B22340838210BD028AFB
:104EA0004FF6F0731A400282028A0A430282704768
:104EB00082894FF2FF731A40828182890A4382817C
:104EC000704721B1828942F00202828104E0828926
:104ED0004FF6FD731A4082817047028A4FF6DF73E6
:104EE0001A400282028A0A430282704721B1028A72
:104EF00042F48042028204E0028A4BF6FF731A40B9
:104F000002827047C1F30802828070470146888898
:104F1000C0F308007047818941F001018181704729
:104F2000028BD2B20283028B42EA012202837047D3
:104F3000028B02F47F420283028B0A430283704792
:104F400021B1828A42F02002828204E0828A4FF6F6
:104F5000DF731A408282704721B1828A42F01002C8
:104F6000828204E0828A4FF6EF731A408282704791
:104F700021B1828A42F00802828204E0828A4FF6DE
:104F8000F7731A4082827047828A4FF6FB731A4089
:104F90008282828A0A438282704721B1828A42F0E9
:104FA0000202828204E0828A4FF6FD731A408282F6
:104FB00070470246002013880B4201D0012000E018
:104FC00000207047CA430280704770B50246002334
:104FD000002400250020C1F3421501F01F04012622
:104FE00006FA04F4012D02D19689344006E0022D20
:104FF00002D1168A344001E0968A34400B12012611
:1050000006FA03F31688334014B10BB1012000E017
:10501000002070BD10B5002200230A120124944024
:10502000A3B2DC43048010BD004C004000BCFFBFB5
:105030000038014070B50446A4F12000C4B2002538
:105040000AE004EB4401A14A02EB4101485D012161
:1050500002F0E7FD681CC5B2062DF2DB70BD10B58D
:10506000044603E02078FFF7E5FF641C2078002861
:10507000F8D110BD70B504460E461546314620469F
:1050800002F010FE03E02878FFF7D4FF6D1C2878AB
:105090000028F8D170BD10B5024600248C4B08E002
:1050A000187E18B9587E08B9002010BD601CC4B223
:1050B0001A33187E9042F3D1587E8842F0D12046B0
:1050C000F3E72DE9F04704460D4616463BE096F817
:1050D0000090761C96F800A0761C51464846FFF7D3
:1050E000DAFF00EB800101EBC000794901EB4007DA
:1050F0002946204602F0D6FD4FF0000808E017F8D8
:105100000800012102F08DFD08F1010000F0FF0808
:10511000B8F10C0FF3DB681CC1B2204602F0C2FDEF
:105120004FF0000809E008F10C01785C012102F061
:1051300078FD08F1010000F0FF08B8F10C0FF2DB78
:1051400004F10D00C4B230780028C0D1BDE8F0876A
:10515000F0B5542800DDF0BD302900DDFBE70D4639
:10516000CF1701EB5777FC10CF1701EB5777FF10E4
:10517000A1EBC707FEB2C4EBC40505EB4505554FCF
:1051800007EB85052B5C1AB90125B540AB430CE054
:10519000012A04D10125B5401D43EBB205E0022AE6
:1051A00003D10125B5405D40EBB2C4EBC40505EB6E
:1051B0004505484F07EB85052B54CCE72DE9F84F03
:1051C00004460D4616461F46B44202D14FF0000871
:1051D00010E0BD4202D14FF001080BE0B44209D00B
:1051E000BD4207D04FF00208781B311B90FBF1F055
:1051F00000F0FF0BB8F1000F06D0B8F1010F11D08D
:10520000B8F1020F42D11BE0AA4608E00122514644
:105210002046FFF79DFF0AF1010000F0FF0ABA45A2
:10522000F4DB33E0A14608E0012229464846FFF7B7
:105230008FFF09F1010000F0FF09B145F4DB25E023
:10524000A14620E0BBF1000F10D1781B6421484338
:10525000311B90FBF1F0C0B20090009800FB09F008
:10526000642190FBF1F000F0FF0A03E00BFB09F072
:1052700000F0FF0A012251464846FFF769FF09F195
:10528000010000F0FF09B145DCDB00BF00BFBDE855
:10529000F88F70B50021084602F004FD002412E0EA
:1052A00000250CE0C4EBC40101EB4101094A02EB0B
:1052B0008101485D012102F0B4FC681CC5B2542D87
:1052C000F0DB601CC4B2062CEADB70BDB10000202C
:1052D000F4AB00084C030020F94800687047002137
:1052E000014600E0491E0029FCD1704705E0462137
:1052F00000BF0A00A1F10101FBD10200A0F10100F1
:10530000F5D1704700B585B04FF48060ADF800006E
:1053100004208DF803006946EA48FDF7D9FE4FF4F2
:105320000060ADF800006946E748FDF7D1FE4FF494
:105330000070ADF8000003208DF8020018208DF8F1
:1053400003006946DF48FDF7C3FE4FF48060ADF807
:1053500000006946DC48FDF7BBFE4FF4E1300190E8
:105360000020ADF80800ADF80A00ADF80C00ADF86B
:1053700010000C20ADF80E0001A9D448FFF7EBFC9B
:1053800001A9D348FFF7E7FC0021D048FFF750FD03
:105390000021CF48FFF74CFD00214FF48040FEF77D
:1053A00099FD00210120FEF795FD00214FF400201A
:1053B000FEF79DFD05B000BD10B5FEF71FFC4FF4D4
:1053C0008030FEF73AFCFEF777FC0446012C28D12A
:1053D0001020FDF793FB0220FDF77AFB0020FEF77B
:1053E000B1FC0020FEF7BEFC4FF4A060FEF7B2FC5B
:1053F000A003FEF7D3FC4FF4E0112004FEF787FC76
:105400000120FEF78FFC00BF3920FEF739FC002891
:10541000FAD00220FEF789FC00BFFEF78EFC0828B8
:10542000FBD101210846FEF762FD01210220FEF7B3
:105430005EFD01210420FEF74DFD01210820FEF74D
:1054400049FD01211020FEF745FD01212020FEF736
:1054500041FD01214020FEF73DFD01210846FEF7F8
:1054600039FD10BD08B501219A48FDF7FBFE4FF448
:105470008050ADF8000010208DF8030003208DF857
:10548000020069469448FDF723FE01210220FEF741
:105490002EFD01211120FEF71DFD01218F48FDF792
:1054A000E1FE4FF47070ADF8000018208DF8030095
:1054B00003208DF8020069468348FDF709FE40F697
:1054C000C800ADF8000010208DF80300694684483C
:1054D000FDF7FEFDFF20ADF8000028208DF8030049
:1054E00069467848FDF7F4FD0320ADF80000282058
:1054F0008DF8030069467848FDF7EAFD3F20ADF8D6
:10550000000028208DF8030069466F48FDF7E0FD94
:105510004FF46040ADF8000048208DF80300694664
:105520006948FDF7D5FD7C20ADF8000048208DF8D6
:10553000030069466B48FDF7CBFD4FF47E70ADF874
:10554000000048208DF8030069466348FDF7C0FD60
:105550004FF40050ADF8000048208DF80300694674
:105560005F48FDF7B5FD4FF48050ADF800004820CE
:105570008DF8030069465A48FDF7AAFD4FF46040D4
:10558000ADF8000048208DF8030069465248FDF749
:105590009FFD4FF40140ADF8000010208DF803008E
:1055A00069464848FDF794FD1020ADF800008DF8DD
:1055B000030069464A48FDF78BFD4FF4E060ADF803
:1055C000000010208DF8030069464548FDF780FD76
:1055D00008BD08B500214FF00060FEF7B4F91C20AB
:1055E0008DF8000000208DF8010001208DF80200E8
:1055F0008DF803006846FEF7F4F834208DF80000BB
:1056000001208DF801008DF802008DF80300684636
:10561000FEF7E7F84FF4E060FEF7DDF803208DF8C1
:10562000000001208DF8010000208DF8020001200B
:105630008DF803006846FEF7D4F808BD10B50420C5
:10564000FEF75EFD2848FEF76FFD0120FEF78BFD9B
:1056500000202649087048708870C8700120FEF745
:1056600067FD10BD2249086000BF21490968002973
:10567000FBD170471E48006820B11D480068401EDD
:105680001B490860704770B504460D46B4F5FA7FB3
:1056900002DA4FF4FA7404E041F28830844200DD0B
:1056A0000446144890FBF4F01349488008464188AA
:1056B0001248FFF7C1FA10480480057170BD000060
:1056C000E0020020000801400010014000380140C5
:1056D000004C004000023000000C0140000C1A0099
:1056E0000014014000180140401901002803002067
:1056F000DC02002080EE360044050020000400405B
:1057000010B5642800DD6420642900DD6421642A6A
:1057100000DD6422642B00DD6423FF4CA071617204
:105720002273E37310BD38B50446002C2DDD032C25
:105730002BDA012C02D0022C26D112E00121F748ED
:10574000FDF790FD4FF47070ADF8000018208DF853
:10575000030003208DF802006946F148FDF7B8FC0C
:1057600012E00021ED48FDF77DFD4FF47070ADF8BB
:10577000000010208DF8030003208DF80200694618
:10578000E748FDF7A5FC00BF00BF38BD10B50220FB
:10579000FFF7C9FF00224021E148FDF744FD002248
:1057A0008021DF48FDF73FFD00224FF48071DC4887
:1057B000FDF739FD00224FF40071D948FDF733FDA4
:1057C00010BD7FB5044604F00F06042E3BDA2020FE
:1057D000ADF800000120ADF802000020ADF8060091
:1057E0000420ADF804000220ADF808000020ADF858
:1057F0000A004FF48070ADF80C000020ADF80E00E8
:1058000036B1012E0AD0022E0ED0032E1AD112E08C
:105810006946C448FEF75AFD402513E06946C14871
:10582000FEF78BFD80250DE06946BE48FEF7CBFDF7
:105830004FF4807506E06946BA48FEF708FE4FF45B
:10584000007500BF00BF01222946B548FDF7EBFCFB
:105850007FBD10B50020FFF7B4FF0120FFF7B1FFB7
:105860000220FFF7AEFF0320FFF7ABFF10BD10B51E
:10587000FFF7EFFF10BD2DE9F04786B004460D4657
:1058800004F00F08A946B8F1040F79DA6020ADF8EA
:1058900008000120ADF80A000020ADF80E00042039
:1058A000ADF80C000220ADF810000020ADF8120099
:1058B0004FF48070ADF814000020ADF81600012000
:1058C000FFF731FF01219748FEF744FF012195487A
:1058D000FEF74CFF012090494874B8F1000F09D041
:1058E000B8F1010F12D0B8F1020F1CD0B8F1030FBC
:1058F00033D124E003228849491D01A802F0A2FE09
:10590000082702A98748FEF7E1FC26E082480189C2
:10591000ADF804104089ADF80600402702A981487F
:10592000FEF70BFD19E003227B490B3101A802F0C1
:1059300089FE802702A97B48FEF745FD0DE07648E9
:10594000C189ADF80410008AADF806004FF4006775
:1059500002A97448FEF77BFD00BF00BFB9F1640FD8
:1059600002DD4FF0640904E019F1640F01DA6FF011
:1059700063098DF80490B9F1000F02DB484602E09C
:105980006FE0C9F10000C6B29DF8050070436421C4
:1059900090FBF1F0C6B2604890F90400B04201DA21
:1059A0005D480679B9F1000F03D14046FFF709FFC2
:1059B00041E0B8F1000F09D0B8F1010F13D0B8F1F0
:1059C000020F1DD0B8F1030F34D126E052484088B1
:1059D0007043642190FBF1F01FFA80FA5146514860
:1059E000FFF72CF926E04C4840887043642190FB77
:1059F000F1F01FFA80FA51464A48FFF721F919E001
:105A0000454840887043642190FBF1F01FFA80FA0A
:105A100051464448FFF716F90CE03F484088704370
:105A2000642190FBF1F01FFA80FA51463D48FFF7E0
:105A30000BF900BF00BF9DF90400002808DB70B21D
:105A40008DF80600012239463748FDF7ECFB08E0E7
:105A5000704240B28DF80600002239463248FDF708
:105A6000E2FB06B0BDE8F0872DE9F04104460D46A3
:105A700016461F46DDF8188014F0010F03D02946A2
:105A80000020FFF7F8FE14F0100F03D0314601207C
:105A9000FFF7F1FE14F4807F03D039460220FFF7B0
:105AA000EAFE14F4805F03D041460320FFF7E3FED3
:105AB000BDE8F08100B587B001210220FEF717FA9A
:105AC00001211120FEF706FA0020ADF81600ADF80E
:105AD00012008DF818000920ADF8100042F20F7086
